:020000040800F2
:10000000400B00207D020008470800084B0600084E
:1000100043080008A10500082B09000800000000A3
:100020000000000000000000000000008B08000835
:100030004906000800000000890800088D08000833
:10004000970200089702000897020008970200082C
:10005000970200089702000897020008970200081C
:10006000970200089702000897020008970200080C
:1000700097020008970200089702000897020008FC
:1000800097020008970200088105000897020008FF
:10009000ED05000897020008A50500089702000872
:1000A00097020008970200089702000897020008CC
:1000B000000000009702000897020008970200085D
:1000C00097020008970200089702000897020008AC
:1000D000970200089702000897020008000000003D
:1000E00097020008970200080000000000000000CE
:1000F0000000000000000000000000000000000000
:1001000000000000000000000000000000000000EF
:100110000000000000000000970200082909000804
:1001200000000000000000000000000000000000CF
:1001300000000000000000000000000000000000BF
:10014000970200080000000000000000000000000E
:10015000000000000000000000000000000000009F
:10016000000000000000000000000000000000008F
:10017000000000000000000000000000000000007F
:1001800000000000970200080000000000000000CE
:10019000000000000000000000000000000000005F
:1001A000000000000000000000000000000000004F
:1001B00000000000000000009702000800F002F8B4
:1001C00000F04CF80AA090E8000C82448344AAF1A5
:1001D0000107DA4501D100F041F8AFF2090EBAE8A3
:1001E0000F0013F0010F18BFFB1A43F0010318476B
:1001F000BC500000DC5000000A4410F8014B14F021
:100200000F0508BF10F8015B240908BF10F8014B67
:100210006D1E05D010F8013B6D1E01F8013BF9D1B0
:10022000641E03D0641E01F8015BFBD19142E4D34C
:10023000704700000023002400250026103A28BF44
:1002400078C1FBD8520728BF30C148BF0B60704748
:100250001FB504F025FF1FBD10B510BD00F05AF901
:100260001146FFF7F5FF02F003FE00F078F903B442
:10027000FFF7F2FF03BC00F07BF90000094880475C
:1002800009488047FEE7FEE7FEE7FEE7FEE7FEE7F8
:10029000FEE7FEE7FEE7FEE704480549054A064B90
:1002A0007047000095080008BD01000840050020C7
:1002B000400B0020400700204007002053EA020CBA
:1002C00000F069802DE9F04B4FF00006002B1FBFB6
:1002D000B3FA83F503FA05F424FA05F65E4012BF7B
:1002E0001643B2FA82F502FA05F4C5F120051EBFE5
:1002F00022FA05FC44EA0C04203556EA044C4FEA85
:10030000144418BF641C4FF000084FF000099042DD
:1003100071EB030C39D3002919BFB1FA81F701FA47
:1003200007F6B0FA80F700FA07F6C7F120071EBFFC
:1003300020FA07FC46EA0C062037B6FBF4FCA7EBD4
:100340000507103F07F01F0BCBF120060CFA0BFB43
:100350002CFA06F644BFB3460026202FA4BF5E4603
:100360004FF0000B5BEA060C08BF4FF0010B19EBD6
:100370000B09ABFB027C48EB0608C01B06FB02CC5A
:100380000BFB03CC71EB0C01C1E70B460246414667
:100390004846BDE8F08B13B54FF000004FF0000168
:1003A000AFF30080BDE81C407047032A40F2308064
:1003B00010F0030C00F0158011F8013BBCF1020FA6
:1003C000624498BF11F801CB00F8013B38BF11F827
:1003D000013BA2F1040298BF00F801CB38BF00F83E
:1003E000013B11F0030300F02580083AC0F00880BB
:1003F00051F8043B083A51F804CBA0E80810F5E79F
:10040000121D5CBF51F8043B40F8043BAFF3008081
:10041000D20724BF11F8013B11F801CB48BF11F8F6
:10042000012B24BF00F8013B00F801CB48BF00F8C6
:10043000012B704710B5203AC0F00B80B1E818507E
:10044000203AA0E81850B1E81850A0E81850BFF4BE
:10045000F5AF5FEA027C24BFB1E81850A0E818505D
:1004600044BF18C918C0BDE810405FEA827C24BFB1
:1004700051F8043B40F8043B08BF7047D20728BF3F
:1004800031F8023B48BF11F8012B28BF20F8023B8E
:1004900048BF00F8012B70474FF0000200B513462B
:1004A00094469646203922BFA0E80C50A0E80C5094
:1004B000B1F12001BFF4F7AF090728BFA0E80C5045
:1004C00048BF0CC05DF804EB890028BF40F8042B3E
:1004D00008BF704748BF20F8022B11F0804F18BFAB
:1004E00000F8012B704770477047704710B500F057
:1004F00009F8006810BD10B5044600F003F8046068
:1005000010BD000000487047DC0400200048704720
:10051000DC0400207546FFF7F9FFAE46050069468A
:10052000534620F00700854618B020B5FFF7B4FE0B
:10053000BDE820404FF000064FF000074FF00008E4
:100540004FF0000B21F00701AC46ACE8C009ACE865
:10055000C009ACE8C009ACE8C0098D46704710B5C9
:100560000446AFF300802046BDE81040FFF77FBE91
:1005700001491820ABBEFEE72600020070470000CC
:1005800010B50421054800F04CFD30B1034800F0DF
:10059000B5FE0421014800F02EFD10BD00210140F0
:1005A00000BFFEE710B54FF480710F4800F0DCFF8C
:1005B00020B14FF480710C4800F0C7FF02210A48B7
:1005C00000F0D2FF18B10221074800F0BEFF4FF43F
:1005D0008061054800F0C8FF20B14FF480610248F7
:1005E00000F0B3FF10BD00000064004000B595B0FE
:1005F0008021144800F0B8FF38B18021114800F084
:10060000A4FF69460F4801F067F810210D4800F07B
:10061000ABFF18B110210B4800F097FF20210948CB
:1006200000F0A2FF18B12021064800F08EFF402103
:10063000044800F099FF18B14021024800F085FFFE
:1006400015B000BD00640040704700BFFEE7000029
:1006500030B502460023002405E0105D5840084DE7
:100660002B5C601CC4B2481EA042F6DC83F055032C
:10067000105C984201D1012030BD0020FCE7000051
:10068000300000207CB504460025002001900323A3
:100690000122694601A800F00FF803216846FFF720
:1006A000D7FF05469DF801009DF8001040EA0120A3
:1006B000208028467CBD00002DE9F04105460E460D
:1006C0001746984640210E4802F0E2FA002405E061
:1006D000287803F0A5F96D1C601CC4B2BC42F7DB9E
:1006E000002405E003F060F93070761C601CC4B291
:1006F0004445F7DB4021024802F0CCFABDE8F08126
:10070000000402400146034801600348014A50606A
:1007100010467047340100202C52000810B50446E2
:100720000021204600F05CF8204600F004F80A2082
:1007300000F032F810BD10B5044694F8280000B15E
:1007400010BD0021204600F04BF8A188002220684F
:1007500000F028F8012084F8280000BFF0E710B569
:100760000446204600F005F80121204600F038F844
:1007700010BD10B5044694F8280000B910BDA1883A
:100780000122206800F00EF8012000F005F800209A
:1007900084F8280000BFF1E710B50446204601F0B8
:1007A000C3FB10BD70B504460E46154604B970BDB6
:1007B00025B13146204602F06DFA03E0314620466D
:1007C00002F066FA00BFF2E770B504460D46282233
:1007D00029462046FFF72EFE2046FFF7ACFF70BDEE
:1007E00070B505460C4622460021284600F00BF85D
:1007F00022460121284600F006F82246022128461A
:1008000000F001F870BD2DE9F04104460F46904616
:1008100027B1012F05D0022F09D105E0A568A689CF
:1008200007E02569A68A04E0A569A68B01E0BDE87A
:10083000F08100BF424631462846FFF7B3FF00BFB4
:10084000F5E700BFFEE77047F0B503460C4603F03E
:100850000701C1F10700042801D9042001E0C1F11A
:1008600007000646081D072801D2002000E0C81E28
:1008700005460120B040401E2040A8400127AF405F
:100880007F1E17403843F0BD7047704710B504F025
:10089000DFF910BD2048006840F470001E49086070
:1008A0001E48006820F00100401C1C49086000BF81
:1008B0001A480068C0F340000028F9D017480830F3
:1008C000006820F0030015490831086000BF134894
:1008D00008300068C0F381000028F8D14FF0804054
:1008E0000E49083108600D4800680D4908400B4961
:1008F00008600C48091D08604FF471200749A031B9
:1009000008604FF41F0005490C3108604FF000608B
:10091000014980390860704788ED00E000380240E6
:10092000FFFFF2FE02300300704700BFFEE7410008
:10093000080218BF04200A0E18BF40F001004FF053
:100940007F4232EA010108BF40F00200012808BFDF
:100950000520704702480068C0F30220704700007D
:100960000CED00E010B5002804DB0A07130E054A61
:10097000135406E00A07140E034A00F00F031B1F6E
:10098000D45410BD00E400E018ED00E010EE101AA1
:1009900008B5444A6846B2EB410F28D94FF0E6400B
:1009A000B0EB410F94BF00204FF0FF300090009853
:1009B000002861DB60EE000A10F0010F45D010F056
:1009C000020FDFED391A9FED391A00EEE11ADFED63
:1009D000381A40EE811A21EEA01AF0EE400A40EEDD
:1009E000010A08BFF1EE600AB0EE600A08BD314BA3
:1009F00021F0004293423CD911F0004FDFED2E0A66
:100A000020EE201ADFED2D0A19BF31EE601A71EECB
:100A1000200A31EE201A71EE600ABDEEE01A11EEE6
:100A2000100A9FED271A00F0030000EEC10A9FEDA7
:100A3000251A009000EEC10A9FED231A00EEC10AAC
:100A40009FED221A00EEC10AB1E79FED211A9FED3A
:100A5000210A10F0020F00EE810A9FED1F1A00EE2E
:100A6000801AB7EE000A00EE810A18BFB1EE400A04
:100A700008BD00F083F99AE710EE100A4000B0F1CB
:100A80007F4F3CBFB7EE000A08BD07D14FF0010011
:100A9000FFF731FDBDE8084000F060B9BDE808404F
:100AA00000F059B9B61F927E336D4C39DA82083C9A
:100AB000A0AA2ABE490E494683F9223F0000004BF6
:100AC0000000C93F00A0FD390020A2331A61342C78
:100AD000B93AB2BACA9F2A3DDDFFFFBE10B52DED6F
:100AE000028BF0EE408A18EE900AB0EE608A20F099
:100AF0000040C0F1FF40C00F07D118EE100A20F0EF
:100B00000040C0F1FF40C00F2BD018EE101A18EEB5
:100B1000900A04F0CBFA00EE100A10EE100A6FEA09
:100B2000D05010F0FF0F04BFBDEC028B10BD18EECB
:100B3000900A00F0004110EE100A00F000408142DF
:100B400004BFBDEC028B10BD18EE101A10EE100A97
:100B5000BDEC028B61F31E0000EE900A30EE600ADD
:100B600010BD18EE900A4FF07F41B1EB400F1CBF53
:100B700018EE100A5FEA4000C7D10120FFF7BBFC66
:100B8000BDEC028BBDE8104000F0E8B800B510EEF7
:100B9000101A2DED028B81B0524A6846B2EB410F1C
:100BA0002ED94FF0E640B0EB410F94BF00204FF03C
:100BB000FF3000900098B0EE408A00286ADB10F009
:100BC000010F4BD068EE080A9FED471A9FED470AC8
:100BD00000EE810A9FED461A10F0020F00EE801A17
:100BE000B7EE000A00EE810A02BF01B0BDEC028B35
:100BF00000BD00BF01B0B1EE400ABDEC028B00BDEC
:100C00003C4B21F00042934241D911F0004FDFEDFF
:100C10003A0A20EE201ADFED390A19BF31EE601AC8
:100C200071EE200A31EE201A71EE600ABDEEE01A74
:100C300011EE100A9FED321A00F0030000EEC10A17
:100C40009FED301A009000EEC10A9FED2F1A00EEC2
:100C5000C10A9FED2E1A00EEC10AABE728EE080A82
:100C60009FED2B1ADFED2B0A10F0020F40EE410A28
:100C70009FED291A00EE201A61EE000AB0EE480A34
:100C800008EE200AB6D101B0BDEC028B00BD00F029
:100C900075F88FE718EE100A4000B0F17F4F0DD2C3
:100CA00018EE100AFFF743FE042808BF00F05EF8B4
:100CB000B0EE480A01B0BDEC028B00BD09D10120A5
:100CC000FFF719FC01B0BDEC028B5DF804EB00F0FE
:100CD00045B801B0B0EE480ABDEC028B5DF804EBFC
:100CE00000F039B8B61F927EB93AB2BACA9F2A3D0F
:100CF000DDFFFFBE490E494683F9223F0000004B4D
:100D00000000C93F00A0FD390020A2331A61342C35
:100D1000336D4C39DA82083CA0AA2ABE10B52DEDFD
:100D2000028BB1EEC08A18EE100A20F00040C0F12C
:100D3000FF40C00F0AD010EE100A20F00040C0F1B2
:100D4000FF40C00F04BF0120FFF7D5FBB0EE480AFB
:100D5000BDEC028B10BD30EE000A7047DFED020AD9
:100D600080EEA00A70470000000000009FED020A1C
:100D700020EE000A70470000000000102DE9F0018D
:100D80004FF07F42B2EB410F9FBF4FF0FF31016048
:100D9000BDE8F00170474FF0004242EA0123C1F381
:100DA000C752783A551112F01F0C434CCCF1200673
:100DB0007C44C1F3C752A2F178024FEA621204EBFD
:100DC000820254F8254008BFD2E9015612D0556876
:100DD00004FA0CF425FA06F73C43976805FA0CF57B
:100DE00027FA06F8D26807FA0CFCF24045EA080533
:100DF0004CEA0206A4FB034CA5FB0352A6FB0363CB
:100E00001D449D4234BF012600261319334416B1F8
:100E1000934202D903E0934201D2012200E0002272
:100E2000624402F1200C9206DC0C42EA443200EEED
:100E3000102A5B03DFED210AF8EEC01A00EE103A2B
:100E40004FEA9C1C11F0004FB8EE400AC0F800C0F9
:100E500020EE201A00EE105ADFED190AB8EE400A13
:100E600020EE200A71EE810A70EE800A10EE902AC0
:100E700002F500626FF30B0200EE902A70EEE11AA9
:100E800031EEC11ADFED101A30EE411A9FED0D0A56
:100E900020EE800A01EE210A9FED0C1A00EE810A75
:100EA00004BFBDE8F0017047CCF180510160BDE89E
:100EB000F001B1EE400A7047D8440000000000364F
:100EC0000000802C22AAFD29DB0FC92F0000C92FAA
:100ED0000B78426863F3082242604B78826863F3C0
:100EE000410282608B78826863F3CB228260CA7889
:100EF000521EC36A62F31753C36270470021017028
:100F0000417081700121C1707047816821F0080132
:100F100008318160704701468868C0F3C00008B19D
:100F2000012070470020FCE7816821F00401091DC1
:100F30008160704701468868C0F3800008B10120D5
:100F400070470020FCE7000002782249096862F33C
:100F50000401204A116042781F49D1F8041362F35A
:100F600013411C4A1160817801F0040149B1114616
:100F7000096821F0805101F18051174AC2F8041329
:100F800006E01449096821F08051134AC2F804139D
:100F90008178104A126861F38F320E490A60C27874
:100FA0000D49D1F8041362F34D310A4A11600279F8
:100FB0000949D1F8041362F30B21064A1160427902
:100FC0000549D1F8041362F3D751034AC2F8041358
:100FD00070470000042301400020014000210170FF
:100FE00041708170C170017141717047826861F315
:100FF000000282607047CA430260704702460020C8
:1010000013680B4003B900E001207047012A03D1A7
:1010100043680B43436003E012B943688B4343606A
:1010200070470246002004291ED004DC012907D0A5
:10103000022937D10EE0202920D0802932D127E0A3
:10104000136803F0010323B15368C3F3801303B1A2
:10105000012028E01368C3F3400323B15368C3F3AE
:10106000401303B101201EE01368C3F3800323B1D2
:101070005368C3F3C01303B1012014E01368C3F332
:10108000401323B15368C3F3806303B101200AE026
:101090001368C3F3C01323B15368C3F3C06303B130
:1010A000012000E000BF00BF70474A1E836B62F35F
:1010B00015538363704770B500241B296ED2DFE897
:1010C00001F00E13181D22272C31363B40454A876C
:1010D0004F54595E8763686E73787D878200056917
:1010E00063F30205056174E0056963F3C5050561F5
:1010F0006FE0056963F3881505616AE0056963F3CC
:101100004B25056165E0056963F30E35056160E017
:10111000056963F3D13505615BE0056963F39445C7
:10112000056156E0056963F35755056151E00569AE
:1011300063F31A6505614CE0056963F3DD650561DC
:1011400047E0C56863F30205C56042E0C56863F324
:10115000C505C5603DE0C56863F38815C56038E026
:10116000C56863F30E35C56033E0C56863F3D135F8
:10117000C5602EE0C56863F39445C56029E0C56885
:1011800063F35755C56024E0C56863F3DD65C5604A
:101190001FE0056D63F3020505651AE018E0056DB3
:1011A00063F3C505056514E0056D63F388150565F2
:1011B0000FE0056D63F34B2505650AE0056D63F3EC
:1011C0000E35056505E0056D63F39445056500E0A2
:1011D00000BF00BF856BC5F30156D51CAD1BACB27B
:1011E000012C06D0022C09D0032C0CD0042C14D1D5
:1011F0000EE0856B61F3040585630FE0856B61F399
:10120000491585630AE0856B61F38E25856305E0EA
:10121000856B61F3D335856300E000BF00BF70BD0F
:101220000246002031B1012907D0022908D0032944
:101230000CD108E0D36B98B209E0136C98B206E0C9
:10124000536C98B203E0936C98B200E000BF00BF0B
:1012500070470F290ADD836823F4000303F50003B8
:101260008360836861F31343836007E0836823F43A
:1012700000038360836861F313438360836862F3D0
:1012800015538360704731B1012909D002290CD070
:10129000032914D10EE0436962F30B0343610FE0AD
:1012A000836962F30B0383610AE0C36962F30B0392
:1012B000C36105E0036A62F30B03036200E000BF51
:1012C00000BF704710B50121034800F0FDFB00216D
:1012D000014800F0F9FB10BD08002400426861F3EA
:1012E00019624260704702464B1E22EA03007047B3
:1012F0000246481E10444B1E9843704770B5044682
:1013000025460348854201D101F0A6F870BD0000D2
:101310000021014070B5054605B970BD05F1E40432
:1013200000210C48FFF77CFFA4F870000121094858
:10133000FFF776FFA4F8580002210648FFF770FF78
:101340005A21085303210348FFF76AFF5C21085321
:1013500000BFE2E70021014010B5044600F052FC56
:1013600010BD012101700C214180042101714170E7
:101370000621C1800221017241710721417270472B
:101380000A78521E036962F3040303614A88921EBD
:10139000436862F3080343600A79521E436862F3AC
:1013A000164343604A78521E436862F31E634360EB
:1013B0008A79921E836862F3070383600A7A521E59
:1013C000836862F3164383604A79521E836862F32E
:1013D0001E6383604B7A026963F30F2202617047D8
:1013E000C26A61F30302C2627047826A61F3D75234
:1013F00082627047002101600171417181718172C7
:10140000C17101724172491EC160012202744274AD
:101410000F22827401228275C27402754275704770
:1014200010B54AB101238B40446C43EA1444436C29
:1014300064F31F43436408E0436C1B0C01248C409D
:10144000A343446C63F31F44446410BD30B5436C44
:1014500061F303034364137913B1012B0AD104E050
:1014600013885B05DB08836405E0136823F06043A1
:10147000836400E000BF00BF1479C36C64F31043C1
:10148000C3645479C36C64F31453C3649479C36C18
:1014900064F30303C364947AC36C64F31C73C3647E
:1014A000147AC36C64F39243C364D479C36C64F359
:1014B0005143C364547AC36C64F3DB63C3644FF079
:1014C000FF338365137913B1012B11D108E0846DCB
:1014D000958940F2FF73AB4324EA8343836508E0B8
:1014E000836D6FF06044D568AC43A343836500E02F
:1014F00000BF00BF4FF0FF33C365147CC36D64F3BE
:101500001043C365547CC36D64F31453C365947C6A
:10151000C36D64F30303C365947DC36D64F31C73EF
:10152000C365147DC36D64F39243C365D47CC36DFE
:1015300064F35143C365547DC36D64F3DB63C365DA
:101540004FF0FF330366436630BD416170472AB1F7
:10155000D0F840310B43C0F8403104E0D0F84031BE
:101560008B43C0F84031704702460020D2F840312A
:101570000B401BB153690B4003B101207047072991
:1015800075D2DFE801F00415273B4D607500826AD3
:1015900022F040028262826A22F000428262826A03
:1015A00022F020028262826A22F48042826276E025
:1015B000826A22F0400240328262826A22F0004255
:1015C0008262826A22F020028262826A22F480426F
:1015D000826264E0826A22F0400240328262826A61
:1015E00022F0004202F100428262826A22F020026E
:1015F0008262826A22F48042826250E0826A22F031
:1016000040028262826A22F000428262826A22F092
:10161000200220328262826A22F4804282623EE0AC
:10162000826A22F040028262826A22F00042826272
:10163000826A22F020028262826A22F4804202F5EB
:10164000804282622BE0826A22F040024032826253
:10165000826A22F000428262826A22F02002826262
:10166000826A22F4804202F58042826217E015E02D
:10167000826A22F0400240328262826A22F0004294
:1016800002F100428262826A22F020028262826A51
:1016900022F4804202F58042826200E0704700BF7F
:1016A00000BFFBE7026961F31A6202617047826A58
:1016B00061F3DB6282627047026861F3514202604B
:1016C0007047026961F31E7202617047826A61F3BA
:1016D0009E728262704700002DE9F0430246506F0F
:1016E00000F00F00DFF80C9119F8008002F180047F
:1016F00001F10A05906AC0F3016010B90020BDE84D
:10170000F083506FC0F300400871087910B10128D0
:101710000CD106E0106F40F2FF7909EA90400860B2
:1017200006E0106F20F06040086001E00020E6E76E
:1017300000BF506FC0F300504871506FC0F340407D
:10174000C871506FC0F380400872506FC0F3C06022
:101750004872506FC0F3026081F84B00506FC0F3C5
:10176000007081F84A00506F00F00F00887100236C
:1017700016E02078E8542088C0F30729581C05F8A3
:1017800000902068C0F30749981C05F80090206875
:10179000000E03F1030905F80900241D181DC3B24A
:1017A0004345E6DB506FC2F82401D2F828914FEA96
:1017B00019404FEAE07900EB99794FEAA909A9F1BC
:1017C00004091FFA89F602F1800050F82600C86467
:1017D00002F1800006F1020950F82900A1F850003A
:1017E00002F12B0797F800C04CF010003870012070
:1017F00085E7000006520008C26A61F30712C26260
:101800007047826A61F3C71282627047826A61F32D
:10181000555282627047000000B50346012000F077
:101820002BF80548006863F307100349086000209F
:1018300000F022F800BD00000838024003490968A2
:1018400060F38C21014A11607047000008380240A3
:101850000349096860F34F31014A11607047000085
:10186000083802400349096860F30E31014A1160EB
:1018700070470000A4380240012807D107490968D1
:1018800021F030013031054A116005E00349096853
:1018900021F03001014A116070470000A438024075
:1018A00030B9044A126861F31962024B1A6000BF32
:1018B00000BF70476838024005282BD2DFE800F0EF
:1018C000030A11182100154A126861F30002134B34
:1018D0001A6020E0114A126861F310420F4B1A603F
:1018E00019E00E4A126861F318620C4B1A6012E09C
:1018F0000A4A7032126861F30002084B70331A60B2
:1019000009E0064A7432126861F30002034B743333
:101910001A6000E000BF00BF7047000000380240BE
:101920002DE9FF5F04464FF0000AD34600200390E4
:101930000290019000250026814600F05BF900909E
:10194000009820B1012816D002284DD11FE0384858
:101950000068C0F3803010B13648206001E036489E
:1019600020603348001D0068C0F30249206820FA57
:1019700009F020603BE0304820602D48001D0068E1
:10198000C0F3C249206820FA09F020602FE02848FF
:101990009C380068C0F38050029025489C3800684D
:1019A000C0F3881A22489C38006800F00F0B2048CA
:1019B0009C380068C0F302402049085C03900298FC
:1019C00010B91D48019001E01B48019003980BFBE2
:1019D00000FC0198A0FB0A700146624600233846CD
:1019E000FEF76CFC206002E01348206000BF00BFDF
:1019F0000F4898380068C0F303151148465D206809
:101A0000F04060600A4898380068C0F382250D48AD
:101A1000465D6068F040E060054898380068C0F3B3
:101A200042350948465D6068F040A060BDE8FF9F10
:101A3000A0380240006CDC0200127A00005200085C
:101A4000E0510008F0510008F851000810B50146B7
:101A50000020094B03EB1142D2F8002801F01F04CB
:101A60000123A3401A4001F01F040123A3409A421E
:101A700000D000E0012010BD0030024010B5012967
:101A80000FD1104B03EB1042D2F8002800F01F04D6
:101A90000123A3401A430B4C04EB1043C3F8002866
:101AA0000EE0084B03EB1042D2F8002800F01F04B0
:101AB0000123A3409A43034C04EB1043C3F80028CE
:101AC00010BD00000030024010B501290FD1104BAD
:101AD00003EB1042D2F8002800F01F040123A340BA
:101AE0001A430B4C04EB1043C3F800280EE0084BDC
:101AF00003EB1042D2F8002800F01F040123A3409A
:101B00009A43034C04EB1043C3F8002810BD0000B7
:101B10000030024030B50B4C246860F39654094DF8
:101B20002C602C46246861F38E142C602C462468AB
:101B300062F303042C602C46246863F312442C6087
:101B400030BD00000438024000B50120FFF794FECC
:101B50001C48006820F00100401C1A49086000BFC2
:101B600018480068C0F340000028F9D01548083034
:101B7000006820F0030013490831086000BF1148D5
:101B800008300068C0F381000028F8D10D480068D3
:101B90000D4908400B4908604FF080400949083161
:101BA00008600A48091F08604FF471200549A031F8
:101BB00008604FF41F0003490C3108600020FFF754
:101BC0005BFE00BD00380240FFFFF2FE0230030062
:101BD00000B503460120FFF74FFE0548006863F398
:101BE0000100034908600020FFF746FE00BD000029
:101BF0000838024002480068C0F3810070470000C6
:101C00000838024010B5012280210248FFF7FEF992
:101C1000002010BD0021014010B502469FED2D0AA5
:101C2000F0EE400A9FED2C0AB0EE401A02B910BD4A
:101C300002F1E401002038E092F86F31D3B901F1EC
:101C4000580333F8103001EE903AF8EE611A9FED28
:101C5000212A21EE820ADFED211A70EE611A9FED32
:101C60001E2A61EE821A01F1640303EB8003C3EDC7
:101C7000001A19E001F1580333F810409B1D33F8A6
:101C80001030E31A01EE903AF8EEE11A9FED112AB6
:101C900021EE820ADFED101A60EE211A01F16403D1
:101CA00003EB8003C3ED001A401C0328C4D3B1F832
:101CB000703000EE103AB8EE400ADFED091A20EE5F
:101CC000210ADFED081A80EE212A81ED1D2A00BFCE
:101CD000ADE700006740533A9B6C32403333D33F4B
:101CE0003333534000F07F4570B5044600F09CFF4D
:101CF000064604B970BD01F005FE354645B1686879
:101D000030B16868006818B1D5E9000211688847E9
:101D100000BF012084F86D01002084F86E0184F872
:101D20006F0105E02046FFF7F5FA204600F084F841
:101D300094F86F010028F5D0354645B1686830B198
:101D40006868406818B1D5E900025168884700BF4B
:101D500000BFCFE700B97047012280F86D21002253
:101D600080F86E2180F86F21002105E0002300F546
:101D7000A17222F81130491C0329F7D300BFEAE70A
:101D800000B9704790F86F211AB10022274B1A70E2
:101D9000F7E790F86D211AB9244A127802B9F0E7F2
:101DA000224A127872B90122204B1A700022204B6D
:101DB0001A60204B1A605A609A6080F86D210122E7
:101DC00080F86E2100210BE01A4A52F8213000F50C
:101DD0009E7232F811201A44164B43F82120491CF8
:101DE0000329F1D3124A1268521C114B1A601A4689
:101DF0001268B2F5006F16D3002109E00D4A52F8BF
:101E00002120C2F3CF2300F5A17222F81130491C22
:101E10000329F3D3002280F86E21012280F86F217C
:101E20000022024B1A7000BFABE700001000002038
:101E30000C000020A001002010B504462046FFF74A
:101E4000EBFE2046FFF79CFF10BD00BF011EA0F176
:101E50000100FBD17047026861F300020260704725
:101E600000210160416001814181017341738173EF
:101E7000C17301744174704702684BF6EF731A40E6
:101E8000026002680B891A4302604B7C026863F3AC
:101E90000D320260CB7B026863F38B2202608B7B86
:101EA000026863F3092202604B7B026863F3C71286
:101EB00002600B7B026863F3861202600B7C02688F
:101EC00063F3451202604A89436842600A6882608F
:101ED0004A68C260704700000021026822F00102D7
:101EE00002600022026042608260C2600146CAB2A3
:101EF000083A1423B2FBF3F293000F229A40034BEB
:101F00005B681A43014B5A60704700000060024052
:101F1000D0F8002161F30002C0F800217047026888
:101F200061F306020260704710B504464FF47A71FF
:101F300004FB01F000F002F810BD000010B50346EC
:101F400003B910BD1248006800F0807000B9F8E7CE
:101F500000F022F801460F48006D00FB03F40A1957
:101F60008A4206D300E000BF00F016F89042FAD390
:101F70000BE000E000BF00F00FF88842FAD200E06A
:101F800000BF00F009F89042FAD300BFD9E7000083
:101F9000FCED00E048010020014840687047000067
:101FA000001000E000B5FFF7F7FF00EE100AB8EEF2
:101FB000400A0548D0ED150A20EE200ABCEEC00A02
:101FC00010EE100A00BD0000480100201348006810
:101FD00000F0807000B170471048006840F08070D9
:101FE0000E49086000200E4948600846006840F02D
:101FF000010008600B4800680B49B0FBF1F00B4989
:102000000865084690ED140AB8EE400AF7EE000A9B
:1020100080EE801A80ED151A00BFDCE7FCED00E0D1
:10202000001000E00400002040420F0048010020A2
:1020300070B506460C4615460948006828B10848A0
:102040000068006808B104B10DB9002070BD0448F3
:1020500000682A462146036830469847F6E70000A4
:102060003C01002001460020704700002DE9F041AE
:1020700004460D46164627460749096819B1064920
:102080000968096800E00021084633462A463946B7
:1020900000F06FFFBDE8F081440100202DE9F04120
:1020A00004460D46164627460749096819B10649F0
:1020B0000968496800E00021084633462A46394647
:1020C00000F075FFBDE8F081440100202DE9F047E4
:1020D00080460E46154600241348006828B1124871
:1020E0000068406808B106B115B90020BDE8F08766
:1020F00015E008EB040909F00F00C0F1100A2F1BCE
:10210000574500D957463119074800683A46436891
:102110004846984708B90020E8E73C4400BFAC4275
:10212000E7D30120E2E700003C010020F0EE400A86
:10213000B0EEE00A70472DE9F04106460D4615B9AC
:102140000020BDE8F0814FF400613046FFF7CBF886
:10215000044670194FF40061FFF7CAF8074600F013
:1021600011F90AE0204600F095F8032803D000F0AA
:102170004BF80020E5E704F50064BC42F2D300F020
:1021800043F80120DDE700002DE9F04104460F4649
:10219000154626460EB107B115B90020BDE8F081FD
:1021A000B068A84201D20020F8E70848006818B1DA
:1021B00006480068806808B90020EFE703493068E6
:1021C00009682A468B6839469847E7E744010020AA
:1021D00070B504460D4603260A48006820F0010049
:1021E000401C0849086025804FF4801000F030F84A
:1021F00006460448006820F00100024908603046A5
:1022000070BD0000103C02400348006820F08000D0
:102210008030014908607047103C024003200B49A0
:10222000096801F0010109B100200EE007490968C1
:10223000C1F3800109B1012007E004490968C1F335
:10224000001109B1022000E0032070470C3C02405D
:1022500000B502460323FFF7E1FF034603E0FFF763
:10226000DDFF0346521E0BB9002AF8D102B9042340
:10227000184600BD70B505460C46164604B10EB9A9
:10228000002070BD324629462046FEF78EF8012018
:10229000F7E7000030B5044603250D48006820F03C
:1022A0000200801C0A490860081D0460001F0068C5
:1022B00020F04000403008608806FFF7C9FF05465F
:1022C0000348006820F0020001490860284630BD3C
:1022D000103C024070B5044625460649096819B10C
:1022E00004490968C96800E000210846294600F051
:1022F00029FE70BD440100202DE9F04104460D4641
:10230000164627460749096819B1064909688968C8
:1023100000E00021084633462A46394600F029FEEF
:10232000BDE8F081440100202DE9F04104460E464D
:102330001746A046B8F1000F02D10020BDE8F08199
:102340000F49096819B10E490968C96800E0002100
:102350000846414600F0F6FD05460DB90020EDE7C0
:102360000749096819B106490968096900E00021AF
:1023700008463B463246414600F019FEDEE70000C3
:102380004401002002480349086003480860704780
:1023900023016745043C0240AB89EFCDF8B5054603
:1023A0000E461746002406B10FB90020F8BD05F00F
:1023B000010008B10020F9E7FFF7E4FF0EE0301953
:1023C000008800902819BDF80010FFF701FF0328CE
:1023D00003D0FFF719FF0020E8E7A41CA01CB842B7
:1023E000EDD90FE0305D40F47F4000902819BDF832
:1023F0000010FFF7EDFE032803D0FFF705FF0020D4
:10240000D4E7641CBC42EDD3FFF7FEFE0120CDE70C
:1024100010B59FED0E1ADFED0E0AB0EE000A00F0C7
:102420003DFB4FF42F70FFF77FFD9FED081ADFEDA6
:10243000080A9FED070A00F031FB00F015F8054887
:1024400090ED480A80ED070A10BD0000E4CB9640ED
:1024500000000000AC01002010B500F005F800F00D
:10246000A9F800F0DDFA10BD00B52DED088B81B0A4
:102470006846FEF707F9BDF8000000EE100AB8EE56
:10248000400ADFED460A20EE200AF0EE408A44487A
:10249000007C30B14248007C00EE100AB8EE400AE1
:1024A00001E0B7EE000AB0EE40AA3D4890F91100F5
:1024B000401C10B9BFEE000A01E0B7EE000AF0EED2
:1024C00040AA374890ED050AB5EEC00AF1EE10FAC1
:1024D00002DD90ED050A01E0B7EE000AB0EE40BA69
:1024E0002F4890ED070A68EE8A0AB0EE409A10EE87
:1024F000AA9ADFED2C0AB0EE490AFEF7EFFAF0EEE9
:10250000409AF5EEC09AF1EE10FA02DBB0EE690ADD
:1025100003E09FED240A39EE800A214880ED480A45
:10252000214890ED000A38EEC08A00BFB0EEC80A1C
:10253000DFED1E0AB4EEE00AF1EE10FA0DDDB5EEA5
:10254000C08AF1EE10FA02DD4FF0FF3000E001200A
:10255000174909680844164908609FED120AC8EE39
:10256000800A134890ED000AB8EEC00A70EE800AA7
:102570000B4890ED080A9FED0B1A10EE810A80EDD2
:102580004C0A90ED4C0AC0EE0B0AC0ED490A064811
:10259000C0ED008A01B0BDEC088B00BDA410C938A5
:1025A000AC010020DB0FC940240000207CD9A040F2
:1025B0002000002000B52DED068B83B03B48FEF7D0
:1025C000A9FE3A48FFF738FC384A92ED520AD2ED9C
:1025D000530A92ED541A02F58870011D80ED000A2D
:1025E00070EEC11A9FED322A61EE821AC1ED001A17
:1025F00000BF9FED300A8DED020A9FED2E0A8DED92
:10260000010A104690ED448AD0ED458A90ED489A33
:10261000B0EE490AFEF7BAF9F0EE409AB0EE490A78
:10262000FEF7B4FAB0EE40AA28EE290A08EE8A0AAC
:102630008DED020AB1EE480A20EE0A0A08EEA90A58
:102640008DED010A00BF9DED020A1B4800F0F4FB6E
:10265000164880ED3E0A9DED010A00F51D7000F060
:10266000EBFB124880ED3F0AD0ED3E0A60EEA00A77
:1026700090ED3F1AD0ED3F1A41EE210AB0EE600A0C
:10268000FEF74CFBDFED0D0A20EE200AF0EE40AA2B
:10269000B0EE6A0A0848283000F0CEFB034880ED0F
:1026A000460A03B0BDEC068B00BD0000AC01002063
:1026B0003ACD133F000000000C04002000007A44D3
:1026C00010B5B4B004464FF43D715748FDF7E4FE31
:1026D0000020554981F8CC0081F86C010846FFF7CD
:1026E00039FB2CB1CC2221464F48FDF7A3FE07E071
:1026F00001A800F0E5FDCC2201A94B48FDF79AFEA8
:102700004948007C10B90120474908744648407C7C
:10271000012807D0444890F91100401C10B1012055
:1027200041494874404890ED050AB5EEC00AF1EE03
:1027300010FA03D8B7EE000A80ED050A02213B48E3
:1027400000F0B0F802213948283000F0ABF8012140
:102750003648503000F0A6F800213448783000F0B8
:10276000A1F8DFED330A9FED330A3048A03000F0C6
:1027700027FBDFED2F0A9FED2F0A2C48B43000F025
:102780001FFBDFED2B0A9FED2B0A2848C83000F015
:1027900017FBDFED270A9FED270A2448DC3000F005
:1027A0000FFBDFED230A9FED230A2048F03000F0F5
:1027B00007FBDFED1F0A9FED1F0A1F4800F000FB1B
:1027C000DFED1B0A9FED1B0A1B48143000F0F8FADE
:1027D000DFED170A9FED170A1748283000F0F0FACE
:1027E000DFED130A9FED130A13483C3000F0E8FABE
:1027F000DFED0F0A9FED0F0A0F48503000F0E0FAAE
:10280000DFED0B0A9FED0B0A0B48643000F0D8FA9D
:102810000548FFF769FA044890F8CA0008B1FFF7C5
:10282000F7FD34B010BD0000AC0100201C030020F7
:1028300000409C460000FA442004002010B51348D4
:1028400090F8CC000E281DD2DFE800F00708090A36
:102850000B0C0D0E0F1011191A1B14E013E012E0EF
:1028600011E010E00FE00EE00DE00CE00BE0074897
:10287000D0ED370AB0EE600A00F04EF803E002E057
:1028800001E000E000BF00BF10BD0000AC0100206F
:10289000092800DB7047024981F86C0100BFF9E7A5
:1028A000AC01002070B504460D4604B970BD294640
:1028B000204600F003F800BFF8E7000070B50446BA
:1028C0000D460CB9012070BD25709FED120A84EDF4
:1028D000010A9FED100A84ED020A9FED0E0A84EDB5
:1028E000030A9FED0C0A84ED050A9FED0A0A84EDA8
:1028F000060A9FED080A84ED070A9FED060A84ED9B
:10290000080AB6EE000A84ED090AFFF74BFB2061C6
:102910000020D8E70000000010B52DED068BB0EECA
:10292000408A9FED360AF0EE409A9FED350AB0EEF0
:1029300040AA3448D0ED000AF0EE481A9FED300A64
:10294000B5EEC00AF1EE10FA02D8B0EE602A15E03A
:1029500031EEE01AB4EEC01AF1EE10FA02DD30EEFC
:10296000802A0BE0B1EE402AB4EEC21AF1EE10FA62
:1029700002D230EEC02A01E0B0EE612A214880ED9B
:10298000002A9FED210A214880ED000A2048007CA2
:1029900000EE100AB8EE400A1A48D0ED000A60EEC8
:1029A000200A1C4890ED000A9FED141AF0EE408AB0
:1029B00040EE818ADFED180AB0EE680AFEF78EF865
:1029C000B0EE409AB5EEC09AF1EE10FA02DBB0EE2E
:1029D000490A03E09FED100A39EE000A0D4880ED28
:1029E000000A90ED001ADFED0D0A084890ED000A8C
:1029F00000F054F8BDEC068B10BD00006F12033AD6
:102A00000BD7233C18000020CDCC4C3E14000020F6
:102A1000AC0100201C000020DB0FC94000000000BA
:102A200010B5194890F86C0109282AD2DFE800F0A7
:102A3000050D1115191D212528000020124981F8C6
:102A4000CC000120FFF724FF1CE00220FFF720FF4D
:102A500018E00320FFF71CFF14E00420FFF718FF25
:102A600010E00520FFF714FF0CE00620FFF710FF31
:102A700008E00720FFF70CFF04E0FFF7DFFE01E0AE
:102A800000E000BF00BF10BDAC01002010B502483F
:102A900000F0DCFC10BD0000AC01002000B52DED05
:102AA000048B85B0B0EE408AF0EE608AF0EE419A79
:102AB000DFED570A48EEE80AB0EE600AFEF72EF99D
:102AC000B0EE409AB1EE490AB4EEC08AF1EE10FAC7
:102AD00002D2B1EE490A09E0B4EEC98AF1EE10FA69
:102AE00002DDB0EE490A01E0B0EE480AB0EE408ADD
:102AF00003A904A8B0EE691AF0EE480AB0EE680A1D
:102B000000F038F99DED040ADDED030A8DED020AAF
:102B10009FED401A20EE811ADFED3F1A00EE211AD8
:102B20008DED011A9FED3B1A20EE811ADFED3A1A66
:102B300000EE611A8DED001A00BF384A111F081F00
:102B40009DED001ADDED010A9DED020A01F076F817
:102B5000334890ED570AB5EEC00AF1EE10FA02D2F2
:102B60009FED300A0FE02E4890ED570AF7EE000A6D
:102B7000B4EEE00AF1EE10FA02DDB7EE000A02E070
:102B8000274890ED570A264880ED570A90ED580ADD
:102B9000B5EEC00AF1EE10FA02D29FED220A0FE064
:102BA0001F4890ED580AF7EE000AB4EEE00AF1EE85
:102BB00010FA02DDB7EE000A02E0194890ED580A5B
:102BC000174880ED580A90ED590AB5EEC00AF1EEAB
:102BD00010FA02D29FED130A0FE0114890ED590A46
:102BE000F7EE000AB4EEE00AF1EE10FA02DDB7EEFD
:102BF000000A02E00A4890ED590A094880ED590A96
:102C000000F5AE7000F092FE05B0BDEC048B00BD87
:102C100000001044D7B35D3F3ACD133F10030020AE
:102C2000AC0100200000000001480068704700006F
:102C30003001002070B5044624B9002000F022F8CD
:102C4000002070BD207820B1012807D0022814D1BF
:102C500010E0002000F016F80020F2E7211D0848DF
:102C6000FDF7B2FD0648FDF74DFD054600F00AF8F8
:102C70000020E6E76FF00100E3E74FF0FF30E0E708
:102C8000A0040020014908607047000030010020C6
:102C900081627047816170474FF6FF7101600021CA
:102CA0008171017141710121C171704770B50A468E
:102CB00000211488A3B233E003F001046CB304686C
:102CC0004E000325B540AC43046094794D00AC4000
:102CD00005682C430460446801258D40AC43446082
:102CE000446815798D402C43446084684E00032568
:102CF000B540AC438460D4794D00AC4085682C432A
:102D00008460C4684E000325B540AC43C460547968
:102D10004D00AC40C5682C43C4605B104C1CA1B294
:102D2000002BC9DC70BD0246002013690B408B42AA
:102D300000D000E00120704770B513460024002247
:102D40004D07ED0E03FA05F4CD104DB1426A4D0763
:102D5000EE0E0F25B540AA4342EA0405456208E09D
:102D6000026A4D07EE0E0F25B540AA4342EA04055C
:102D7000056270BD70B52DED068BB0EE408AF0EEA9
:102D8000608AB0EE419A04460D46B0EE490AFDF75E
:102D9000FDFDF0EE409AB0EE490AFDF7F7FEB0EE09
:102DA00040AA28EE290A08EECA0A84ED000A28EE95
:102DB0000A0A08EEA90A85ED000ABDEC068B70BD73
:102DC000014691B1B5EEC00AF1EE10FA0DD9F5EE5B
:102DD000C00AF1EE10FA08D9F6EE001A60EEA11A58
:102DE000F4EEC01AF1EE10FA01D800207047F7EEA9
:102DF000001A81EEA01A81ED020AC1ED030ADFED8F
:102E00000C1A60EE211AB7EE002AC2EE212AC1ED9B
:102E1000042AD1ED041A71EE811A81EE212A81ED86
:102E2000002ADFED041AC1ED011A0120DEE70000DF
:102E3000DB0FC94000000000F0EE400A90B190EDB9
:102E4000001AF7EE001A31EEC11AD0ED011A21EE88
:102E5000211AD0ED001A01EEA01AB0EE410A80ED61
:102E6000010A70479FED010AFBE700000000000027
:102E7000C4B04FF48051C80300F03AFD01F08CFE5D
:102E800001F0ECFD01F076FD01F0EEFE01F028FD11
:102E900001F0A2FB01F004FB01F0C6FC00231A467E
:102EA0002349244801F018FD01212248FEF7D3FFF1
:102EB00002F05AF801F0AAFB01F016FE01F0EEFE56
:102EC00001F08AFA01F0DCFC00231A461A4919487D
:102ED000283001F001FD012116482830FEF7BBFF24
:102EE00002F00EF802F026F8FFF770F814221349EA
:102EF0003FA8FDF79FFA3FA9022000F047F90CA870
:102F000000F0F2F80E48FEF727FA2C220B49143194
:102F100001A8FDF78FFA01A8FFF78CFE08B100BFEA
:102F2000FEE70CA8FFF7CCFB01E0FFF7AFFDFCE7E5
:102F30004C2001400860024004100140A0510008EC
:102F4000AC0100202DE9F04105460C4605B114B94D
:102F50000020BDE8F081A1682068A8470746D4E9B1
:102F60000101A847064607B90EB10120F1E700208C
:102F7000EFE72DE9F04105460C4617461E4615B110
:102F80000CB107B116B90020BDE8F081A068B042CD
:102F900001D20020F8E7324639462068A84708B138
:102FA0000120F1E7324639466068A847ECE72DE991
:102FB000F04705460C4617461E4615B10CB107B141
:102FC00016B90020BDE8F087A068B04201D2002009
:102FD000F8E7324639462068A847814632463946E6
:102FE0006068A8478046B9F1000F02D1B8F1000F20
:102FF00001D00120E6E70020E4E7000070B50446B8
:103000000D4604B105B970BDD8212046FDF744FA3C
:10301000094820600120A080CC20E080CC222946F5
:1030200004F10C00FDF706FACC2104F10C0000F0CD
:1030300031F8A06000BFE6E74746434D70B504464F
:103040000D4604B10DB9002070BD114920688842B9
:1030500001D00020F8E7A088012801D00020F3E784
:10306000E088CC2801D00020EEE7E18804F10C00D4
:1030700000F010F80646A068B04201D00020E3E757
:10308000CC2204F10C012846FDF7D4F90120DBE73E
:103090004746434D10B502460B460548002104E063
:1030A000545C6040034C6043491C9942F8D310BD06
:1030B000C59D1C819301000104480021016041600D
:1030C0008160C1600020024908607047CC04002084
:1030D000400100200348006808B10120704700202B
:1030E000FCE700004001002070B50546284600F0CE
:1030F00007F8044614B9284600F0A8F8204670BD29
:1031000070B5B6B0064616B9002036B070BD0024C2
:1031100013E00E4850F8245075B1286860B1D822E9
:1031200069462B68E868984730B131466846FFF732
:1031300085FF08B10120E8E7641C05480068844267
:10314000E7D3304600F0BCF80020DEE7CC040020D6
:1031500040010020014609B1086808B90020704705
:1031600008480068042801D30020F8E705480268F1
:103170000068401C034B1860034840F822100120EF
:10318000EDE7000040010020CC04002070B50546AA
:103190000C4600260CB9002070BDFFF78DFF2748B4
:1031A000046025B1012D12D0022D42D128E0234820
:1031B0000068006818B121480068406808B900201C
:1031C000EAE71F48FFF7C6FF00B1012632E01B48BF
:1031D0000068006838B119480068406818B117489D
:1031E0000068806808B90020D6E71548FFF7B2FFED
:1031F00000B101261348FFF7ADFF00B1012619E029
:103200000E480068806838B10C480068C06818B182
:103210000A480068006908B90020BDE70A48FFF7BE
:1032200099FF00B101260748FFF794FF00B101267E
:1032300000E000BF00BF3046AEE7000044010020C0
:103240005C5200087C5200086C5200082DE9F041E5
:10325000B6B0064601274FF000081EB9002036B070
:10326000BDE8F08131466846FFF7C8FEFFF732FF40
:1032700008B90020F3E7002411E00F4850F824506B
:103280000DB1686800B909E04FF00108D82269461D
:103290006B68E868984700B9002700BF641C0748BE
:1032A00000688442E9D3B8F1000F02D00FB10120C9
:1032B000D5E70020D3E70000CC0400204001002027
:1032C00010B5044604B910BDCC212046FDF7E4F842
:1032D00005202074012060749FED4E0A84ED050ADC
:1032E0000003A0619FED4C0A84ED070A9FED4A0A96
:1032F00084ED080AB3EE080A84ED090AB2EE040A66
:1033000084ED0A0AB3EE080A84ED0B0AB7EE000A50
:1033100084ED0C0AB7EE000A84ED0D0AB2EE080A3D
:1033200084ED0E0AB2EE080A84ED0F0A9FED3B0A07
:1033300084ED160A9FED3A0A84ED170A9FED390ACB
:1033400084ED180A9FED340A84ED1A0A9FED320AC3
:1033500084ED1B0A9FED300A84ED1C0A9FED2E0AB6
:1033600084ED1D0A94ED0E0A84ED1E0A9FED2A0AD3
:1033700084ED1F0A9FED2C0A84ED200A9FED2B0A95
:1033800084ED210A9FED240A84ED220A9FED220A92
:1033900084ED230A94ED0F0A84ED240A9FED1E0AA2
:1033A00084ED250A9FED220A84ED260A9FED210A6D
:1033B00084ED270A9FED180A84ED280A9FED160A6E
:1033C00084ED290A94ED0D0A84ED2A0A9FED120A74
:1033D00084ED2B0AB0EE000A84ED2C0A9FED0E0A54
:1033E00084ED2D0A9FED0C0A84ED2E0A9FED0A0A4A
:1033F00084ED2F0A94ED0D0A84ED300A9FED060A44
:1034000084ED310A0120A4F8C800002084F8CA0025
:1034100000BF58E7000048420000000063149D43CD
:103420000000C84200007A446666E63FAE47613E4F
:1034300017B7513AA69B443B014629B14FF43C7063
:10344000405808B1012070470020FCE72DE9F04109
:103450002DED0A8B06461EB9BDEC0A8BBDE8F08146
:1034600006F1240506F1E404D349D6F8EC0208403D
:10347000C6F8EC02FFF7D8FB07464FB1786838B1C1
:103480007868806820B1D7E900029168884700E039
:10349000002020B14FF40001304600F093F995ED83
:1034A000010AB5EEC00AF1EE10FA13DD94ED000A40
:1034B000B5EEC00AF1EE10FA0CDD94ED000AD5ED80
:1034C000010AB4EEE00AF1EE10FA03D2012130460F
:1034D00000F078F995ED020AB5EEC00AF1EE10FAA7
:1034E0000CDD94ED000AD5ED020AB4EEE00AF1EE2F
:1034F00010FA03DD0221304600F064F995ED080A68
:10350000B5EEC00AF1EE10FA60DDD4ED190AB0EEA6
:10351000600AFEF70BFEB0EE40CAD4ED1A0AB0EE18
:10352000600AFEF703FEF0EE40CAD4ED1B0AB0EECF
:10353000600AFEF7FBFDF4EEC0CAF1EE10FA06DDFC
:10354000D4ED1A0AB0EE600AFEF7F0FD05E0D4ED06
:103550001B0AB0EE600AFEF7E9FDB4EEC0CAF1EE58
:1035600010FA06DDD4ED190AB0EE600AFEF7DEFDB2
:103570001FE0D4ED1A0AB0EE600AFEF7D7FDB0EEF8
:1035800040CAD4ED1B0AB0EE600AFEF7CFFDB4EEE0
:10359000C0CAF1EE10FA06DDD4ED1A0AB0EE600AE8
:1035A000FEF7C4FD05E0D4ED1B0AB0EE600AFEF79D
:1035B000BDFDF0EE40AA95ED080AB4EEEA0AF1EE80
:1035C00010FA03D20421304600F0FCF895ED070A0A
:1035D000B5EEC00AF1EE10FA0CDD94ED150AD5ED4A
:1035E000070AB4EEE00AF1EE10FA03DD10213046CE
:1035F00000F0E8F896ED160AB5EEC00AF1EE10FA02
:1036000011DDD4ED140AB0EE600AFEF78FFDD6EDA1
:10361000160AB4EEE00AF1EE10FA04DD4FF4807100
:10362000304600F0CFF895ED0A0AB5EEC00AF1EE8B
:1036300010FA7CDD95ED0B0AB5EEC00AF1EE10FA3A
:1036400006DC95ED0C0AB5EEC00AF1EE10FA6EDD5F
:10365000D4ED190AB0EE600AFEF768FDB0EE409AAC
:10366000D4ED1A0AB0EE600AFEF760FDF0EE408A73
:10367000D4ED1B0AB0EE600AFEF758FDB0EE408AAA
:10368000F4EEC88AF1EE10FA02DDB0EE680A01E04D
:10369000B0EE480AB4EEC90AF1EE10FA02D2B0EE6A
:1036A000490A09E0F4EEC88AF1EE10FA02DDB0EE44
:1036B000680A01E0B0EE480AB0EE40BAF4EEC88AFB
:1036C000F1EE10FA02D2B0EE680A01E0B0EE480A5C
:1036D000B4EEC90AF1EE10FA02DDB0EE490A09E0D3
:1036E000F4EEC88AF1EE10FA02D2B0EE680A01E0F8
:1036F000B0EE480AF0EE40BA39EE280A30EE080A79
:10370000DFED2E0A60EE209A95ED0A0AB4EEE90A82
:10371000F1EE10FA33D29FED2A0AF4EEC09AF1EEE0
:1037200010FA2CDD3BEE6B0A80EE29AA00E026E0C1
:1037300095ED0B0AB5EEC00AF1EE10FA0CDD95ED31
:103740000B0AB4EECA0AF1EE10FA05D24FF480412A
:10375000304600F037F812E095ED0C0AB5EEC00ADD
:10376000F1EE10FA0BDD95ED0C0AB4EECA0AF1EE9B
:1037700010FA04D24FF40031304600F023F83046FE
:10378000FFF75AFEA8B1FFF74FFA804600214FF429
:10379000B470815500F0B6F8474647B1786830B14B
:1037A0007868006818B1D7E900021168884700BF3F
:1037B00000BF00BF50E60000E8BEFDFFABAAAA3E76
:1037C000BD37863500B101B97047D0F8EC220A4305
:1037D000C0F8EC224FF43C7212580A434FF43C7389
:1037E0001A5000BFF0E710B504462046FCF796FFDC
:1037F00010BD10B504462046FCF7B1FF10BD000017
:103800002DE9F0470B4614464FF0000C00BF2C4A40
:103810001268C2F302211D4626460A46C2F1070974
:10382000B9F1040F02D94FF0040901E0C2F1070910
:10383000C84602F10409B9F1070F02D24FF000099E
:1038400001E0A2F103094F464FF0010909FA08F916
:10385000A9F1010909EA050909FA07F94FF0010A76
:103860000AFA07FAAAF1010A0AEA060A49EA0A0963
:10387000CC4601466246002904DB15072E0E114D89
:103880006E5407E015072F0E0D4D0C3501F00F0695
:10389000361FAF5500BF014600290DDB00BF00BF3A
:1038A00001F01F050122AA404D09AD0005F1E025F8
:1038B000C5F8002100BF00BF00BFBDE8F0870000D1
:1038C0000CED00E000E400E000BF00F00702064B52
:1038D00019684FF6FF031940044B0B4343EA0221DA
:1038E000014B196000BF70470CED00E00000FA05C5
:1038F000024A0A400243024B1A60704780FFFF1FD2
:1039000008ED00E010B500221146074800F0A3FAC8
:1039100000220221044800F09EFA002204210248FD
:1039200000F099FA002010BD0000014010B50446D7
:10393000D4ED000A1A48008800EE100AB8EE400ADA
:1039400020EE800ABCEEC00A10EE102A00211548B5
:1039500000F0C1FAD4ED010A1148008800EE100A07
:10396000B8EE400A20EE800ABCEEC00A10EE102A23
:1039700002210C4800F0AFFAD4ED020A0848008892
:1039800000EE100AB8EE400A20EE800ABCEEC00A33
:1039900010EE102A0421034800F09DFA002010BD0B
:1039A000080000200000014070B5002400BF0A207C
:1039B0001A490968032282409143184A1160174945
:1039C0000C31096803228240914301228240114355
:1039D000124A0C32116000BF00251AE06006040E86
:1039E0004FF480710D48FFF753F90120FEF72DFACF
:1039F00020210A48FFF797F908B144F001044FF479
:103A000080710648FFF746F90120FEF71EFA681C90
:103A1000C5B2082DE2DB204670BD00000004024064
:103A200070B5044600BF0A20254909680322824078
:103A30009143012282401143214A1160111D0968FE
:103A400021F02001121D116000BF00251FE004F0CD
:103A5000800020B120211A48FFF71CF903E0202143
:103A60001748FFF715F96006040E4FF480711448EB
:103A7000FFF70EF90120FEF7E8F94FF480711048C6
:103A8000FFF708F90120FEF7E0F9681CC5B2082D20
:103A9000DDDB00BF0A200A49096803228240914306
:103AA000074A116006490C3109680322824091439C
:103AB000012282401143024A0C32116000BF70BDE6
:103AC000000402400021017041708170C1700171D9
:103AD000417181710121C1717047026861F38612E1
:103AE00002607047C26922F40062C2610A7862B95A
:103AF000026822F400420260026822F480420260FE
:103B0000026822F48062026036E00A78012A0ED14F
:103B1000026822F400420260026822F480420260DD
:103B2000026822F4806202F58062026024E00A7872
:103B3000022A0ED1026822F4004202F5004202601D
:103B4000026822F480420260026822F4806202600D
:103B500012E00A78032A0FD1026822F4004202F52B
:103B600000420260026822F4804202F58042026054
:103B7000026822F480620260CB79026863F3492212
:103B800002604A78012A09D1CA79012A06D102685D
:103B900022F4807202F58072026003E0026822F46F
:103BA000807202604B78026863F3820202608A7856
:103BB000072A0DDC426822F400724260426822F457
:103BC000807242608B78026863F3C502026020E075
:103BD0008A780A2A0ED1426822F4007202F5007235
:103BE0004260426822F480724260026822F0380229
:103BF00002600EE0426822F400724260426822F4E1
:103C0000807202F5807242608A78036862F3C503AD
:103C10000360CB78026863F3C71202600B79026815
:103C200063F3CB2202604B79026863F341020260C6
:103C30008B79026863F3000202607047B4EEE00A19
:103C4000F1EE10FA04DDF0EE401AB0EE602A03E067
:103C5000F0EE601AB0EE402AB4EEE11AF1EE10FA7E
:103C600002DDF0EE411A06E0B4EEC21AF1EE10FAEF
:103C700001D2B0EE412A31EE823AF6EE003A63EE1E
:103C8000232A30EE623A80ED003A30EEE23A81EDDE
:103C9000003A31EE623A82ED003A70472DE9FE4F6C
:103CA00000250026A946AA46AB46002002900190B6
:103CB0000024FDF79FFF0090009820B1012819D043
:103CC000022850D123E033480068C0F3803018B197
:103CD00031483249086002E03148304908602D48D7
:103CE000001D0068C0F302442C480068E0402B49E6
:103CF00008603CE02A48294908602648001D006801
:103D0000C0F3C24408460068E04008602FE0214844
:103D10009C380068C0F3805A1E489C380068C0F385
:103D200088151C489C38006800F00F0619489C381C
:103D30000068C0F302401B4911F80090BAF1000F6F
:103D400002D1DFF85CB001E0DFF854B006FB09FCFB
:103D5000ABFB05700146624600233846FCF7AEFA1D
:103D60000E49086003E00E480C49086000BF00BF20
:103D7000084898380068C0F3031002900A49029876
:103D8000085C0190054800680199C8400349086033
:103D9000BDE8FE8FA0380240006CDC020400002069
:103DA00000127A002652000816520008042808D192
:103DB0004FF0E021096941F004014FF0E022116168
:103DC00007E04FF0E021096921F004014FF0E02203
:103DD00011617047C1628262436923F001035B1C79
:103DE000436170474B78426C63F3596242648B784D
:103DF000426C63F3175242640B78426C63F31862AF
:103E000042647047426C61F31342426470470B781E
:103E1000426C63F3070242644B79426C63F38A227B
:103E200042640B79426C63F3CB2242644B78426C60
:103E300063F34D324264CB78426C63F38E3242645A
:103E40008B79426C63F30C3242648B78426C63F37F
:103E500009224264704710B50B460A2B38D2DFE8BE
:103E600003F0050A0F14191E232D3228046A62F389
:103E7000000404622DE0046A62F38204046228E014
:103E8000046A62F30414046223E0046A62F3861491
:103E900004621EE0046A62F30824046219E0046A02
:103EA00062F38A24046214E0046A62F30C3404624C
:103EB0000FE0046A62F38E3404620AE0046A62F37B
:103EC0001044046205E0046A62F31454046200E0E2
:103ED00000BF00BF10BD10B50B460E2B23D2DFE88C
:103EE00003F0072209220B220D0F142216191C1FA2
:103EF000426319E0826317E0C26315E0026413E0D5
:103F0000846D62F30F0484650EE0C2650CE0C0F8B6
:103F1000802009E0C0F8842006E0C0F8882003E093
:103F2000C0F88C2000E000BF00BF10BD026861F344
:103F3000092202607047026861F30612026070474E
:103F4000026861F300020260704710B50B46092B4E
:103F500024D2DFE803F005230A230F2314191E00DF
:103F6000846962F3C304846119E0846962F3CB2439
:103F7000846114E0C46962F3C304C4610FE0C469DE
:103F800062F3CB24C4610AE0446D62F3C304446568
:103F900005E0446D62F3CB24446500E000BF00BF40
:103FA00010BDF0B50C46167806F007011678F31030
:103FB0002546092D7CD2DFE805F005EE34EE63EEF0
:103FC00094BED600066A26F0010606625778466857
:103FD00067F3082646609778466867F34926466087
:103FE000866926F003068661866961F30616866196
:103FF000866963F310468661D778066A67F34106DF
:1040000006621779066A67F3C30606625779066A7D
:1040100067F3000606629779066A67F3820606620E
:10402000BAE0066A26F0100606625778466867F31B
:104030008A2646609778466867F3CB26466086698D
:1040400026F440768661866961F30E36866186695C
:1040500063F318668661D778066A67F345160662C9
:104060001779066A67F3C71606625779066A67F317
:10407000041606629779066A67F3861606628BE075
:10408000066A26F4807606625778466867F30C362F
:1040900046609778466867F34D364660C66926F0F5
:1040A0000306C661C66961F30616C661C66900E00B
:1040B00071E063F31046C661D778066A67F3492654
:1040C00006621779066A67F3CB2606625779066A95
:1040D00067F3082606629779066A67F38A260662FE
:1040E0005AE0066A26F4805606625778466867F3F7
:1040F0008E364660C66926F44076C661C66961F3AD
:104100000E36C661C66963F31866C661D778066A5B
:1041100067F34D3606621779066A67F3CF36066293
:104120005779066A67F30C3606629779066A67F371
:104130008E36066230E05778466867F31046466070
:10414000466D61F306164665466D63F31046466597
:10415000D778066A67F3514606625779066A67F3AD
:104160001046066218E05778466867F39246466044
:10417000466D61F30E364665466D63F31866466517
:10418000D778066A67F3555606625779066A67F369
:104190001456066200E000BF00BFF0BD10B50B462C
:1041A000092B24D2DFE803F005230A230F23141977
:1041B0001E00846962F38204846119E0846962F3F9
:1041C0008A24846114E0C46962F38204C4610FE04C
:1041D000C46962F38A24C4610AE0446D62F3820414
:1041E000446505E0446D62F38A24446500E000BF45
:1041F00000BF10BD426C61F3CF3242647047026869
:1042000061F3C71202607047426861F3175242605F
:10421000704701F00702436862F30613436070477A
:10422000084A904208D0084A904205D0074A904276
:1042300002D0074A904203D1026B61F30F0202637E
:104240007047000000000140004001400044014070
:1042500000480140826861F3C7128260704742697A
:1042600061F3C71242617047C26861F34D32C260A8
:10427000704741B9426922F480724261426922F476
:104280000072426127E001290AD1426922F480725A
:1042900002F580724261426922F4007242611AE0C2
:1042A00002290AD1426922F480724261426922F4F1
:1042B000007202F5007242610DE003290BD14269E0
:1042C00022F4807202F580724261426922F4007227
:1042D00002F50072426170472DE9FF4704468846A7
:1042E000164699466846FDF71BFB2248844201D1D9
:1042F000029F00E0039F07EB87004000B0FBF8F54A
:104300000A20B5FBF0F100FB1150052803D20A206A
:10431000B5FBF0F503E00A20B5FBF0F0451CA06802
:1043200065F30F00A06056B9E06820F0805000F1FE
:104330008050E060E06820F48050E06014E0012EDE
:1043400008D1E06820F08050E060E06820F4805000
:10435000E06009E0E06820F08050E060E06820F470
:10436000805000F58050E060206969F30D302061D5
:10437000BDE8FF870010014041B9C26822F4007215
:10438000C260C26822F48062C2601AE001290AD1C8
:10439000C26822F40072C260C26822F4806202F530
:1043A0008062C2600DE002290BD1C26822F4007263
:1043B00002F50072C260C26822F4806202F5806277
:1043C000C2607047C26861F38202C2607047C2680F
:1043D00061F3C302C26070470EB501A8FEF75CFC32
:1043E00003208DF80A000220019001A92A48FEF757
:1043F0005DFC6846FCF782FD01208DF8000000207E
:104400008DF801008DF8020001208DF80300694647
:104410002248FCF75DFD00212048FCF75FFF0221E8
:104420001E48FCF742FE0723012209211B48FCF726
:1044300042FE002211461948FCF725FF07230222FD
:1044400010211648FCF737FE002201211348FCF723
:104450001AFF002211461148FCF7FBFE01210F480C
:10446000FCF7C4FD00BF40210C48FCF7C7FD002845
:10447000F9D00A48FCF749FD00BF0848FCF74BFD9E
:104480000028FAD10548FCF74FFD00BF0348FCF7B0
:1044900051FD0028FAD10EBD000402400020014069
:1044A0000EB501A8FEF7F8FB03208DF80A002020C6
:1044B000019001A94548FEF7F9FB03208DF80A0099
:1044C0008020019001A94148FEF7F0FB03208DF800
:1044D0000A000120019001A93D48FEF7E7FB0320F7
:1044E0008DF80A000420019001A93948FEF7DEFB8F
:1044F0006846FCF703FD01208DF8000000208DF8D0
:1045000001008DF8020001208DF803006946314852
:10451000FCF7DEFC00212F48FCF7E0FE04212D48CB
:10452000FCF7C3FD0223012205212A48FCF7C3FD45
:10453000002211462748FCF7A6FE02231A4607214F
:104540002448FCF7B8FD002201212248FCF79BFE1D
:104550000223032208211F48FCF7ADFD002202219F
:104560001C48FCF790FE022304220A211948FCF79C
:10457000A2FD002203211748FCF785FE012200213D
:104580001448FCF766FE012280211248FCF73EFD2C
:1045900001211048FCF72AFD00BF40210D48FCF71F
:1045A0002DFD0028F9D00B48FCF7AFFC00BF0948EF
:1045B000FCF7B1FC0028FAD10648FCF7B5FC00BFB7
:1045C0000448FCF7B7FC0028FAD10EBD00000240F9
:1045D00000040240002101401CB5FCF773FE684650
:1045E000FCF7FCFC00208DF8000004208DF8010091
:1045F00000208DF802008DF803008DF804000120E2
:104600008DF805006846FCF79FFC1CBD00B58BB01B
:1046100009A8FEF741FB092203218148FEF78CFB24
:1046200002208DF82B0000208DF8280002208DF844
:104630002A000820099000208DF8290009A978484F
:10464000FEF734FB092202217548FEF775FB0220B4
:104650008DF82B0000208DF8280002208DF82A000C
:104660000420099000208DF8290009A96C48FEF764
:104670001DFB01210020FDF713F901216948FDF719
:10468000C0F806A8FCF76DFE01208DF818009020F8
:10469000ADF81A0024208DF81C008DF819001B209D
:1046A000ADF81E0009208DF820008DF81D001C209B
:1046B0008DF8210006A95B48FCF762FE01215948EC
:1046C000FCF793FE6846FCF795FE00218DF810106C
:1046D00000208DF80400039000900F218DF8121037
:1046E0008DF8060001218DF811108DF805008DF868
:1046F00016108DF80A008DF813108DF807008DF84C
:1047000014108DF808008DF815108DF809006A4610
:1047100000214448FCF79AFE6846FCF76BFE002136
:104720008DF8101000208DF8040040F2FF70039007
:1047300000900F218DF8121000208DF80600012145
:104740008DF811108DF805008DF816108DF80A00FF
:104750008DF813108DF807008DF814108DF80800EF
:104760008DF815108DF809006A462E48FCF76EFE8C
:1047700000212C48FDF745F8012200212948FCF7CB
:104780004FFE012211462748FCF74AFE0721254823
:10479000FCF797FF07212348FCF784FF00212148FD
:1047A000FCF7EDFE00211F48FDF730F801211D4800
:1047B000FDF722F800211B48FCF788FF0B21194860
:1047C000FCF70EFE00211748FCF776FF0021154884
:1047D000FCF76DFF012202211248FCF7B8FE01220E
:1047E00010211048FCF7B3FE012220210D48FCF7F0
:1047F000AEFE012240210B48FCF7A9FE01228021D8
:104800000848FCF7A4FE012211020648FCF79FFEAF
:10481000012291020348FCF79AFE0BB000BD000094
:10482000000002400064004000B585B01348FDF769
:1048300053FB6846FDF714FB0020ADF8080001208B
:104840008DF80F008DF80D008DF80E0000208DF80A
:104850000C008DF8110001208DF810006946074802
:10486000FDF70AFB012105480838FDF751FB05213A
:104870000248FC30FDF753FB05B000BD0860024064
:1048800000B585B01348FDF727FB6846FDF7E8FA49
:104890001020ADF8080000208DF80F0001208DF8E1
:1048A0000D0000208DF80E008DF80C008DF8110021
:1048B0008DF8100069460748FDF7DEFA012105482A
:1048C0003038FDF725FB19210248DC30FDF727FBC6
:1048D00005B000BD3060024043608160C260704737
:1048E0001CB56846FEF7D8F900208DF806000820B0
:1048F000009000208DF8050069461C48FEF7D6F9A7
:104900004FF480611948FEF7C5F94FF41841184873
:10491000FEF7C0F940211548FEF7BAF902208DF8DC
:10492000070000208DF8040001208DF806004FF4E8
:104930008860009000208DF8050069460B48FEF75E
:10494000B5F902208DF8070000208DF80400012041
:104950008DF806004FF41840009000208DF80500F7
:1049600069460348FEF7A2F91CBD0000000402409E
:104970000000024070B50320FEF7A6FFFBF7EAFF38
:10498000054600221146FBF75FFF044621466FF003
:104990000B00FBF7E7FFFBF7DDFF054600221146A2
:1049A000FBF752FF044621466FF00A00FBF7DAFFDF
:1049B000FBF7D0FF054600221146FBF745FF0446F2
:1049C00021466FF00900FBF7CDFFFBF7C3FF05465B
:1049D00000221146FBF738FF044621466FF0040021
:1049E000FBF7C0FFFBF7B6FF054600221146FBF7B9
:1049F0002BFF044621466FF00300FBF7B3FFFBF7E4
:104A0000A9FF054600221146FBF71EFF044621467A
:104A10006FF00100FBF7A6FFFBF79CFF05460022A5
:104A20000F21FBF711FF044621464FF0FF30FBF743
:104A300099FF002211461220FEF7E2FE002201211A
:104A40001420FEF7DDFE002201211620FEF7D8FE1D
:104A5000002202213720FEF7D3FE70BD10B50121E0
:104A60004FF44010FDF70AF801211C48FDF706F845
:104A700001211A48001DFDF701F8012117481530E2
:104A8000FCF7FCFF01211648FCF7F8FF0121144850
:104A9000401CFCF7F3FF012111480A30FCF7EEFF40
:104AA00001210F481530FCF7E9FF01214FF4880080
:104AB000FCF7E4FF01210B48FCF7E0FF0121094866
:104AC000001DFCF7DBFF01210648401DFCF7D6FF67
:104AD000012104480A30FCF7D1FF10BD010030006D
:104AE00004004000040044001FB502A8FEF7D4F8FB
:104AF0006846FEF7E7FF052208212548FEF71CF966
:104B000002208DF80F0000208DF80C0002208DF897
:104B10000E00C001029000208DF80D0002A91C4873
:104B2000FEF7C4F8062205211948FEF705F9022010
:104B30008DF80F0000208DF80C0002208DF80E007B
:104B40002020029000208DF80D0002A91048FEF7E9
:104B5000ADF803208DF8000001208DF80100002041
:104B60008DF804008DF8030004208DF80200012068
:104B70008DF805008DF806008DF807006946054898
:104B8000FEF7B0FF01210348FEF7A7FF1FBD00009D
:104B9000000402400038004010B5FCF7D5FF40F299
:104BA00055102749086001212648FCF767FF264871
:104BB000006920F00300C01C234908610121042082
:104BC000FCF77AFE00BF2148FCF740FF0128FAD12C
:104BD00001210020FCF770FE00BF0120FCF736FF2A
:104BE0000128FAD1022301225A210020FCF792FF6A
:104BF00001210220FCF760FE00BF1920FCF726FF10
:104C00000128FAD10020FCF707FE0520FCF72AFE58
:104C10000020FCF71DFE0020FCF710FE0120FCF731
:104C20002BFE0220FCF7D4FF00BFFCF7E3FF0228B5
:104C3000FBD10020FCF720FEFFF730F810BD00008C
:104C4000003C02401C004000007000400100740065
:104C500010B500F001F810BD02480068401C014981
:104C600008607047000000201FB500246846FCF76C
:104C700057FE0198C4080020FFF798F84FF47A70A7
:104C8000B4FBF0F0401E4FF0E02148610020886145
:104C90000846006940F0030008611FBD00B587B0F9
:104CA00005A8FDF7F9FF012208219348FEF744F813
:104CB0004FF48070059002208DF81A0000208DF8C6
:104CC00018008DF8190002208DF81B0005A98A48EC
:104CD000FDF7ECFF012209218748FEF72DF84FF47C
:104CE0000070059002208DF81A0000208DF8180041
:104CF0008DF8190002208DF81B0005A97E48FDF7EC
:104D0000D5FF01220A217C48FEF716F84FF4806097
:104D1000059002208DF81A0000208DF818008DF8FB
:104D2000190002208DF81B0005A97348FDF7BEFF8E
:104D300002217248FFF7FFF800217048FFF7F6F8EC
:104D400000216E48FFF76CFA00216C48FFF757FA14
:104D5000012240F6C9016948FFF73CF80021674885
:104D6000FFF778FA00216548FFF753FA00216348FE
:104D7000FFF74AFA06208DF80C0001208DF811008B
:104D800000208DF812008DF80F008DF810008DF8BE
:104D90000D008DF80E0003AA00215848FFF701F915
:104DA000002211465548FFF796F800221146534855
:104DB000FFF7CBF8002211465048FFF7EFF9062025
:104DC0008DF80C0001208DF8110000208DF81200E4
:104DD0008DF80F008DF810008DF80D008DF80E0085
:104DE00003AA02214548FFF7DCF8002202214348CC
:104DF000FFF771F8002202214048FFF7A6F80022D1
:104E000002213E48FFF7CAF906208DF80C00012068
:104E10008DF8110000208DF812008DF80F008DF82C
:104E200010008DF80D008DF80E0003AA0421334800
:104E3000FFF7B7F8002204213048FFF74CF80022B2
:104E400004212E48FFF781F8002204212B48FFF7A8
:104E5000A5F907208DF80C0001208DF81100002025
:104E60008DF812008DF80F008DF810008DF80D00F0
:104E70008DF80E0003AA06212048FFF792F840F2B1
:104E8000823206211D48FFF726F8002206211B4822
:104E9000FFF75BF8002206211848FFF77FF9002092
:104EA0008DF80A008DF807008DF805008DF80800D0
:104EB0008DF809008DF806008DF8040001A90F484F
:104EC000FEF7A5FF00210D48FEF79CFF00208DF89E
:104ED00000008DF801008DF8020069460748FEF7D2
:104EE00081FF01210548FFF785F901210348FFF7FC
:104EF00027F807B000BD000000000240000001409C
:104F000010B500210A48FFF716F800210848FFF7FE
:104F100076F9B3224FF6FF710548FEF75BFF0021DB
:104F20000348FFF776F901210148FFF709F810BDA2
:104F30000010004010B500210A48FEF7FCFF0021D8
:104F40000848FFF75CF9B32240F2E7310548FEF765
:104F500041FF00210348FFF75CF901210148FEF7FA
:104F6000EFFF10BD001400401CB56846FDF794FE2D
:104F7000072201212548FDF7DFFE02208DF80700FA
:104F800000208DF8040002208DF80600009000201B
:104F90008DF8050069461D48FDF788FE07220021AF
:104FA0001A48FDF7C9FE02208DF8070000208DF891
:104FB000040002208DF806000120009000208DF8EA
:104FC000050069461148FDF771FE002301224FF4E8
:104FD00061210F48FFF780F901210D48FFF7F7F92C
:104FE00001210B48FFF7EEF900210948FFF7C4F94A
:104FF00001210748FFF733F900210548FFF739F988
:1050000001210348FFF730F91CBD000000140240E5
:10501000001001400EF1020E2EF0030E5EF8044B5C
:10502000244204D44FEA4102B2F17F4F11D84FEA33
:105030004003B3F17F4F0CD80ED14FEAD07CB2F1D0
:105040007F4F0CEB4C0C0CF1020C08BF4CEBD17CED
:1050500004E04FF0080C01E04FEAD17C0CEB4C036C
:1050600024FA03F404F00704B4F1040C06D20EEBA6
:10507000840CBDE810404CF0010C6047DFE80CF0F8
:10508000070802024FF00040A0F5800010BD08465E
:10509000420018BFD2F1807288BF00F0004010BDFE
:1050A0004FF04070E1EE100A704700004FF07F4C67
:1050B0003CEA410318BF3CEA400200F062804FF432
:1050C0007F0C10F0004F0CEAD11318BF43F005031A
:1050D0001CEAD01218BF13EA0C0F00F057804FF0F3
:1050E000004C4CEA00204CEA0121A3F580339A429F
:1050F00010DDB0F1004F23F0020306D3401A43F055
:105100000203BCBF404283F001034FEA4000A2F516
:105110008032ECE74FEA224CBCEB234F08DB88429D
:1051200006D31CD0A0EB4100C0F1000083F00103C6
:1051300040001DD217D40DD0B0FA80FC0CF1010C48
:1051400000FA0CF0A2EB0C42D2F1000C12DB4FEA99
:10515000C37070474FEA437000F00040704713F08F
:10516000020FE5D0DEE7B2F580324FEA4000EBDD1A
:10517000002AE9DD4FEAC21242EA502040EAC37039
:10518000704710B5FFF746FFEDFFFF3E1CEAD11F49
:1051900002D000F000407047004870470000C07F18
:1051A00031200008CD2000087522000837210008B2
:1051B0009D23000801000000000002400080000064
:1051C0000000024000100000000002400008000043
:1051D0000004024000040000000402400800000037
:1051E0000000000000000000010203040607080997
:1051F000000000000102030400000000010203049B
:105200000102040810200001020304050607080C2F
:1052100010141820304000000000000000000102BF
:10522000030406070809010204081020E7370008F4
:10523000F33700080000000000000000000200003A
:105240000002000000F0000800F80008000800005C
:1052500000E8000800E80008000800006D200008D1
:105260009D2000086520000838520008F922000837
:1052700029230008D522000844520008892100088B
:105280000000000000000000505200080000000074
:105290006E83F9A22915444ED15727FCC0DD34F5A1
:1052A000999562DB4190433CAB6351FECC520008C0
:1052B0000000002048010000F8010008D453000855
:1052C00048010020F80900003402000861032B1295
:1052D0007A10FF070E091C1B1215383F36312423A4
:1052E0002A2D70777E796C6B6265484F4641545326
:1052F0005A5DE0E7EEE9FCFBF2F5D8DFD6D1C4C396
:10530000CACD90979E998C8B8285A8AFA6A1B4B385
:10531000BABDC7C0C9CEDBDCD5D2FFF8F1F6E3E4F5
:10532000EDEAB7B0B9BEABACA5A28F8881869394E5
:105330009D9A2720292E3B3C35321F181116030455
:105340000D0A5750595E4B4C45426F686166737445
:105350007D7A898E878095929B9CB1B6BFB8ADAAA5
:10536000A3A4F9FEF7F0E5E2EBECC1C6CFC8DDDAA5
:10537000D3D4696E676075727B7C51565F584D4A15
:105380004344191E171005020B0C21262F283D3A05
:1053900033344E49404752555C5B7671787F6A6D75
:1053A00064633E39303722252C2B0601080F1A1D65
:1053B0001413AEA9A0A7B2B5BCBB9691989F8A8DD5
:1053C0008483DED9D0D7C2C5CCCBE6E1E8EFFAFDC5
:0453D000F40219F3D7
:04000005080001BD31
:00000001FF
