:020000040800F2
:10000000700600205D0200080B04000803040008CD
:1000100007040008FB030008ED04000800000000CE
:100020000000000000000000000000004F04000875
:1000300001040008000000004D04000851040008FD
:1000400077020008770200087702000877020008AC
:10005000770200087702000877020008770200089C
:10006000770200087702000877020008FF03000803
:10007000770200087702000877020008770200087C
:100080007702000877020008F903000877020008E9
:10009000770200087702000877020008770200085C
:1000A000770200087702000877020008770200084C
:1000B00000000000770200087702000877020008BD
:1000C000770200087702000877020008770200082C
:1000D000770200087702000877020008000000009D
:1000E000770200087702000800000000000000000E
:1000F0000000000000000000000000000000000000
:1001000000000000000000000000000000000000EF
:1001100000000000000000007702000877020008DD
:1001200000000000000000000000000000000000CF
:1001300000000000000000000000000000000000BF
:10014000770200080000000000000000000000002E
:10015000000000000000000000000000000000009F
:10016000000000000000000000000000000000008F
:10017000000000000000000000000000000000007F
:1001800000000000770200080000000000000000EE
:10019000000000000000000000000000000000005F
:1001A000000000000000000000000000000000004F
:1001B00000000000000000007702000800F002F8D4
:1001C00000F03CF80AA090E8000C82448344AAF1B5
:1001D0000107DA4501D100F031F8AFF2090EBAE8B3
:1001E0000F0013F0010F18BFFB1A43F0010318476B
:1001F000E821000008220000103A24BF78C878C126
:10020000FAD8520724BF30C830C144BF04680C601C
:10021000704700000023002400250026103A28BF64
:1002200078C1FBD8520728BF30C148BF0B60704768
:100230001FB502F0ADF81FBD10B510BD00F0AAF853
:100240001146FFF7F5FF00F00FFF00F0C8F803B408
:10025000FFF7F2FF03BC00F067F900000948804790
:1002600009488047FEE7FEE7FEE7FEE7FEE7FEE718
:10027000FEE7FEE7FEE7FEE704480549054A064BB0
:100280007047000059040008BD01000870000020FC
:10029000700600207002002070020020704753EAB0
:1002A000020C00F069802DE9F04B4FF00006002BA6
:1002B0001FBFB3FA83F503FA05F424FA05F65E408E
:1002C00012BF1643B2FA82F502FA05F4C5F1200511
:1002D0001EBF22FA05FC44EA0C04203556EA044C01
:1002E0004FEA144418BF641C4FF000084FF0000997
:1002F000904271EB030C39D3002919BFB1FA81F791
:1003000001FA07F6B0FA80F700FA07F6C7F12007FE
:100310001EBF20FA07FC46EA0C062037B6FBF4FCA9
:10032000A7EB0507103F07F01F0BCBF120060CFAD7
:100330000BFB2CFA06F644BFB3460026202FA4BFC1
:100340005E464FF0000B5BEA060C08BF4FF0010B56
:1003500019EB0B09ABFB027C48EB0608C01B06FB44
:1003600002CC0BFB03CC71EB0C01C1E70B46024640
:1003700041464846BDE8F08B13B54FF000004FF002
:100380000001AFF30080BDE81C4070477047704724
:1003900070477047754600F02BF8AE460500694679
:1003A000534620F00700854618B020B5FFF764FFDC
:1003B000BDE820404FF000064FF000074FF0000866
:1003C0004FF0000B21F00701AC46ACE8C009ACE8E7
:1003D000C009ACE8C009ACE8C0098D46704710B54B
:1003E0000446AFF300802046BDE81040FFF72FBF62
:1003F000004870470C000020704700BFFEE77047C0
:10040000704700BFFEE700BFFEE77047F0B5034648
:100410000C4603F00701C1F10700042801D90420AC
:1004200001E0C1F107000646081D072801D200209F
:1004300000E0C81E05460120B040401E2040A840F4
:100440000127AF407F1E17403843F0BD704770470B
:1004500010B501F0F5FD10BD2048006840F47000B3
:100460001E4908601E48006820F00100401C1C491D
:10047000086000BF1A480068C0F340000028F9D0A7
:1004800017480830006820F003001549083108605B
:1004900000BF134808300068C0F381000028F8D17D
:1004A0004FF080400E49083108600D4800680D4942
:1004B00008400B4908600C48091D08604FF4712082
:1004C0000749A03108604FF41F0005490C3108604E
:1004D0004FF00060014980390860704788ED00E006
:1004E00000380240FFFFF2FE0230030000BFFEE7CB
:1004F00002480068C0F30220704700000CED00E0E5
:1005000010B5002804DB0A07130E054A135406E051
:100510000A07140E034A00F00F031B1FD45410BD2A
:1005200000E400E018ED00E070470B78426863F3E8
:10053000082242604B78826863F3410282608B78C4
:10054000826863F3CB228260CA78521EC36A62F368
:100550001753C362704700210170417081700121FF
:10056000C1707047816821F00801083181607047CF
:1005700001468868C0F3C00008B101207047002020
:10058000FCE7816821F00401091D81607047014684
:100590008868C0F3800008B1012070470020FCE7A4
:1005A00002782249096862F30401204A1160427806
:1005B0001F49D1F8041362F313411C4A116081787A
:1005C00001F0040149B11146096821F0805101F19F
:1005D0008051174AC2F8041306E01449096821F053
:1005E0008051134AC2F804138178104A126861F3EB
:1005F0008F320E490A60C2780D49D1F8041362F3B4
:100600004D310A4A116002790949D1F8041362F3A5
:100610000B21064A116042790549D1F8041362F3AF
:10062000D751034AC2F80413704700000423014065
:10063000002001400021017041708170C170017182
:1006400041717047826861F3000282607047024620
:10065000002013680B4003B900E0012070474A1ED8
:10066000836B62F315538363704770B500241B29B5
:100670006ED2DFE801F00E13181D22272C31363B15
:1006800040454A874F54595E8763686E73787D870B
:100690008200056963F30205056174E0056963F38F
:1006A000C50505616FE0056963F3881505616AE0BA
:1006B000056963F34B25056165E0056963F30E3554
:1006C000056160E0056963F3D13505615BE00569AB
:1006D00063F39445056156E0056963F35755056179
:1006E00051E0056963F31A6505614CE0056963F340
:1006F000DD65056147E0C56863F30205C56042E05A
:10070000C56863F3C505C5603DE0C56863F388153A
:10071000C56038E0C56863F30E35C56033E0C56871
:1007200063F3D135C5602EE0C56863F39445C560B9
:1007300029E0C56863F35755C56024E0C56863F3D5
:10074000DD65C5601FE0056D63F3020505651AE010
:1007500018E0056D63F3C505056514E0056D63F3E9
:10076000881505650FE0056D63F34B2505650AE007
:10077000056D63F30E35056505E0056D63F394457E
:10078000056500E000BF00BF856BC5F30156D51CB1
:10079000AD1BACB2012C06D0022C09D0032C0CD01E
:1007A000042C14D10EE0856B61F3040585630FE022
:1007B000856B61F3491585630AE0856B61F38E25CE
:1007C000856305E0856B61F3D335856300E000BF89
:1007D00000BF70BD0F290ADD836823F4000303F511
:1007E00000038360836861F31343836007E08368D9
:1007F00023F400038360836861F313438360836899
:1008000062F315538360704731B1012909D0022981
:100810000CD0032914D10EE0436962F30B0343614A
:100820000FE0836962F30B0383610AE0C36962F33B
:100830000B03C36105E0036A62F30B03036200E08C
:1008400000BF00BF7047000010B50121034800F051
:100850009DFA0021014800F099FA10BD080024001B
:10086000426861F3196242607047012101700C21F6
:1008700041800421017141700621C1800221017271
:1008800041710721417270470A78521E036962F371
:10089000040303614A88921E436862F308034360BD
:1008A0000A79521E436862F3164343604A78521E27
:1008B000436862F31E6343608A79921E836862F321
:1008C000070383600A7A521E836862F316438360CB
:1008D0004A79521E836862F31E6383604B7A026911
:1008E00063F30F2202617047C26A61F30302C262BE
:1008F0007047826A61F3D75282627047072975D2C6
:10090000DFE801F00415273B4D607500826A22F094
:1009100040028262826A22F000428262826A22F08F
:1009200020028262826A22F48042826276E0826AD7
:1009300022F0400240328262826A22F000428262E9
:10094000826A22F020028262826A22F480428262FB
:1009500064E0826A22F0400240328262826A22F0BF
:10096000004202F100428262826A22F02002826228
:10097000826A22F48042826250E0826A22F040025F
:100980008262826A22F000428262826A22F020023F
:1009900020328262826A22F4804282623EE0826A6F
:1009A00022F040028262826A22F000428262826AFF
:1009B00022F020028262826A22F4804202F58042A2
:1009C00082622BE0826A22F0400240328262826AB6
:1009D00022F000428262826A22F020028262826AEF
:1009E00022F4804202F58042826217E015E0826ABA
:1009F00022F0400240328262826A22F0004202F11A
:100A000000428262826A22F020028262826A22F4BA
:100A1000804202F58042826200E0704700BF00BF62
:100A2000FBE7026961F31A6202617047826A61F34F
:100A3000DB6282627047026861F351420260704774
:100A4000026961F31E7202617047826A61F39E72ED
:100A500082627047C26A61F30712C2627047826A9B
:100A600061F3C71282627047826A61F355528262F3
:100A7000704700000348806820F00100401C0149D5
:100A800088607047003002400149086170470000EB
:100A9000003002400349896860F3C401014A916053
:100AA0007047000000300240014948617047000073
:100AB000003002400349896860F34611014A9160A1
:100AC00070470000003002400349896860F3C71195
:100AD000014A9160704700000030024000B50346B3
:100AE000012000F02BF80548006863F30710034964
:100AF0000860002000F022F800BD00000838024025
:100B00000349096860F38C21014A116070470000B5
:100B1000083802400349096860F34F31014A116007
:100B200070470000083802400349096860F30E313D
:100B3000014A116070470000A4380240012807D123
:100B40000749096821F030013031054A116005E09C
:100B50000349096821F03001014A11607047000023
:100B6000A438024030B9044A126861F31962024B9A
:100B70001A6000BF00BF70476838024005282BD2BA
:100B8000DFE800F0030A11182100154A126861F32A
:100B90000002134B1A6020E0114A126861F3104200
:100BA0000F4B1A6019E00E4A126861F318620C4B81
:100BB0001A6012E00A4A7032126861F30002084BB0
:100BC00070331A6009E0064A7432126861F3000259
:100BD000034B74331A6000E000BF00BF7047000091
:100BE000003802402DE9FF5F04464FF0000AD3466B
:100BF000002003900290019000250026814600F01D
:100C00005BF90090009820B1012816D002284DD140
:100C10001FE038480068C0F3803010B136482060CB
:100C200001E0364820603348001D0068C0F30249E7
:100C3000206820FA09F020603BE0304820602D4811
:100C4000001D0068C0F3C249206820FA09F0206046
:100C50002FE028489C380068C0F380500290254857
:100C60009C380068C0F3881A22489C38006800F05D
:100C70000F0B20489C380068C0F302402049085CF4
:100C80000390029810B91D48019001E01B480190A3
:100C900003980BFB00FC0198A0FB0A70014662461A
:100CA00000233846FFF7FBFA206002E0134820607B
:100CB00000BF00BF0F4898380068C0F30315114803
:100CC000465D2068F04060600A4898380068C0F3CC
:100CD00082250D48465D6068F040E0600548983820
:100CE0000068C0F342350948465D6068F040A06086
:100CF000BDE8FF9FA0380240006CDC0200127A00C1
:100D0000BA2300089A230008AA230008B223000887
:100D100010B501460020094B03EB1142D2F8002820
:100D200001F01F040123A3401A4001F01F04012316
:100D3000A3409A4200D000E0012010BD00300240E4
:100D400010B501290FD1104B03EB1042D2F8002847
:100D500000F01F040123A3401A430B4C04EB104383
:100D6000C3F800280EE0084B03EB1042D2F800282D
:100D700000F01F040123A3409A43034C04EB1043EB
:100D8000C3F8002810BD00000030024010B5012952
:100D90000FD1104B03EB1042D2F8002800F01F04D3
:100DA0000123A3401A430B4C04EB1043C3F8002863
:100DB0000EE0084B03EB1042D2F8002800F01F04AD
:100DC0000123A3409A43034C04EB1043C3F80028CB
:100DD00010BD00000030024030B50B4C246860F3B9
:100DE0009654094D2C602C46246861F38E142C60B7
:100DF0002C46246862F303042C602C46246863F3B9
:100E000012442C6030BD00000438024000B50120BF
:100E1000FFF794FE1C48006820F00100401C1A49AE
:100E2000086000BF18480068C0F340000028F9D0EF
:100E300015480830006820F00300134908310860A5
:100E400000BF114808300068C0F381000028F8D1C5
:100E50000D4800680D4908400B4908604FF080407C
:100E60000949083108600A48091F08604FF47120D9
:100E70000549A03108604FF41F0003490C31086098
:100E80000020FFF75BFE00BD00380240FFFFF2FECE
:100E90000230030000B503460120FFF74FFE05486E
:100EA000006863F30100034908600020FFF746FE75
:100EB00000BD00000838024002480068C0F381000D
:100EC0007047000008380240026861F300020260C7
:100ED00070470021016041600181418101734173CC
:100EE0008173C17301744174704702684BF6EF73EC
:100EF0001A40026002680B891A4302604B7C026848
:100F000063F30D320260CB7B026863F38B220260D5
:100F10008B7B026863F3092202604B7B026863F3F8
:100F2000C71202600B7B026863F3861202600B7CBF
:100F3000026863F3451202604A89436842600A68A6
:100F400082604A68C26070470021026822F0010294
:100F500002600022026042608260C2600146CAB242
:100F6000083A1423B2FBF3F293000F229A40034B8A
:100F70005B681A43014B5A607047000000600240F2
:100F8000D0F8002161F30002C0F800217047026828
:100F900061F3060202607047816170474FF6FF718E
:100FA000016000218171017141710121C17170479E
:100FB00070B50A4600211488A3B233E003F001049F
:100FC0006CB304684E000325B540AC4304609479CB
:100FD0004D00AC4005682C430460446801258D40F9
:100FE000AC434460446815798D402C434460846868
:100FF0004E000325B540AC438460D4794D00AC402D
:1010000085682C438460C4684E000325B540AC431A
:10101000C46054794D00AC40C5682C43C4605B107B
:101020004C1CA1B2002BC9DC70BD70B51346002466
:1010300000224D07ED0E03FA05F4CD104DB1426AC2
:101040004D07EE0E0F25B540AA4342EA040545625E
:1010500008E0026A4D07EE0E0F25B540AA4342EAAA
:101060000405056270BD000000F08EFF00F0E2FE96
:1010700000F076FE00F0F0FF00F02EFE00F044FDE0
:1010800000F0AAFC00F0F8FD00231A4609490A48BE
:1010900000F01EFE01210848FFF716FF01F026F9B7
:1010A00000F04CFD00F002FF00F0D2FD00F0EEFF7A
:1010B00000BFFEE74C210140086002402DE9F047E7
:1010C0000B4614464FF0000C00BF2C4A1268C2F3C6
:1010D00002211D4626460A46C2F10709B9F1040F4E
:1010E00002D94FF0040901E0C2F10709C84602F134
:1010F0000409B9F1070F02D24FF0000901E0A2F193
:1011000003094F464FF0010909FA08F9A9F101094D
:1011100009EA050909FA07F94FF0010A0AFA07FA7C
:10112000AAF1010A0AEA060A49EA0A09CC46014676
:101130006246002904DB15072E0E114D6E5407E0A0
:1011400015072F0E0D4D0C3501F00F06361FAF554C
:1011500000BF014600290DDB00BF00BF01F01F05E5
:101160000122AA404D09AD0005F1E025C5F8002196
:1011700000BF00BF00BFBDE8F08700000CED00E03D
:1011800000E400E000BF00F00702064B19684FF6CC
:10119000FF031940044B0B4343EA0221014B196042
:1011A00000BF70470CED00E00000FA05002101705F
:1011B00041708170C1700171417181710121C171F2
:1011C0007047026861F3861202607047C26922F4B8
:1011D0000062C2610A7862B9026822F400420260C9
:1011E000026822F480420260026822F48062026097
:1011F00036E00A78012A0ED1026822F40042026029
:10120000026822F480420260026822F4806202F5E1
:101210008062026024E00A78022A0ED1026822F479
:10122000004202F500420260026822F4804202603D
:10123000026822F48062026012E00A78032A0FD169
:10124000026822F4004202F500420260026822F4C1
:10125000804202F580420260026822F480620260ED
:10126000CB79026863F3492202604A78012A09D1E6
:10127000CA79012A06D1026822F4807202F58072CE
:10128000026003E0026822F4807202604B78026818
:1012900063F3820202608A78072A0DDC426822F436
:1012A00000724260426822F4807242608B78026869
:1012B00063F3C502026020E08A780A2A0ED14268F0
:1012C00022F4007202F500724260426822F48072D9
:1012D0004260026822F0380202600EE0426822F4A6
:1012E00000724260426822F4807202F580724260AD
:1012F0008A78036862F3C5030360CB78026863F3FE
:10130000C71202600B79026863F3CB2202604B794B
:10131000026863F3410202608B79026863F30002A2
:10132000026070472DE9FE4F00250026A946AA4617
:10133000AB460020029001900024FFF7BDFD009015
:10134000009820B1012819D0022850D123E0334859
:101350000068C0F3803018B131483249086002E0BB
:101360003148304908602D48001D0068C0F3024430
:101370002C480068E0402B4908603CE02A48294995
:1013800008602648001D0068C0F3C2440846006893
:10139000E04008602FE021489C380068C0F3805A84
:1013A0001E489C380068C0F388151C489C380068AB
:1013B00000F00F0619489C380068C0F302401B4932
:1013C00011F80090BAF1000F02D1DFF85CB001E033
:1013D000DFF854B006FB09FCABFB05700146624622
:1013E00000233846FEF75BFF0E49086003E00E4815
:1013F0000C49086000BF00BF084898380068C0F377
:10140000031002900A490298085C019005480068A0
:101410000199C84003490860BDE8FE8FA03802402A
:10142000006CDC020800002000127A00D0230008C3
:10143000C0230008042808D14FF0E021096941F0D9
:1014400004014FF0E022116107E04FF0E02109694B
:1014500021F004014FF0E02211617047C162826205
:10146000436923F001035B1C436170474B78426C76
:1014700063F3596242648B78426C63F3175242649F
:101480000B78426C63F3186242647047426C61F3FC
:101490001342426470470B78426C63F30702426464
:1014A0004B79426C63F38A2242640B79426C63F39A
:1014B000CB2242644B78426C63F34D324264CB786A
:1014C000426C63F38E3242648B79426C63F30C326C
:1014D00042648B78426C63F309224264704710B512
:1014E0000B460E2B23D2DFE803F0072209220B2242
:1014F0000D0F142216191C1F426319E0826317E0B6
:10150000C26315E0026413E0846D62F30F04846526
:101510000EE0C2650CE0C0F8802009E0C0F884202D
:1015200006E0C0F8882003E0C0F88C2000E000BF8F
:1015300000BF10BD026861F30922026070470268B3
:1015400061F3061202607047026861F300020260F4
:10155000704710B50B46092B24D2DFE803F00523B2
:101560000A230F2314191E00846962F3C3048461E3
:1015700019E0846962F3CB24846114E0C46962F3E6
:10158000C304C4610FE0C46962F3CB24C4610AE000
:10159000446D62F3C304446505E0446D62F3CB24FB
:1015A000446500E000BF00BF10BDF0B50C461678E2
:1015B00006F007011678F3102546092D7CD2DFE8E6
:1015C00005F005EE34EE63EE94BED600066A26F012
:1015D000010606625778466867F3082646609778E2
:1015E000466867F349264660866926F003068661E9
:1015F000866961F306168661866963F31046866123
:10160000D778066A67F3410606621779066A67F3B8
:10161000C30606625779066A67F300060662977981
:10162000066A67F382060662BAE0066A26F01006CA
:1016300006625778466867F38A2646609778466858
:1016400067F3CB264660866926F440768661866914
:1016500061F30E368661866963F318668661D77812
:10166000066A67F3451606621779066A67F3C716B6
:1016700006625779066A67F3041606629779066A66
:1016800067F3861606628BE0066A26F480760662A9
:101690005778466867F30C3646609778466867F374
:1016A0004D364660C66926F00306C661C66961F319
:1016B0000616C661C66900E071E063F31046C661B4
:1016C000D778066A67F3492606621779066A67F3D0
:1016D000CB2606625779066A67F308260662977971
:1016E000066A67F38A2606625AE0066A26F480567E
:1016F00006625778466867F38E364660C66926F4F8
:101700004076C661C66961F30E36C661C66963F389
:101710001866C661D778066A67F34D360662177990
:10172000066A67F3CF3606625779066A67F30C36A6
:1017300006629779066A67F38E36066230E057785C
:10174000466867F310464660466D61F306164665C7
:10175000466D63F310464665D778066A67F35146CF
:1017600006625779066A67F31046066218E05778F2
:10177000466867F392464660466D61F30E364665ED
:10178000466D63F318664665D778066A67F3555663
:1017900006625779066A67F31456066200E000BFD6
:1017A00000BFF0BD10B50B46092B24D2DFE803F0D3
:1017B00005230A230F2314191E00846962F382048F
:1017C000846119E0846962F38A24846114E0C46945
:1017D00062F38204C4610FE0C46962F38A24C461C5
:1017E0000AE0446D62F38204446505E0446D62F3EF
:1017F0008A24446500E000BF00BF10BD426C61F365
:10180000CF3242647047026861F3C71202607047CA
:10181000426861F317524260704701F00702436863
:1018200062F3061343607047084A904208D0084AA2
:10183000904205D0074A904202D0074A904203D115
:10184000026B61F30F020263704700000000014069
:10185000004001400044014000480140826861F3BB
:10186000C71282607047C26861F34D32C260704730
:1018700041B9426922F480724261426922F40072E5
:10188000426127E001290AD1426922F4807202F5FF
:1018900080724261426922F4007242611AE00229B8
:1018A0000AD1426922F480724261426922F40072D4
:1018B00002F5007242610DE003290BD1426922F466
:1018C000807202F580724261426922F4007202F570
:1018D00000724261704700002DE9FF4704468846C8
:1018E000164699466846FFF77DF92248844201D1A1
:1018F000029F00E0039F07EB87004000B0FBF8F574
:101900000A20B5FBF0F100FB1150052803D20A2094
:10191000B5FBF0F503E00A20B5FBF0F0451CA0682C
:1019200065F30F00A06056B9E06820F0805000F128
:101930008050E060E06820F48050E06014E0012E08
:1019400008D1E06820F08050E060E06820F480502A
:10195000E06009E0E06820F08050E060E06820F49A
:10196000805000F58050E060206969F30D302061FF
:10197000BDE8FF870010014041B9C26822F400723F
:10198000C260C26822F48062C2601AE001290AD1F2
:10199000C26822F40072C260C26822F4806202F55A
:1019A0008062C2600DE002290BD1C26822F400728D
:1019B00002F50072C260C26822F4806202F58062A1
:1019C000C2607047C26861F38202C2607047C26839
:1019D00061F3C302C26070470EB501A8FFF7DEFADB
:1019E00003208DF80A002020019001A94348FFF749
:1019F000DFFA03208DF80A008020019001A93F48FA
:101A0000FFF7D6FA03208DF80A000120019001A902
:101A10003B48FFF7CDFA03208DF80A00042001901F
:101A200001A93748FFF7C4FA6846FEF794FD012084
:101A30008DF8000000208DF801008DF802000120D3
:101A40008DF8030069462F48FEF76FFD00212D48F1
:101A5000FEF706FF04212B48FEF701FE02230122B8
:101A600005212848FEF701FE002211462548FEF711
:101A7000CBFE02231A4607212248FEF7F6FD00227C
:101A800001212048FEF7C0FE0223032208211D4841
:101A9000FEF7EBFD002202211A48FEF7B5FE0223F5
:101AA00004220A211748FEF7E0FD00220321154811
:101AB000FEF7AAFE012200211248FEF78BFE01214B
:101AC0001048FEF7BFFD00BF40210E48FEF7BFFDE6
:101AD0000028F9D00B48FEF745FD00BF0948FEF786
:101AE00047FD0028FAD10748FEF74BFD00BF054827
:101AF000FEF74DFD0028FAD10EBD000000000240A7
:101B000000040240002101401CB5FEF79DFE68461E
:101B1000FEF790FD00208DF8000004208DF80100F4
:101B200000208DF802008DF803008DF804008DF878
:101B300005006846FEF734FD1CBD000000B585B009
:101B400003A8FFF72BFA092203213F48FFF76DFA9C
:101B500002208DF8130000208DF8100002208DF86F
:101B600012000820039000208DF8110003A93648C8
:101B7000FFF71EFA092202213348FFF756FA022026
:101B80008DF8130000208DF8100002208DF812004F
:101B90000420039000208DF8110003A92A48FFF7C4
:101BA00007FA01210020FEF7DDFF01212748FEF79B
:101BB00056FF6846FEF759FE01208DF80000902080
:101BC000ADF8020024208DF804008DF801001B20E0
:101BD000ADF8060009208DF808008DF805001C20DE
:101BE0008DF8090069461948FEF74EFE0121174895
:101BF000FEF77FFE00211548FEF731FF072113484D
:101C0000FEF71EFF07211148FEF70BFF00210F48CA
:101C1000FEF774FE00210D48FEF726FF01210B4858
:101C2000FEF718FF00210948FEF70FFF0B210748B8
:101C3000FEF75AFE00210548FEF7FDFE002103488D
:101C4000FEF7F4FE05B000BD000002400064004055
:101C500010B50020FEF718FF0220FEF71BFF07203B
:101C6000FEF722FF0020FEF725FF0020FEF72CFFE5
:101C7000FEF700FF10BD000000B585B01348FFF768
:101C800063F96846FFF725F90020ADF80800012048
:101C90008DF80F008DF80D008DF80E0000208DF8E6
:101CA0000C008DF8110001208DF8100069460748DE
:101CB000FFF71BF9012105480838FFF761F92421D6
:101CC0000248FC30FFF763F905B000BD0860024030
:101CD00043608160C26070471CB56846FFF75EF9DB
:101CE00000208DF806000820009000208DF80500E7
:101CF00069461948FFF75CF94FF480611648FFF711
:101D00004BF94FF418411548FFF746F902208DF8BA
:101D1000070000208DF8040001208DF806008002E5
:101D2000009000208DF8050069460B48FFF740F948
:101D300002208DF8070000208DF8040001208DF8A6
:101D400006004FF41840009000208DF80500694609
:101D50000248FFF72DF91CBD0004024000000240BC
:101D600070B50320FFF70EFAFEF7C2FB054600220E
:101D70001146FEF74BFB044621466FF00B00FEF7C1
:101D8000BFFBFEF7B5FB054600221146FEF73EFB02
:101D9000044621466FF00A00FEF7B2FBFEF7A8FBEF
:101DA000054600221146FEF731FB044621466FF03E
:101DB0000900FEF7A5FBFEF79BFB05460022114636
:101DC000FEF724FB044621466FF00400FEF798FB63
:101DD000FEF78EFB054600221146FEF717FB044670
:101DE00021466FF00300FEF78BFBFEF781FB0546F3
:101DF00000221146FEF70AFB044621466FF001005F
:101E0000FEF77EFBFEF774FB054600220F21FEF76E
:101E1000FDFA044621464FF0FF30FEF771FB002229
:101E200011460B20FFF74AF9002211461220FFF756
:101E300045F970BD10B501214FF44010FEF780FF49
:101E400001211748FEF77CFF01211548001DFEF710
:101E500077FF012112480B30FEF772FF0121104875
:101E60001530FEF76DFF01210E48FEF769FF0121D5
:101E70000C480B30FEF764FF01214FF48800FEF799
:101E80005FFF01210848FEF75BFF01210648401D66
:101E9000FEF756FF012104480A30FEF751FF10BD3E
:101EA000010030000E004000040044001FB502A8ED
:101EB000FFF774F86846FFF779F9052208213048E2
:101EC000FFF7B3F802208DF80F0000208DF80C000A
:101ED00002208DF80E00C001029000208DF80D0048
:101EE00002A92748FFF764F8062204212448FFF7D7
:101EF0009CF802208DF80F0000208DF80C000220C5
:101F00008DF80E001020029000208DF80D0002A91F
:101F10001B48FFF74DF8062205211948FFF785F801
:101F200002208DF80F0000208DF80C0002208DF8A3
:101F30000E002020029000208DF80D0002A910480C
:101F4000FFF736F800208DF8000001208DF8010021
:101F500000208DF804008DF8030004208DF80200A5
:101F600001208DF805008DF806008DF80700694600
:101F70000448FFF72BF901210248FFF722F91FBDA2
:101F8000000402400038004010B5FEF73FFF40F269
:101F900055102749086001212648FEF7D1FE264842
:101FA000006920F00300C01C2349086101210420BE
:101FB000FEF7E4FD00BF2148FEF7AAFE0128FAD192
:101FC00001210020FEF7DAFD00BF0120FEF7A0FE90
:101FD0000128FAD1022301225A210020FEF7FCFE3B
:101FE00001210220FEF7CAFD00BF1920FEF790FE76
:101FF0000128FAD10020FEF771FD0520FEF794FDBF
:102000000020FEF787FD0020FEF77AFD0120FEF795
:1020100095FD0220FEF73EFF00BFFEF74DFF0228B0
:10202000FBD10020FEF78AFDFFF77CF910BD000010
:10203000003C02401C0040000070004001007400A1
:1020400010B500F001F810BD02480068401C0149BD
:1020500008607047000000201FB500246846FEF7A6
:10206000C1FD0198C4080020FFF7E4F94FF47A702D
:10207000B4FBF0F0401E4FF0E02148610020886181
:102080000846006940F0030008611FBD00B587B035
:1020900005A8FEF783FF012208219248FEF7C5FF3D
:1020A0004FF48070059002208DF81A0000208DF802
:1020B00018008DF8190002208DF81B0005A9894829
:1020C000FEF776FF012209218648FEF7AEFF4FF4A6
:1020D0000070059002208DF81A0000208DF818007D
:1020E0008DF8190002208DF81B0005A97D48FEF728
:1020F0005FFF01220A217B48FEF797FF4FF48060C3
:10210000059002208DF81A0000208DF818008DF837
:10211000190002208DF81B0005A97248FEF748FF40
:1021200002217148FFF70BFA00216F48FFF702FA0E
:1021300000216D48FFF778FB00216B48FFF763FB38
:102140001022FF216848FFF789F900216648FFF750
:1021500085FB00216448FFF760FB00216248FFF720
:1021600057FB06208DF80C0001208DF8110000208F
:102170008DF812008DF80F008DF810008DF80D000D
:102180008DF80E0003AA00215748FFF70EFA3222FD
:1021900000215548FFF7A3F9002211465248FFF7E6
:1021A000D8F9002211465048FFF7FCFA06208DF8B6
:1021B0000C0001208DF8110000208DF812008DF820
:1021C0000F008DF810008DF80D008DF80E0003AA99
:1021D00002214548FFF7E9F9962202214248FFF71C
:1021E0007EF9002202214048FFF7B3F900220221C4
:1021F0003D48FFF7D7FA06208DF80C0001208DF836
:10220000110000208DF812008DF80F008DF81000DD
:102210008DF80D008DF80E0003AA04213248FFF757
:10222000C4F9C82204213048FFF759F900220421DB
:102230002D48FFF78EF9002204212B48FFF7B2FA50
:1022400007208DF80C0001208DF8110000208DF87A
:1022500012008DF80F008DF810008DF80D008DF82C
:102260000E0003AA06212048FFF79FF9FE2206214F
:102270001D48FFF734F9002206211B48FFF769F9D2
:10228000002206211848FFF78DFA00208DF80A0079
:102290008DF807008DF805008DF808008DF809000D
:1022A0008DF806008DF8040001A90F48FFF7F3F838
:1022B00000210D48FFF7EAF800208DF800008DF8A6
:1022C00001008DF8020069460748FFF7CFF80121A9
:1022D0000548FFF793FA01210348FFF735F907B0E6
:1022E00000BD000000000240000001401CB568462F
:1022F000FEF754FE072201212348FEF796FE022036
:102300008DF8070000208DF8040002208DF80600EB
:10231000009000208DF8050069461B48FEF748FE36
:10232000072200211848FEF780FE02208DF80700E2
:1023300000208DF8040002208DF806000120009096
:1023400000208DF8050069460F48FEF731FE002396
:1023500001224FF4E1310D48FFF7BEFA01210B488D
:10236000FFF735FB01210948FFF72CFB0021074847
:10237000FFF702FB00210548FFF77AFA0121034825
:10238000FFF771FA1CBD000000140240001001406C
:102390004FF04070E1EE100A7047000000000000AE
:1023A0000000010203040607080900000000010202
:1023B00003040000000001020304010204081020CD
:1023C00000000000000000000102030406070809E5
:1023D0000102040810200000F8230008000000207B
:1023E0000C000000F8010008042400080C00002084
:1023F0006406000014020008000000000000000055
:0424000000127A004C
:04000005080001BD31
:00000001FF
