:020000040800F2
:1000000060100020290300087B210008271F00083A
:1000100077210008751E00085F220008000000001C
:10002000000000000000000000000000BF210008E8
:10003000251F000800000000BD210008C1210008A4
:100040004303000843030008430300084303000878
:100050004303000843030008430300084303000868
:100060004303000843030008430300084303000858
:10007000430300081D1F0008430300084303000852
:100080004303000843030008551E0008430300080B
:10009000C11E000843030008791E0008430300083E
:1000A0004303000843030008430300084303000818
:1000B0000000000043030008430300084303000856
:1000C00043030008430300084303000843030008F8
:1000D0004303000843030008430300080000000036
:1000E0004303000843030008000000000000000074
:1000F0000000000000000000000000000000000000
:1001000000000000000000000000000000000000EF
:100110000000000000000000430300085D2200080A
:1001200000000000000000000000000000000000CF
:1001300000000000000000000000000000000000BF
:100140004303000800000000000000000000000061
:10015000000000000000000000000000000000009F
:10016000000000000000000000000000000000008F
:10017000000000000000000000000000000000007F
:100180000000000043030008000000000000000021
:10019000000000000000000000000000000000005F
:1001A000000000000000000000000000000000004F
:1001B00000000000000000004303000800F002F807
:1001C00000F0A2F80AA090E8000C82448344AAF14F
:1001D0000107DA4501D100F097F8AFF2090EBAE84D
:1001E0000F0013F0010F18BFFB1A43F0010318476B
:1001F0002C6F00004C6F00000A4410F8014B14F003
:100200000F0508BF10F8015B240908BF10F8014B67
:100210006D1E05D010F8013B6D1E01F8013BF9D1B0
:10022000641E03D0641E01F8015BFBD19142E4D34C
:10023000704700000023002400250026103A28BF44
:1002400078C1FBD8520728BF30C148BF0B60704748
:100250006E2900F06582702900F0AF83662906F0F0
:100260003F86652906F03C86672906F039866129B4
:1002700006F0388603681B0A28BF41F0800169290F
:1002800000F01282642900F00F82752900F00C82C0
:100290006F2900F03C83782900F07B83E92900F086
:1002A000D782E42900F0D482F52900F0D182EF2929
:1002B00000F03983F82900F07A830368DB0928BF4E
:1002C00041F08001632901F08180732901F086806B
:1002D000E32901F09180F32901F096800020704716
:1002E0001FB506F07DFD01F0E5F8040000200021B7
:1002F00006F01AFD401C60600020002106F0FEFCA4
:10030000E0601FBD10B510BD01F0A6F81146FFF763
:10031000E7FF04F0A7FB01F083F903B4FFF7F2FF56
:1003200003BC01F0C7F9000009488047094880472D
:10033000FEE7FEE7FEE7FEE7FEE7FEE7FEE7FEE795
:10034000FEE7FEE704480549054A064B70470000F2
:10035000C9210008BD010008600A002060100020CB
:10036000600C0020600C002053EA020C00F0698051
:100370002DE9F04B4FF00006002B1FBFB3FA83F5B9
:1003800003FA05F424FA05F65E4012BF1643B2FAEA
:1003900082F502FA05F4C5F120051EBF22FA05FC1C
:1003A00044EA0C04203556EA044C4FEA144418BFC2
:1003B000641C4FF000084FF00009904271EB030CF1
:1003C00039D3002919BFB1FA81F701FA07F6B0FA5B
:1003D00080F700FA07F6C7F120071EBF20FA07FCD6
:1003E00046EA0C062037B6FBF4FCA7EB0507103FE6
:1003F00007F01F0BCBF120060CFA0BFB2CFA06F6CC
:1004000044BFB3460026202FA4BF5E464FF0000B2A
:100410005BEA060C08BF4FF0010B19EB0B09ABFBB5
:10042000027C48EB0608C01B06FB02CC0BFB03CC8E
:1004300071EB0C01C1E70B46024641464846BDE858
:10044000F08B13B54FF000004FF00001AFF30080C8
:10045000BDE81C40704700007CB51D4616460C00E8
:10046000009001D02044401E074B7B442A46694639
:100470000190304600F06DF905461CB10020694638
:1004800000F07AF928467CBD15030000032A40F2EB
:10049000308010F0030C00F0158011F8013BBCF126
:1004A000020F624498BF11F801CB00F8013B38BF3E
:1004B00011F8013BA2F1040298BF00F801CB38BF4C
:1004C00000F8013B11F0030300F02580083AC0F06A
:1004D000088051F8043B083A51F804CBA0E8081012
:1004E000F5E7121D5CBF51F8043B40F8043BAFF345
:1004F0000080D20724BF11F8013B11F801CB48BF9F
:1005000011F8012B24BF00F8013B00F801CB48BFD4
:1005100000F8012B704710B5203AC0F00B80B1E80D
:100520001850203AA0E81850B1E81850A0E8185028
:10053000BFF4F5AF5FEA027C24BFB1E81850A0E831
:10054000185044BF18C918C0BDE810405FEA827C4B
:1005500024BF51F8043B40F8043B08BF7047D20762
:1005600028BF31F8023B48BF11F8012B28BF20F803
:10057000023B48BF00F8012B70474FF0000200B566
:10058000134694469646203922BFA0E80C50A0E8B6
:100590000C50B1F12001BFF4F7AF090728BFA0E864
:1005A0000C5048BF0CC05DF804EB890028BF40F830
:1005B000042B08BF704748BF20F8022B11F0804F72
:1005C00018BF00F8012B704770477047704710B58F
:1005D00000F0C2FA006810BD10B5044600F0BCFA85
:1005E000046010BD70B5044685690068C10601D578
:1005F000302600E02026C00707D070BDD4E90121D5
:1006000030469047206A401C20626D1EF6D570BDB2
:1006100070B5044685690078C00707D170BDD4E97C
:10062000012120209047206A401C20626D1EF6D5D3
:1006300070BD09684A0501D540B27047C905FCD5AF
:1006400000B2704709684A0501D5C0B27047C905B4
:10065000FCD580B2704770B50C460546012A05D01E
:100660002878800600D5EA69002302E0012305E02E
:100670005B1C934202D2E05C0028F9D1A869E6181D
:10068000C01AA861286A184428622846FFF7AAFF02
:1006900004E0D5E9012114F8010B9047B442F8D3E6
:1006A0002846FFF7B5FF70BD2DE9F041064600244E
:1006B00010687529314616A510D0FFF7BAFF00283B
:1006C00002DA404213A507E031688A0701D512A576
:1006D00002E0490704D511A5012401E0FFF7B2FFAC
:1006E00000210A2206F1240709E0B0FBF2FCB0FB6E
:1006F000F2F302FB1C00303078541846491C0028E5
:10070000F3D123462A463046BDE8F04100F06DBAE9
:10071000000000002D0000002B0000002000000061
:1007200011680268006A530501D508700AE0D30514
:1007300001D5088006E0130603D5C217C1E90002FF
:1007400000E008600120704701694A1C02610878D6
:10075000704700B58FB0CDE9013100210591054901
:100760007944CDE903101146684600F031F90FB025
:1007700000BD0000E5FFFFFF0A6802F8010B0A60F8
:100780007047D1E900239A4202D2531C0B601070CB
:10079000704700002DE9FF5F15468A460446DFF8E2
:1007A000AC80F8440027D8E900103E46CDE900109F
:1007B00010E03AF816106A4602A800F029FE411C23
:1007C00007D02178890603D5E269391891420DD8FE
:1007D0000744761C2078800602D5E069B84205DD22
:1007E000AE42E6DB3AF816000028E2D1A069C01B51
:1007F000A0612046FFF7F6FED8E90010CDE9001011
:10080000002017E03AF818106A4602A800F000FE2F
:10081000B0F1FF3F81460BD000250DF1080B05E03C
:10082000D4E901211BF8050090476D1C4D45F7D315
:1008300008F10100B0428046E4DB206A38442062BF
:100840002046FFF7E5FEBDE8FF9F00003668000088
:100850002DE9F0418046D21D22F007020025D2E9A1
:100860000002F52915A614D0011E72F1000106DA66
:100870000023D0EB030063EB020211A608E0D8F8D6
:1008800000108B0701D50FA602E0490701D50EA67F
:1008900001251146002408F1240704E000F060F966
:1008A00030323A55641C50EA0102F7D12B463246E9
:1008B00021464046BDE8F04100F097B90000000035
:1008C0002D0000002B0000002000000030B40021AB
:1008D00000F1240408E002F00705D208303542EAAE
:1008E0004372DB086554491C52EA0305F3D10468DE
:1008F000002310A2250707D5A40600D421B1C4699E
:1009000001230DA2641EC46130BC00F06EB910B5A5
:10091000044621461068FFF795FE02462046BDE8D2
:1009200010400023D2E7D21D22F00701D1E90023B5
:10093000CCE700000000000030000000F0B40D46DD
:100940000188090502D5214C7C4402E01F4C7C44FF
:100950000E34002100F1240608E002F00F0712090E
:10096000E75D42EA03721B097754491C52EA030708
:10097000F3D102780023120704D5702D06D009B1F7
:10098000022311342246F0BC00F02FB901231034A9
:10099000F8E770B504460D4621461068FFF752FE91
:1009A000024629462046BDE870400023C6E7D21D16
:1009B00022F00703D3E90023C0E70368126843F07D
:1009C000200303600823C3610023B7E79866000093
:1009D0002DE9F05F894604464FF0000ADFF874B154
:1009E000FB44C0F820A02046E1688847002874D066
:1009F000252806D0D4E901219047206A401C2062B6
:100A0000F1E700265F462046E16888472028054632
:100A100007DB312D05D2781910F8200C08B10643F8
:100A2000F1E7B00701D526F00406C4F81CA00027A2
:100A3000C4F818A02A2D09D0284601F0FBFE38B3CF
:100A400004EB8708303DC8F8185019E059F8041B2A
:100A5000204604EB87029161E1688847012F054633
:100A600018D1E069002820DA26F020061DE0D8F829
:100A7000180000EB800005EB40003038C8F8180083
:100A80002046E1688847054601F0D4FE0028EED1F3
:100A9000012F0AD02E2D08D12046E16888477F1CFF
:100AA0000546022F46F02006C4DBA069002803DAC1
:100AB000404246F00106A061F00701D026F0100682
:100AC0006C2D0BD0682D09D04C2D39D06A2D35D026
:100AD000742D35D07A2D33D016E038E0E1682F46FA
:100AE00020468847B842054609D16C2F26D04FF4DE
:100AF0008060E168064320468847054604E06C2F85
:100B00001AD04FF4807006430DB3A5F141001928A7
:100B100002D8203546F400664A462946204626601B
:100B20004E46FFF795FB80B101280BD0F61D26F04D
:100B3000070000F1080956E74020E4E78020D8E7E5
:100B40000020D6E706F104094DE7284652E7206A5F
:100B5000BDE8F09F2866000000487047000A0020AA
:100B600030B5B0F10A024FEA900E71F100034EEA7F
:100B7000817EB0EB0E0061EB91014FEA101E4EEA50
:100B8000017E10EB0E0041EB11114FEA102E4EEAE0
:100B9000016E10EB0E0041EB11214FEA104E4EEAB0
:100BA000014E10EB0E0041EB1141401841F10001E4
:100BB0004FEAD00040EA41704FEAD10110EB8005C6
:100BC0004FEA810444EA907444EB01046D1944EB4C
:100BD0000404521BA3414FF0000348BF0A3200D562
:100BE00030BD401C41F1000130BD2DE9F0470D46FC
:100BF00099469246044600F124080168880604D507
:100C0000E06921F01001216000E00120A84201DD2F
:100C1000471B00E00027A1697A1902EB0900081AB6
:100C2000A0612078C00602D42046FFF7DBFC002636
:100C300008E0D4E901211AF806009047206A401C18
:100C4000761C20624E45F4DB2078C0060AD520468B
:100C5000FFF7C8FC06E0D4E9012130209047206A64
:100C6000401C2062381EA7F10107F4DC07E0D4E93C
:100C7000012118F805009047206A401C2062281EB8
:100C8000A5F10105F3DC2046FFF7C2FC2078000641
:100C900002D50220BDE8F0870120FBE770472DE96F
:100CA000FF4F0C461E464FF0FF378BB0D2E90001D4
:100CB000DDF860800A908A46C1F30A5505B93D46C1
:100CC000002108464FF00000BAF1000F00F4400088
:100CD00005DA00EB80004FF4400101EA50004FEAD2
:100CE0009059B9F1010F00DDB9460A9850EA4A005F
:100CF0000ED044F61050A5F2FF3545432F14B8F13D
:100D0000000F1ED07542291E1EDDC9F100021CE035
:100D1000B8F1010F4FF0000001D0302103E0F243A1
:100D200005E02154401CB042FBDB3046002200218C
:100D300021540B99C1F80880C1E900200FB0BDE82B
:100D4000F08FBD1B6D1CDEE74A4600DA694206A83B
:100D500000F0F4FB06AB93E8070003AB83E8070061
:100D600050460A9900F0ADFC8DE80700A0F5005050
:100D70001F3800900398002D0ADD42F21F014A46F9
:100D80000844002303A90390684600F016FF09E019
:100D9000A0F500504A461F38002303A90390684677
:100DA00000F020FF8DE807000004000C03D04FF096
:100DB000FF30410800E01046B8F1000F03D00022D8
:100DC000009215461EE0751E05D4FFF7C9FE3032AD
:100DD00062556D1EF9D5B3460122084302D00022A8
:100DE0007F1C04E02078302801D100227F1E002AD9
:100DF000099784D01DE0112D07DAFFF7B1FE3032DC
:100E000062556D1C50EA0102F5D1084302D00098EA
:100E1000C8B10EE00021681E05E0235C625C6354EB
:100E20002254401E491C8142F7DBAB46A81B401EE2
:100E30000990002004F80B000B98099AC0F808806C
:100E4000C0E9002B7AE711264FF0000857E72DE99B
:100E5000F04F88460446D21D22F0070191B0D1E937
:100E60000001CDE90A0101F0FCF902460B98C00F20
:100E700001D02D2007E02068810701D52B2002E05A
:100E8000202101EAC000032A099001D0072A05DBCE
:100E900003464146204600F011FB0BE12078800616
:100EA00001D5E06900E00620B8F1650F814606D063
:100EB000B8F1660F18D0B8F1670F70D131E000209B
:100EC000B9F1110F009001DB112301E009F10103D9
:100ED0000AAA01A90CA8FFF7E2FEDDE90C700026C2
:100EE00009F10105834647E001204B4600904FF091
:100EF00000470AAA01A90CA8FFF7D1FEDDE90DB051
:100F00000C995D46002610B909F101000D18B9EBE6
:100F1000050003D4C0F1FF3609F10105A5EB090076
:100F20002BE0B9F1010F01DA4FF001090020B9F10E
:100F3000110F0090484601DD112300E003460AAA84
:100F400001A90CA8FFF7ABFEDDE90C704D460026A9
:100F50008346207800070AD4AB4500DA5D4601A835
:100F6000012D04DD411911F8011C302907D04F452E
:100F700002DA17F1040F04DA012082460FE06D1E39
:100F8000EEE7002F02DCED1B3E4403E0781CA84294
:100F900000DD7D1CB81B00F1010A4FF000472078EE
:100FA000000703D4AA4501DB4FF0FF3A0021B7F157
:100FB000004F0DF143088DF8431024D002202B235D
:100FC000002F01DA7F422D230A21021EA0F1010029
:100FD00000DC5FB197FBF1FC97FBF1F201FB1C7C9D
:100FE00017460CF1300C08F801CDEEE7A8F101002E
:100FF00003702188090501D5452100E06521A0F194
:10100000010800F8011C09980FA9A1EB0807FF1DB2
:1010100000B10120411901EBEA70A1693844081AB6
:10102000401EA0612078C00602D42046FFF7DAFAFD
:10103000099828B1D4E901219047206A401C206218
:101040002078C00622D52046FFF7CCFA1EE0002EFD
:1010500004DBB34502DD01A8805D00E03020D4E967
:1010600001219047206A401C2062761CAAF10100F1
:101070005FEA000A0AD100F01DFAC0680168405C0E
:10108000D4E901219047206A401C2062281EA5F166
:101090000105DCDC07E0D4E9012118F8010B9047D9
:1010A000206A401C2062381EA7F10107F3DC2046AD
:1010B000FFF7AEFA032011B041E600002DE9F04F32
:1010C00004460D46D21D22F0070089B0D0E90097F2
:1010D0004846394601F0C5F80246F80F01D02D23E5
:1010E00007E02068810701D52B2302E0202101EAD7
:1010F000C0038DF820300BB1012000E00020032A4E
:10110000824601D0072A04DB2946204600F0D6F9A2
:101110003FE12078800601D40D2500E0E569C7F3A2
:101120000A560D2D49DA00214FEA175B08464FF0A9
:101130000000002F00F4400007DA00EB80004FF4BD
:10114000400100EBD07001EA60008115012901DD4A
:101150004FF0FF3100224FEA850CBCF1180F06D387
:101160001346ACF118004FF08052C24003E04FF438
:10117000801323FA0CF30CF10C0CBCF1200F04D3F8
:10118000ACF1200C09FA0CF001E007FA0CF0002990
:101190004FF0004801DD18B90FE00ED140450CD3E7
:1011A00019EB02095F4121B9404502D19F4329EA69
:1011B0000209BBEB175F00D0761C2088000502D522
:1011C0007B48784402E07A487844193808AA3023EA
:1011D00002F80A30037C0AF10101002E0AF1020A2A
:1011E00053546A4602DC4FF0300101E04FF0310108
:1011F0004FF001088DF8001002D0A6F2FF3603E090
:1012000059EA470100D06B4E002D02DC2178090716
:1012100004D54FF002082E218DF80110C44600219C
:101220000BE0C7F303433F01C35C491C6D1E02F88A
:101230000830052908F1010801DA002DF1DC002150
:101240000CE000EB1973491C1B786D1E082902F88D
:1012500008304FEA091908F1010801DA002DF0DC25
:1012600021688B0602D516E0A8F10108E04505DDEE
:1012700002EB080313F8013C302BF5D0B8F1000F56
:1012800009DD02EB080313F8013C2E2B03D10907FB
:1012900001D4A8F10108002D05DD3E2102F8081057
:1012A0006D1E08F10108407C002E02F8080008F1CC
:1012B000010804DA2D20764202F8080002E02B2013
:1012C00002F808000A214FF47A70864208F10108FA
:1012D0000BDB96FBF0F3303302F8083096FBF0F3AB
:1012E00008F1010800FB136601E0642E0CDB6420AA
:1012F00096FBF0F3303302F8083096FBF0F308F178
:10130000010800FB136601E00A2E06DB96FBF1F0F4
:10131000303002F8080008F1010896FBF1F001FBFB
:101320001060303002F80800A16908F1010808EBEC
:10133000050202EB0A00081AA0612078C00602D458
:101340002046FFF74FF9216A08AE01EB0A00206240
:1013500004E0D4E9012116F8010B9047BAF1010A23
:10136000F7D22078C00602D52046FFF73BF96E463B
:1013700009E016F8010B3E280FD0D4E9012190476F
:10138000206A401C2062B8F10108F2D22046FFF723
:101390003FF909B00320BDE8F08F206A284420629D
:1013A00003E0D4E90121302090476D1EEBD3F8E72C
:1013B0008D5E000002FCFFFF10B5436913B1AFF36F
:1013C000008001E0FFF747F9012010BD127800F11D
:1013D00024010A7000224A700122EDE711684FF0E3
:1013E000FF32E9E710B5436913B1AFF3008001E0C4
:1013F000FFF7D0F9012010BD128800F1240182848A
:101400000022C2840122EDE711684FF0FF32E9E7C4
:1014100070B516460C46054600F044F8036893F88C
:101420000101012806D0FF2C0FD8185D68B10120FA
:101430002C7070BDD3F807013246214603F2071322
:1014400003442846BDE8704018474FF0FF3070BD98
:1014500000487047000A00207546FFF7F9FFAE46C6
:1014600005006946534620F00700854618B020B5B0
:10147000FEF768FFBDE820404FF000064FF0000780
:101480004FF000084FF0000B21F00701AC46ACE82C
:10149000C009ACE8C009ACE8C009ACE8C0098D4699
:1014A0007047000010B500F005F8001D10BD00BF2A
:1014B0007958000000487047200A00202DE9F041CB
:1014C0001F46044603260168072A01F4006004DB76
:1014D00008B116A505E016A503E008B115A500E0C2
:1014E00015A521F010002060A069C01EA0610FB1F9
:1014F000401EA0612046FFF775F84FB1D4E90121E5
:1015000038469047206A401C2062C01C206206E0DA
:10151000206AFAE7D4E9012115F8010B9047761EFD
:10152000F8D22046FFF774F8BDE8F0814E414E0036
:101530006E616E00494E4600696E66002DE9F04707
:10154000814616468AB0354878440DC88DE80D00AE
:1015500032487844801C03AC0DC884E80D0041F685
:101560009B300844372190FBF1F290FBF1F5A5F197
:10157000800501FB12041B3C02D56442012000E0FF
:101580000020DFF898A080460027FA44AAF1BE0A9E
:101590000EE0E0070AD03246684607EB4701012318
:1015A0000AEB810100F01EFB8DE8070064107F1C30
:1015B000002CEED1194F7F44AE3F19E0E80715D05B
:1015C00007EB04100DF1180A90E80E008AE80E00EF
:1015D000C068F04201D1981908903246012306A94B
:1015E00003A800F0FFFA03AB83E807006D10641C4A
:1015F000002DE3D14FF0010332466946B8F1000FE8
:1016000003A802D000F0D9FA01E000F0EBFAC9E932
:101610000001C9F808200AB0BDE8F087985B000017
:1016200010B50446AFF300802046BDE81040FEF739
:1016300074BE00004FF0013C50F8042B51F8043BFD
:101640009A4221D1A2EB0C03934313EACC1317D196
:1016500050F8042B51F8043B9A4215D1A2EB0C032D
:10166000934313EACC130BD150F8042B51F8043BED
:101670009A4209D1A2EB0C03934313EACC13DBD0BB
:101680004FF00000704700BFD01A01BAB1FA81F1E3
:1016900001F0180122FA01F0CB40C1F12001DBB2C8
:1016A000C0B2C01A2CFA01F3D11A914311EAC31146
:1016B000E6D1704701491820ABBEFEE726000200C4
:1016C00070475FEA400C08BF91F0000F4FEA8C238F
:1016D0004FEAC12243EA51514FEA1C5018BF00F5AE
:1016E000F0404FEA300018BF41F000415FEA6C5C07
:1016F00000F02980BCF1FF3F08BF40F080407047F8
:10170000130C06BF12044FF0100C4FF0000C130E18
:1017100004BF12020CF1080C130F04BF12010CF1EC
:10172000040C930F04BF92000CF1020CD30F04BF02
:1017300052000CF1010C11464FF00002A0F11F0005
:10174000A0EB0C00704711F0004F08BF704731F05C
:1017500000413FF4D5AF0B0C06BF09044FF0100C4D
:101760004FF0000C0B0E04BF09020CF1080C0B0F1C
:1017700004BF09010CF1040C8B0F04BF89000CF1AC
:10178000020CCB0F04BF49000CF1010CCCF120037B
:10179000A0EB0C0022FA03F302FA0CF241EA030177
:1017A00000F10100704720F07F4C80EA030023F035
:1017B0007F47ACEB070303F57C5300F0004003F1D7
:1017C000FF032DE980494FEA154B09B44FEA144352
:1017D00025EA0B4E24EA03480FF2042606EB1327F2
:1017E00049083E785FEA320203FB0667C7F5000747
:1017F00007FB06F64FEA54374FEAD64606F10206D3
:1018000007FB066CCCF1005C4FEA1C472CEA074C46
:1018100007FB06F40CFB06F504EB15464FEA96169B
:1018200034BF00204FF000404FEAD13706FB07FCE1
:101830004FEA1C4C0CFB0BF7D21B03FB0CF761EBC4
:1018400007010CFB0EF7B0EB074072EB17420CFBE5
:1018500008F734BFA2EB0742B2EB074261EB174136
:101860004FEA0C444FEA910706FB07FC4FEA1C4C79
:101870000CFB0BF7B0EBC74072EB573203FB0CF7D6
:1018800034BFA2EBC742B2EBC74261EB57310CFB4E
:101890000EF7B0EBC70072EB57720CFB08F734BFC2
:1018A000A2EBC702B2EBC70261EB5771039F4FEA8D
:1018B000816141EA921104EBCC044FEAD1374FEA3F
:1018C000826206FB07FC42EA90124FEA80604FEA10
:1018D0001C4C0CFB0BF7D21B03FB0CF761EB070155
:1018E0000CFB0EF7B0EB074072EB17420CFB08F74E
:1018F00034BFA2EB0742B2EB074261EB17414FEA5C
:101900008C554FEA910704EB9C2406FB07FC4FEA39
:101910001C4C0CFB0BF7B0EBC74072EB573203FBD0
:101920000CF734BFA2EBC742B2EBC74261EB5731B1
:101930000CFB0EF7B0EBC70072EB57720CFB08F70D
:1019400034BFA2EBC702B2EBC70261EB577115EBD4
:101950004C254FEA816141EA92114FEA82624FEAD7
:10196000D13742EA901206FB07FC44F100044FEA2B
:1019700080604FEA1C4C0CFB0BF7D21B03FB0CF7EF
:1019800061EB07010CFB0EF7B0EB074072EB17425F
:101990000CFB08F734BFA2EB0742B2EB074261EB46
:1019A000174115EB1C154FEA813141EA92414FEA8C
:1019B000823242EA90424FEA80304FEA0C7644F19C
:1019C000000448EA03434EEA0B484FF0000EB2EB26
:1019D000080C71EB030724BF624639464EEB0E0E2E
:1019E0004FF0000B0018524149414BEB0B0BB2EB8F
:1019F000080C71EB03077BF1000B24BF62463946EC
:101A00004EEB0E0E4FF0000B0018524149414BEBCC
:101A10000B0BB2EB080C71EB03077BF1000B24BF3F
:101A2000624639464EEB0E0E51EA020718BF46F0E9
:101A3000010616EB0E7655F1000254F1000103D5B4
:101A4000BDE88901BDE80088BDE88901BDE800481E
:101A5000B619524141EB0101A3F1010370478080A7
:101A60007F7E7D7C7B7A79787776767574737271F8
:101A700071706F6E6E6D6C6C6B6A6A6968686766B0
:101A800066656464636362616160605F5F5E5E5D42
:101A90005D5C5C5B5B5A5A595958585757565655B6
:101AA00055555454535352525251515050504F4F18
:101AB0004F4E4E4D4D4D4C4C4C4B4B4B4A4A4A4968
:101AC00049494848484747474746464645454544AB
:101AD0004444444343434342424242414141002B38
:101AE0009C4630D477002BD01CB54FEA370703B49F
:101AF0004FF010004FF01001BAF1000F06D0BCF10A
:101B0000000FDCBF40F0080040F008014FF000007B
:101B10000FBCBDE810400BF1010BBBF1010F08BF7A
:101B20005FEA170722BF12F1010211F101014FF024
:101B3000004143F1000300F0004043EA0000704719
:101B4000F9D35708D0E746EA064613F1400F4FEAAB
:101B500016461FDD13F1200FDFBF16430A46002192
:101B600020335B42BED0C3F1200746EA064602FAA4
:101B700007F74FEA164646EA0706C3F1200722FA9E
:101B800003F201FA07F721FA03F14FF0000342EAEA
:101B90000702A7E746EA020646EA06464FEA164665
:101BA00046EA0106BCBF46EA0646360C4FF0000383
:101BB0004FF000024FF0000194E72DE9804C9A4667
:101BC000934670B491E8380007C831EA400C48BF2A
:101BD00034EA430C03D5FFF7E6FDFFF780FFF0BCC6
:101BE000BDE8008C2DE9804C9A46934670B491E88C
:101BF000380007C810F0804F08BF13F0804F03D1A2
:101C000000F005F8FFF76BFFF0BCBDE8008C20F09A
:101C10007F4780EA030023F07F4C07EB0C03A3F51A
:101C20007C5300F00040A3F1FE0392F0000F00F09F
:101C3000B38095F0000F00F077802DE901494FEA5D
:101C400011404FEA144621EA004800FB06FC24EA52
:101C5000064708FB06F607FB08F800FB07F718EB3A
:101C600006484CEB164C4FEA124B18EB07484FEA6C
:101C700015464CEB174022EA0B4E0BFB06FC25EAFF
:101C800006470EFB06F607FB0EFE0BFB07F71EEBE7
:101C9000064E4CEB164C4FF000061EEB074E4CEB7D
:101CA000174B18EB0B0840F1000018EB0E0B58EB2C
:101CB000000840F100008F1A4FF000013CBFC943FB
:101CC000661B14BFB5EB040C00213CBFC943F61BD7
:101CD0004FEA17444EEA8E0E27EA04454FEA1C47A6
:101CE00004FB07622CEA074C05FB07F70CFB05F623
:101CF00004FB0CFC16EB074642EB174216EB0C46B6
:101D000042EB1C421BEB060658EB0202414146EA3D
:101D10009E0601D5BDE80189B619524141EB01018A
:101D2000A3F10103BDE801894FEA14454FEA1147C9
:101D300024EA054621EA074C05FB07F406FB07F7F2
:101D40000CFB06F105FB0CFC11EB074144EB1744BF
:101D50004FEA124711EB0C4144EB1C4422EA074CBA
:101D600005FB07F206FB07F70CFB06F605FB0CFC70
:101D700016EB074642EB174216EB0C4642EB1C45AE
:101D80006A1854F1000148BF7047B619524141EB3F
:101D90000101A3F10103704795F0000F37D04FEA1E
:101DA00011424FEA144721EA024624EA074C02FB9B
:101DB00007F106FB07F70CFB06F402FB0CFC14EB27
:101DC000074441EB17414FEA154714EB0C4441EB34
:101DD0001C4125EA074C02FB07F506FB07F70CFB45
:101DE00006F602FB0CFC16EB074645EB174516EB17
:101DF0000C4645EB1C42121951F1000148BF7047D7
:101E0000B619524141EB0101A3F1010370474FEABA
:101E100014454FEA114724EA054621EA074C05FB21
:101E200007F106FB07F70CFB06F24FF0000605FB77
:101E30000CFC12EB074241EB174112EB0C4251EB49
:101E40001C4148BF7047921841EB0101A3F1010307
:101E50007047000010B50421054800F09AFD30B12C
:101E6000034800F003FF0421014800F07CFD10BD91
:101E70000021014000BFFEE710B54FF480710F480C
:101E800001F02AF820B14FF480710C4801F015F8E8
:101E900002210A4801F020F818B10221074801F098
:101EA0000CF84FF48061054801F016F820B14FF4AA
:101EB0008061024801F001F810BD0000006400409C
:101EC00000B595B08021144801F006F838B18021A2
:101ED000114800F0F2FF69460F4801F0B5F81021F3
:101EE0000D4800F0F9FF18B110210B4800F0E5FF94
:101EF0002021094800F0F0FF18B12021064800F029
:101F0000DCFF4021044800F0E7FF18B140210248FF
:101F100000F0D3FF15B000BD0064004010B502F022
:101F200023FC10BD704700BFFEE7000030B502463D
:101F30000023002405E0105D5840084D2B5C601C18
:101F4000C4B2481EA042F6DC83F05503105C9842F0
:101F500001D1012030BD0020FCE70000300000204E
:101F60007CB5044600250020019003230122694628
:101F700001A800F00FF803216846FFF7D7FF0546D8
:101F80009DF801009DF8001040EA012020802846BD
:101F90007CBD00002DE9F04105460E4617469846E7
:101FA00040210E4802F048FB002405E0287803F0A9
:101FB000A9FB6D1C601CC4B2BC42F7DB002405E029
:101FC00003F064FB3070761C601CC4B24445F7DB40
:101FD0004021024802F032FBBDE8F08100040240DB
:101FE00010B504460C48047000200C4908800C49C8
:101FF00008800C4908800C4908700C4908600C499D
:102000000860012202210B4801F031FC0122082165
:10201000084801F02CFC10BD490100205C010020A3
:102020005E010020600100206201002064010020A8
:102030006801002030600240014603480160034807
:10204000014A506010467047340100207C6F000840
:1020500010B504460021204600F05CF8204600F050
:1020600004F80A2000F032F810BD10B5044694F8C8
:10207000280000B110BD0021204600F04BF8A188D7
:102080000022206800F028F8012084F8280000BF12
:10209000F0E710B50446204600F005F8012120467F
:1020A00000F038F810BD10B5044694F8280000B9C7
:1020B00010BDA1880122206800F00EF8012000F078
:1020C00005F8002084F8280000BFF1E710B50446A9
:1020D000204601F0FDFB10BD70B504460E461546C6
:1020E00004B970BD25B13146204602F0A7FA03E0DD
:1020F0003146204602F0A0FA00BFF2E770B5044670
:102100000D46282229462046FEF705FA2046FFF70D
:10211000ACFF70BD70B505460C462246002128462E
:1021200000F00BF822460121284600F006F822466E
:102130000221284600F001F870BD2DE9F041044667
:102140000F46904627B1012F05D0022F09D105E097
:10215000A568A68907E02569A68A04E0A569A68B7B
:1021600001E0BDE8F08100BF424631462846FFF756
:10217000B3FF00BFF5E700BFFEE77047F0B50346C9
:102180000C4603F00701C1F10700042801D904201F
:1021900001E0C1F107000646081D072801D2002012
:1021A00000E0C81E05460120B040401E2040A84067
:1021B0000127AF407F1E17403843F0BD704770477E
:1021C00010B504F0B9FB10BD2048006840F4700061
:1021D0001E4908601E48006820F00100401C1C4990
:1021E000086000BF1A480068C0F340000028F9D01A
:1021F00017480830006820F00300154908310860CE
:1022000000BF134808300068C0F381000028F8D1EF
:102210004FF080400E49083108600D4800680D49B4
:1022200008400B4908600C48091D08604FF47120F4
:102230000749A03108604FF41F0005490C310860C0
:102240004FF00060014980390860704788ED00E078
:1022500000380240FFFFF2FE02300300704700BF6B
:10226000FEE703B401984100009850EAC12018BF6E
:1022700004204A0D18BF40F0010040F2FF72B2EB9B
:10228000515F08BF40F00200012808BF052002B0DE
:1022900070474100080218BF04200A0E18BF40F022
:1022A00001004FF07F4232EA010108BF40F0020016
:1022B000012808BF0520704702480068C0F30220CB
:1022C000704700000CED00E010B5002804DB0A07A1
:1022D000130E054A135406E00A07140E034A00F0D1
:1022E0000F031B1FD45410BD00E400E018ED00E004
:1022F00010EE101A08B5444A6846B2EB410F28D9CF
:102300004FF0E640B0EB410F94BF00204FF0FF309C
:1023100000900098002861DB60EE000A10F0010FC9
:1023200045D010F0020FDFED391A9FED391A00EE9B
:10233000E11ADFED381A40EE811A21EEA01AF0EE14
:10234000400A40EE010A08BFF1EE600AB0EE600AF2
:1023500008BD314B21F0004293423CD911F0004FAF
:10236000DFED2E0A20EE201ADFED2D0A19BF31EE27
:10237000601A71EE200A31EE201A71EE600ABDEE8D
:10238000E01A11EE100A9FED271A00F0030000EE8C
:10239000C10A9FED251A009000EEC10A9FED231A95
:1023A00000EEC10A9FED221A00EEC10AB1E79FEDCF
:1023B000211A9FED210A10F0020F00EE810A9FED15
:1023C0001F1A00EE801AB7EE000A00EE810A18BF4D
:1023D000B1EE400A08BD00F083F99AE710EE100A4A
:1023E0004000B0F17F4F3CBFB7EE000A08BD07D1F7
:1023F0004FF00100FEF7F0F8BDE8084000F060B9CA
:10240000BDE8084000F059B9B61F927E336D4C39D3
:10241000DA82083CA0AA2ABE490E494683F9223F27
:102420000000004B0000C93F00A0FD390020A2338E
:102430001A61342CB93AB2BACA9F2A3DDDFFFFBEF9
:1024400010B52DED028BF0EE408A18EE900AB0EE3A
:10245000608A20F00040C0F1FF40C00F07D118EEA5
:10246000100A20F00040C0F1FF40C00F2BD018EE42
:10247000101A18EE900A04F0B9FC00EE100A10EEE3
:10248000100A6FEAD05010F0FF0F04BFBDEC028BB2
:1024900010BD18EE900A00F0004110EE100A00F096
:1024A0000040814204BFBDEC028B10BD18EE101A33
:1024B00010EE100ABDEC028B61F31E0000EE900AD4
:1024C00030EE600A10BD18EE900A4FF07F41B1EB7C
:1024D000400F1CBF18EE100A5FEA4000C7D1012070
:1024E000FEF77AF8BDEC028BBDE8104000F0E8B8CA
:1024F00000B510EE101A2DED028B81B0524A6846DD
:10250000B2EB410F2ED94FF0E640B0EB410F94BF34
:1025100000204FF0FF3000900098B0EE408A002875
:102520006ADB10F0010F4BD068EE080A9FED471AE6
:102530009FED470A00EE810A9FED461A10F0020F48
:1025400000EE801AB7EE000A00EE810A02BF01B069
:10255000BDEC028B00BD00BF01B0B1EE400ABDEC86
:10256000028B00BD3C4B21F00042934241D911F057
:10257000004FDFED3A0A20EE201ADFED390A19BFCD
:1025800031EE601A71EE200A31EE201A71EE600A07
:10259000BDEEE01A11EE100A9FED321A00F00300B2
:1025A00000EEC10A9FED301A009000EEC10A9FEDC7
:1025B0002F1A00EEC10A9FED2E1A00EEC10AABE7FA
:1025C00028EE080A9FED2B1ADFED2B0A10F0020F00
:1025D00040EE410A9FED291A00EE201A61EE000A32
:1025E000B0EE480A08EE200AB6D101B0BDEC028B6D
:1025F00000BD00F075F88FE718EE100A4000B0F14A
:102600007F4F0DD218EE100AFFF743FE042808BFD3
:1026100000F05EF8B0EE480A01B0BDEC028B00BDE0
:1026200009D10120FDF7D8FF01B0BDEC028B5DF8A8
:1026300004EB00F045B801B0B0EE480ABDEC028BE7
:102640005DF804EB00F039B8B61F927EB93AB2BA21
:10265000CA9F2A3DDDFFFFBE490E494683F9223F4E
:102660000000004B0000C93F00A0FD390020A2334C
:102670001A61342C336D4C39DA82083CA0AA2ABE88
:1026800010B52DED028BB1EEC08A18EE100A20F0C5
:102690000040C0F1FF40C00F0AD010EE100A20F039
:1026A0000040C0F1FF40C00F04BF0120FDF794FFC0
:1026B000B0EE480ABDEC028B10BD30EE000A704748
:1026C000DFED020A80EEA00A704700000000000063
:1026D0009FED020A20EE000A704700000000001083
:1026E0002DE9F0014FF07F42B2EB410F9FBF4FF059
:1026F000FF310160BDE8F00170474FF0004242EA4F
:102700000123C1F3C752783A551112F01F0C434C04
:10271000CCF120067C44C1F3C752A2F178024FEA03
:10272000621204EB820254F8254008BFD2E9015638
:1027300012D0556804FA0CF425FA06F73C43976862
:1027400005FA0CF527FA06F8D26807FA0CFCF240F5
:1027500045EA08054CEA0206A4FB034CA5FB03521C
:10276000A6FB03631D449D4234BF012600261319B6
:10277000334416B1934202D903E0934201D20122BD
:1027800000E00022624402F1200C9206DC0C42EAD6
:10279000443200EE102A5B03DFED210AF8EEC01A86
:1027A00000EE103A4FEA9C1C11F0004FB8EE400AC0
:1027B000C0F800C020EE201A00EE105ADFED190A12
:1027C000B8EE400A20EE200A71EE810A70EE800A0F
:1027D00010EE902A02F500626FF30B0200EE902AD1
:1027E00070EEE11A31EEC11ADFED101A30EE411A27
:1027F0009FED0D0A20EE800A01EE210A9FED0C1AD2
:1028000000EE810A04BFBDE8F0017047CCF18051B1
:102810000160BDE8F001B1EE400A704708490000D0
:10282000000000360000802C22AAFD29DB0FC92FF2
:102830000000C92F30380A2801D20120704700203B
:1028400070470B78426863F3082242604B788268D5
:1028500063F3410282608B78826863F3CB228260EB
:10286000CA78521EC36A62F31753C36270470021CD
:102870000170417081700121C1707047816821F041
:10288000080108318160704701468868C0F3C000C4
:1028900008B1012070470020FCE7816821F00401A5
:1028A000091D8160704701468868C0F3800008B147
:1028B000012070470020FCE702782249096862F392
:1028C0000401204A116042781F49D1F8041362F3D1
:1028D00013411C4A1160817801F0040149B111468D
:1028E000096821F0805101F18051174AC2F80413A0
:1028F00006E01449096821F08051134AC2F8041314
:102900008178104A126861F38F320E490A60C278EA
:102910000D49D1F8041362F34D310A4A116002796E
:102920000949D1F8041362F30B21064A1160427978
:102930000549D1F8041362F3D751034AC2F80413CE
:102940007047000004230140002001400021017075
:1029500041708170C170017141717047826861F38B
:10296000000282607047CA4302607047024600203E
:1029700013680B4003B900E001207047012A03D11E
:1029800043680B43436003E012B943688B434360E1
:1029900070470246002004291ED004DC012907D01C
:1029A000022937D10EE0202920D0802932D127E01A
:1029B000136803F0010323B15368C3F3801303B119
:1029C000012028E01368C3F3400323B15368C3F325
:1029D000401303B101201EE01368C3F3800323B149
:1029E0005368C3F3C01303B1012014E01368C3F3A9
:1029F000401323B15368C3F3806303B101200AE09D
:102A00001368C3F3C01323B15368C3F3C06303B1A6
:102A1000012000E000BF00BF70474A1E836B62F3D5
:102A200015538363704770B500241B296ED2DFE80D
:102A300001F00E13181D22272C31363B40454A87E2
:102A40004F54595E8763686E73787D87820005698D
:102A500063F30205056174E0056963F3C50505616B
:102A60006FE0056963F3881505616AE0056963F342
:102A70004B25056165E0056963F30E35056160E08E
:102A8000056963F3D13505615BE0056963F394453E
:102A9000056156E0056963F35755056151E0056925
:102AA00063F31A6505614CE0056963F3DD65056153
:102AB00047E0C56863F30205C56042E0C56863F39B
:102AC000C505C5603DE0C56863F38815C56038E09D
:102AD000C56863F30E35C56033E0C56863F3D1356F
:102AE000C5602EE0C56863F39445C56029E0C568FC
:102AF00063F35755C56024E0C56863F3DD65C560C1
:102B00001FE0056D63F3020505651AE018E0056D29
:102B100063F3C505056514E0056D63F38815056568
:102B20000FE0056D63F34B2505650AE0056D63F362
:102B30000E35056505E0056D63F39445056500E018
:102B400000BF00BF856BC5F30156D51CAD1BACB2F1
:102B5000012C06D0022C09D0032C0CD0042C14D14B
:102B60000EE0856B61F3040585630FE0856B61F30F
:102B7000491585630AE0856B61F38E25856305E061
:102B8000856B61F3D335856300E000BF00BF70BD86
:102B90000246002031B1012907D0022908D00329BB
:102BA0000CD108E0D36B98B209E0136C98B206E040
:102BB000536C98B203E0936C98B200E000BF00BF82
:102BC00070470F290ADD836823F4000303F500032F
:102BD0008360836861F31343836007E0836823F4B1
:102BE00000038360836861F313438360836862F347
:102BF00015538360704731B1012909D002290CD0E7
:102C0000032914D10EE0436962F30B0343610FE023
:102C1000836962F30B0383610AE0C36962F30B0308
:102C2000C36105E0036A62F30B03036200E000BFC7
:102C300000BF704710B50121034800F0FDFB0021E3
:102C4000014800F0F9FB10BD08002400426861F360
:102C500019624260704702464B1E22EA0300704729
:102C60000246481E10444B1E9843704770B50446F8
:102C700025460348854201D101F0C2F870BD00002D
:102C80000021014070B5054605B970BD05F1E404A9
:102C900000210C48FFF77CFFA4F8700001210948CF
:102CA000FFF776FFA4F8580002210648FFF770FFEF
:102CB0005A21085303210348FFF76AFF5C21085398
:102CC00000BFE2E70021014010B5044600F052FCCD
:102CD00010BD012101700C2141800421017141705E
:102CE0000621C180022101724171072141727047A2
:102CF0000A78521E036962F3040303614A88921E34
:102D0000436862F3080343600A79521E436862F322
:102D1000164343604A78521E436862F31E63436061
:102D20008A79921E836862F3070383600A7A521ECF
:102D3000836862F3164383604A79521E836862F3A4
:102D40001E6383604B7A026963F30F22026170474E
:102D5000C26A61F30302C2627047826A61F3D752AA
:102D6000826270470021016001714171817181723D
:102D7000C17101724172491EC16001220274427424
:102D80000F22827401228275C274027542757047E7
:102D900010B54AB101238B40446C43EA1444436CA0
:102DA00064F31F43436408E0436C1B0C01248C4014
:102DB000A343446C63F31F44446410BD30B5436CBB
:102DC00061F303034364137913B1012B0AD104E0C7
:102DD00013885B05DB08836405E0136823F0604318
:102DE000836400E000BF00BF1479C36C64F3104338
:102DF000C3645479C36C64F31453C3649479C36C8F
:102E000064F30303C364947AC36C64F31C73C364F4
:102E1000147AC36C64F39243C364D479C36C64F3CF
:102E20005143C364547AC36C64F3DB63C3644FF0EF
:102E3000FF338365137913B1012B11D108E0846D41
:102E4000958940F2FF73AB4324EA8343836508E02E
:102E5000836D6FF06044D568AC43A343836500E0A5
:102E600000BF00BF4FF0FF33C365147CC36D64F334
:102E70001043C365547CC36D64F31453C365947CE1
:102E8000C36D64F30303C365947DC36D64F31C7366
:102E9000C365147DC36D64F39243C365D47CC36D75
:102EA00064F35143C365547DC36D64F3DB63C36551
:102EB0004FF0FF330366436630BD416170472AB16E
:102EC000D0F840310B43C0F8403104E0D0F8403135
:102ED0008B43C0F84031704702460020D2F84031A1
:102EE0000B401BB153690B4003B101207047072908
:102EF00075D2DFE801F00415273B4D607500826A4A
:102F000022F040028262826A22F000428262826A79
:102F100022F020028262826A22F48042826276E09B
:102F2000826A22F0400240328262826A22F00042CB
:102F30008262826A22F020028262826A22F48042E5
:102F4000826264E0826A22F0400240328262826AD7
:102F500022F0004202F100428262826A22F02002E4
:102F60008262826A22F48042826250E0826A22F0A7
:102F700040028262826A22F000428262826A22F009
:102F8000200220328262826A22F4804282623EE023
:102F9000826A22F040028262826A22F000428262E9
:102FA000826A22F020028262826A22F4804202F562
:102FB000804282622BE0826A22F0400240328262CA
:102FC000826A22F000428262826A22F020028262D9
:102FD000826A22F4804202F58042826217E015E0A4
:102FE000826A22F0400240328262826A22F000420B
:102FF00002F100428262826A22F020028262826AC8
:1030000022F4804202F58042826200E0704700BFF5
:1030100000BFFBE7026961F31A6202617047826ACE
:1030200061F3DB6282627047026861F351420260C1
:103030007047026961F31E7202617047826A61F330
:103040009E728262704700002DE9F0430246506F85
:1030500000F00F00DFF80C9119F8008002F18004F5
:1030600001F10A05906AC0F3016010B90020BDE8C3
:10307000F083506FC0F300400871087910B1012847
:103080000CD106E0106F40F2FF7909EA9040086029
:1030900006E0106F20F06040086001E00020E6E7E5
:1030A00000BF506FC0F300504871506FC0F34040F4
:1030B000C871506FC0F380400872506FC0F3C06099
:1030C0004872506FC0F3026081F84B00506FC0F33C
:1030D000007081F84A00506F00F00F0088710023E3
:1030E00016E02078E8542088C0F30729581C05F81A
:1030F00000902068C0F30749981C05F800902068EC
:10310000000E03F1030905F80900241D181DC3B2C0
:103110004345E6DB506FC2F82401D2F828914FEA0C
:1031200019404FEAE07900EB99794FEAA909A9F132
:1031300004091FFA89F602F1800050F82600C864DD
:1031400002F1800006F1020950F82900A1F85000B0
:1031500002F12B0797F800C04CF0100038700120E6
:1031600085E70000306F0008C26A61F30712C2628F
:103170007047826A61F3C71282627047826A61F3A4
:10318000555282627047000000B50346012000F0EE
:103190002BF80548006863F3071003490860002016
:1031A00000F022F800BD0000083802400349096819
:1031B00060F38C21014A116070470000083802401A
:1031C0000349096860F34F31014A116070470000FC
:1031D000083802400349096860F30E31014A116062
:1031E00070470000A4380240012807D10749096848
:1031F00021F030013031054A116005E003490968CA
:1032000021F03001014A116070470000A4380240EB
:1032100030B9044A126861F31962024B1A6000BFA8
:1032200000BF70476838024005282BD2DFE800F065
:10323000030A11182100154A126861F30002134BAA
:103240001A6020E0114A126861F310420F4B1A60B5
:1032500019E00E4A126861F318620C4B1A6012E012
:103260000A4A7032126861F30002084B70331A6028
:1032700009E0064A7432126861F30002034B7433AA
:103280001A6000E000BF00BF704700000038024035
:103290002DE9FF5F04464FF0000AD346002003905B
:1032A0000290019000250026814600F05BF9009015
:1032B000009820B1012816D002284DD11FE03848CF
:1032C0000068C0F3803010B13648206001E0364815
:1032D00020603348001D0068C0F30249206820FACE
:1032E00009F020603BE0304820602D48001D006858
:1032F000C0F3C249206820FA09F020602FE0284876
:103300009C380068C0F38050029025489C380068C3
:10331000C0F3881A22489C38006800F00F0B204840
:103320009C380068C0F302402049085C0390029872
:1033300010B91D48019001E01B48019003980BFB58
:1033400000FC0198A0FB0A70014662460023384643
:10335000FDF70AF8206002E01348206000BF00BFBC
:103360000F4898380068C0F303151148465D20687F
:10337000F04060600A4898380068C0F382250D4824
:10338000465D6068F040E060054898380068C0F32A
:1033900042350948465D6068F040A060BDE8FF9F87
:1033A000A0380240006CDC0200127A00606F000856
:1033B000406F0008506F0008586F000810B50146B4
:1033C0000020094B03EB1142D2F8002801F01F0442
:1033D0000123A3401A4001F01F040123A3409A4295
:1033E00000D000E0012010BD0030024010B50129DE
:1033F0000FD1104B03EB1042D2F8002800F01F044D
:103400000123A3401A430B4C04EB1043C3F80028DC
:103410000EE0084B03EB1042D2F8002800F01F0426
:103420000123A3409A43034C04EB1043C3F8002844
:1034300010BD00000030024010B501290FD1104B23
:1034400003EB1042D2F8002800F01F040123A34030
:103450001A430B4C04EB1043C3F800280EE0084B52
:1034600003EB1042D2F8002800F01F040123A34010
:103470009A43034C04EB1043C3F8002810BD00002E
:103480000030024030B50B4C246860F39654094D6F
:103490002C602C46246861F38E142C602C46246822
:1034A00062F303042C602C46246863F312442C60FE
:1034B00030BD00000438024000B50120FFF794FE43
:1034C0001C48006820F00100401C1A49086000BF39
:1034D00018480068C0F340000028F9D015480830AB
:1034E000006820F0030013490831086000BF11484C
:1034F00008300068C0F381000028F8D10D4800684A
:103500000D4908400B4908604FF0804009490831D7
:1035100008600A48091F08604FF471200549A0316E
:1035200008604FF41F0003490C3108600020FFF7CA
:103530005BFE00BD00380240FFFFF2FE02300300D8
:1035400000B503460120FFF74FFE0548006863F30E
:103550000100034908600020FFF746FE00BD00009F
:103560000838024002480068C0F38100704700003C
:103570000838024010B5012280210248FFF7FEF909
:10358000002010BD0021014010B502469FED2D0A1C
:10359000F0EE400A9FED2C0AB0EE401A02B910BDC1
:1035A00002F1E401002038E092F86F31D3B901F163
:1035B000580333F8103001EE903AF8EE611A9FED9F
:1035C000212A21EE820ADFED211A70EE611A9FEDA9
:1035D0001E2A61EE821A01F1640303EB8003C3ED3E
:1035E000001A19E001F1580333F810409B1D33F81D
:1035F0001030E31A01EE903AF8EEE11A9FED112A2D
:1036000021EE820ADFED101A60EE211A01F1640347
:1036100003EB8003C3ED001A401C0328C4D3B1F8A8
:10362000703000EE103AB8EE400ADFED091A20EED5
:10363000210ADFED081A80EE212A81ED1D2A00BF44
:10364000ADE700006740533A9B6C32403333D33FC1
:103650003333534000F07F4570B5044600F0B8FFA7
:10366000064604B970BD01F0BFFF354645B1686834
:1036700030B16868006818B1D5E900021168884760
:1036800000BF012084F86D01002084F86E0184F8E9
:103690006F0105E02046FFF7F5FA204600F084F8B8
:1036A00094F86F010028F5D0354645B1686830B10F
:1036B0006868406818B1D5E900025168884700BFC2
:1036C00000BFCFE700B97047012280F86D210022CA
:1036D00080F86E2180F86F21002105E0002300F5BD
:1036E000A17222F81130491C0329F7D300BFEAE781
:1036F00000B9704790F86F211AB10022274B1A7059
:10370000F7E790F86D211AB9244A127802B9F0E768
:10371000224A127872B90122204B1A700022204BE3
:103720001A60204B1A605A609A6080F86D2101225D
:1037300080F86E2100210BE01A4A52F8213000F582
:103740009E7232F811201A44164B43F82120491C6E
:103750000329F1D3124A1268521C114B1A601A46FF
:103760001268B2F5006F16D3002109E00D4A52F835
:103770002120C2F3CF2300F5A17222F81130491C99
:103780000329F3D3002280F86E21012280F86F21F3
:103790000022024B1A7000BFABE7000010000020AF
:1037A0000C000020C401002010B504462046FFF79D
:1037B000EBFE2046FFF79CFF10BD00BF011EA0F1ED
:1037C0000100FBD17047026861F30002026070479C
:1037D0000021016041600181418101734173817366
:1037E000C17301744174704701494860704700001B
:1037F00000600240014600220448026802EA01001B
:1038000008B1012070470020FCE700000060024082
:1038100002684BF6EF731A40026002680B891A4384
:1038200002604B7C026863F30D320260CB7B02685E
:1038300063F38B2202608B7B026863F309220260D0
:103840004B7B026863F3C71202600B7B026863F371
:10385000861202600B7C026863F3451202604A899B
:10386000436842600A6882604A68C26070471AB161
:1038700003680B43036002E003688B4303607047F7
:103880000021026822F00102026000220260426010
:103890008260C2600146CAB2083A1423B2FBF3F256
:1038A00093000F229A40034B5B681A43014B5A6006
:1038B0007047000000600240D0F8002161F3000270
:1038C000C0F800217047026861F306020260704789
:1038D00010B504464FF47A7104FB01F000F002F8D1
:1038E00010BD000010B5034603B910BD12480068B2
:1038F00000F0807000B9F8E700F022F801460F48A8
:10390000006D00FB03F40A198A4206D300E000BFF1
:1039100000F016F89042FAD30BE000E000BF00F090
:103920000FF88842FAD200E000BF00F009F8904298
:10393000FAD300BFD9E70000FCED00E06C010020E5
:103940000148406870470000001000E000B5FFF734
:10395000F7FF00EE100AB8EE400A0548D0ED150A50
:1039600020EE200ABCEEC00A10EE100A00BD0000D6
:103970006C0100201348006800F0807000B17047AF
:103980001048006840F080700E49086000200E4921
:1039900048600846006840F0010008600B48006875
:1039A0000B49B0FBF1F00B490865084690ED140A8D
:1039B000B8EE400AF7EE000A80EE801A80ED151A84
:1039C00000BFDCE7FCED00E0001000E00400002098
:1039D00040420F006C01002070B506460C461546AB
:1039E0000948006828B108480068006808B104B1B7
:1039F0000DB9002070BD044800682A4621460368BE
:103A000030469847F6E700003C01002001460020C0
:103A1000704700002DE9F04104460D461646274642
:103A20000749096819B106490968096800E00021D9
:103A3000084633462A46394601F00DF9BDE8F081C3
:103A4000440100202DE9F04104460D461646274664
:103A50000749096819B106490968496800E0002169
:103A6000084633462A46394601F013F9BDE8F0818D
:103A7000440100202DE9F04780460E4615460024FB
:103A80001348006828B112480068406808B106B1C0
:103A900015B90020BDE8F08715E008EB040909F02E
:103AA0000F00C0F1100A2F1B574500D95746311996
:103AB000074800683A4643684846984708B90020D6
:103AC000E8E73C4400BFAC42E7D30120E2E7000056
:103AD0003C010020F0EE400AB0EEE00A70472DE90C
:103AE000F04106460D4615B90020BDE8F0814FF4BF
:103AF00000613046FFF7AFF8044670194FF40061DB
:103B0000FFF7AEF8074600F011F90AE0204600F092
:103B100095F8032803D000F04BF80020E5E704F502
:103B20000064BC42F2D300F043F80120DDE700005E
:103B30002DE9F04104460F46154626460EB107B161
:103B400015B90020BDE8F081B068A84201D200207C
:103B5000F8E70848006818B106480068806808B9A6
:103B60000020EFE70349306809682A468B68394628
:103B70009847E7E74401002070B504460D46032648
:103B80000A48006820F00100401C084908602580B0
:103B90004FF4801000F030F806460448006820F02A
:103BA000010002490860304670BD0000103C024030
:103BB0000348006820F080008030014908607047A9
:103BC000103C024003200B49096801F0010109B1D2
:103BD00000200EE007490968C1F3800109B1012006
:103BE00007E004490968C1F3001109B1022000E0AF
:103BF000032070470C3C024000B502460323FFF748
:103C0000E1FF034603E0FFF7DDFF0346521E0BB959
:103C1000002AF8D102B90423184600BD70B5054644
:103C20000C46164604B10EB9002070BD3246294636
:103C30002046FCF72BFC0120F7E7000030B50446D6
:103C400003250D48006820F00200801C0A49086026
:103C5000081D0460001F006820F04000403008602C
:103C60008806FFF7C9FF05460348006820F00200F8
:103C700001490860284630BD103C024070B504463A
:103C800025460649096819B104490968C96800E070
:103C900000210846294600F0C7FF70BD44010020FE
:103CA0002DE9F04104460D461646274607490968A6
:103CB00019B106490968896800E0002108463346C1
:103CC0002A46394600F0C7FFBDE8F08144010020D4
:103CD0002DE9F04104460E461746A046B8F1000F04
:103CE00002D10020BDE8F0810F49096819B10E49E1
:103CF0000968C96800E000210846414600F094FFC9
:103D000005460DB90020EDE70749096819B10649D4
:103D10000968096900E0002108463B4632464146F1
:103D200000F0B7FFDEE7000044010020024803492D
:103D3000086003480860704723016745043C02405F
:103D4000AB89EFCDF8B505460E461746002406B1FF
:103D50000FB90020F8BD05F0010008B10020F9E717
:103D6000FFF7E4FF0EE03019008800902819BDF835
:103D70000010FFF701FF032803D0FFF719FF002011
:103D8000E8E7A41CA01CB842EDD90FE0305D40F478
:103D90007F4000902819BDF80010FFF7EDFE0328C2
:103DA00003D0FFF705FF0020D4E7641CBC42EDD32D
:103DB000FFF7FEFE0120CDE710B59FED0E1ADFEDF7
:103DC0000E0AB0EE000A00F03DFB4FF42F70FFF733
:103DD0007FFD9FED081ADFED080A9FED070A00F04E
:103DE00031FB00F015F8054890ED480A80ED070A10
:103DF00010BD0000E4CB964000000000D001002080
:103E000010B500F005F800F0A9F800F0DDFA10BDDB
:103E100000B52DED088B81B06846FEF7A1F8BDF81E
:103E2000000000EE100AB8EE400ADFED460A20EE70
:103E3000200AF0EE408A4448007C30B14248007CC1
:103E400000EE100AB8EE400A01E0B7EE000AB0EE4C
:103E500040AA3D4890F91100401C10B9BFEE000A7D
:103E600001E0B7EE000AF0EE40AA374890ED050AEF
:103E7000B5EEC00AF1EE10FA02DD90ED050A01E0A0
:103E8000B7EE000AB0EE40BA2F4890ED070A68EE90
:103E90008A0AB0EE409A10EEAA9ADFED2C0AB0EE34
:103EA000490AFEF7CDFAF0EE409AF5EEC09AF1EE2F
:103EB00010FA02DBB0EE690A03E09FED240A39EE46
:103EC000800A214880ED480A214890ED000A38EE2A
:103ED000C08A00BFB0EEC80ADFED1E0AB4EEE00AE9
:103EE000F1EE10FA0DDDB5EEC08AF1EE10FA02DD4A
:103EF0004FF0FF3000E001201749096808441649D7
:103F000008609FED120AC8EE800A134890ED000A7F
:103F1000B8EEC00A70EE800A0B4890ED080A9FEDDB
:103F20000B1A10EE810A80ED4C0A90ED4C0AC0EE9F
:103F30000B0AC0ED490A0648C0ED008A01B0BDEC8D
:103F4000088B00BDA410C938D0010020DB0FC94088
:103F5000240000207CD9A0402000002000B52DEDD9
:103F6000068B83B03B48FEF78DFE3A48FFF71CFCFA
:103F7000384A92ED520AD2ED530A92ED541A02F5E4
:103F80008870011D80ED000A70EEC11A9FED322A83
:103F900061EE821AC1ED001A00BF9FED300A8DED6F
:103FA000020A9FED2E0A8DED010A104690ED448A1B
:103FB000D0ED458A90ED489AB0EE490AFEF798F99F
:103FC000F0EE409AB0EE490AFEF792FAB0EE40AA3F
:103FD00028EE290A08EE8A0A8DED020AB1EE480A97
:103FE00020EE0A0A08EEA90A8DED010A00BF9DED38
:103FF000020A1B4800F01AFD164880ED3E0A9DEDAE
:10400000010A00F51D7000F011FD124880ED3F0A15
:10401000D0ED3E0A60EEA00A90ED3F1AD0ED3F1AB7
:1040200041EE210AB0EE600AFEF72AFBDFED0D0A31
:1040300020EE200AF0EE40AAB0EE6A0A08482830C6
:1040400000F0F4FC034880ED460A03B0BDEC068B9B
:1040500000BD0000D00100203ACD133F0000000059
:104060003004002000007A4410B5B4B004464FF488
:104070003D715748FCF781FA0020554981F8CC0082
:1040800081F86C010846FFF71DFB2CB1CC222146BC
:104090004F48FCF740FA07E001A800F083FFCC226C
:1040A00001A94B48FCF737FA4948007C10B90120B8
:1040B000474908744648407C012807D0444890F995
:1040C0001100401C10B1012041494874404890ED56
:1040D000050AB5EEC00AF1EE10FA03D8B7EE000AF1
:1040E00080ED050A02213B4800F0B0F80221394872
:1040F000283000F0ABF801213648503000F0A6F827
:1041000000213448783000F0A1F8DFED330A9FED4C
:10411000330A3048A03000F04DFCDFED2F0A9FED50
:104120002F0A2C48B43000F045FCDFED2B0A9FED40
:104130002B0A2848C83000F03DFCDFED270A9FED30
:10414000270A2448DC3000F035FCDFED230A9FED20
:10415000230A2048F03000F02DFCDFED1F0A9FED10
:104160001F0A1F4800F026FCDFED1B0A9FED1B0A0B
:104170001B48143000F01EFCDFED170A9FED170AF4
:104180001748283000F016FCDFED130A9FED130AE4
:1041900013483C3000F00EFCDFED0F0A9FED0F0AD4
:1041A0000F48503000F006FCDFED0B0A9FED0B0AC4
:1041B0000B48643000F0FEFB0548FFF74DFA044859
:1041C00090F8CA0008B1FFF7F7FD34B010BD000049
:1041D000D00100204003002000409C460000FA442B
:1041E0004404002010B5134890F8CC000E281DD2CE
:1041F000DFE800F00708090A0B0C0D0E0F1011196B
:104200001A1B14E013E012E011E010E00FE00EE0E2
:104210000DE00CE00BE00748D0ED370AB0EE600A85
:1042200000F04EF803E002E001E000E000BF00BF54
:1042300010BD0000D0010020092800DB70470249B2
:1042400081F86C0100BFF9E7D001002070B5044689
:104250000D4604B970BD2946204600F003F800BFA2
:10426000F8E7000070B504460D460CB9012070BD9A
:1042700025709FED120A84ED010A9FED100A84ED6E
:10428000020A9FED0E0A84ED030A9FED0C0A84EDED
:10429000050A9FED0A0A84ED060A9FED080A84EDDF
:1042A000070A9FED060A84ED080AB6EE000A84EDBF
:1042B000090AFFF74BFB20610020D8E7000000004F
:1042C00010B52DED068BB0EE408A9FED360AF0EE6C
:1042D000409A9FED350AB0EE40AA3448D0ED000A6E
:1042E000F0EE481A9FED300AB5EEC00AF1EE10FA72
:1042F00002D8B0EE602A15E031EEE01AB4EEC01A32
:10430000F1EE10FA02DD30EE802A0BE0B1EE402A29
:10431000B4EEC21AF1EE10FA02D230EEC02A01E079
:10432000B0EE612A214880ED002A9FED210A214844
:1043300080ED000A2048007C00EE100AB8EE400A2A
:104340001A48D0ED000A60EE200A1C4890ED000AE1
:104350009FED141AF0EE408A40EE818ADFED180AD4
:10436000B0EE680AFEF76CF8B0EE409AB5EEC09A6F
:10437000F1EE10FA02DBB0EE490A03E09FED100AFD
:1043800039EE000A0D4880ED000A90ED001ADFEDCD
:104390000D0A084890ED000A00F054F8BDEC068BB9
:1043A00010BD00006F12033A0BD7233C1800002009
:1043B000CDCC4C3E14000020D00100201C00002079
:1043C000DB0FC9400000000010B5194890F86C01DF
:1043D00009282AD2DFE800F0050D1115191D212545
:1043E00028000020124981F8CC000120FFF724FFAB
:1043F0001CE00220FFF720FF18E00320FFF71CFF5E
:1044000014E00420FFF718FF10E00520FFF714FF69
:104410000CE00620FFF710FF08E00720FFF70CFF75
:1044200004E0FFF7DFFE01E000E000BF00BF10BDC9
:10443000D001002010B5024800F07AFE10BD000047
:10444000D001002000B52DED048B85B0B0EE408A80
:10445000F0EE608AF0EE419ADFED570A48EEE80A86
:10446000B0EE600AFEF70CF9B0EE409AB1EE490AE0
:10447000B4EEC08AF1EE10FA02D2B1EE490A09E0B8
:10448000B4EEC98AF1EE10FA02DDB0EE490A01E09D
:10449000B0EE480AB0EE408A03A904A8B0EE691A4B
:1044A000F0EE480AB0EE680A00F038F99DED040A13
:1044B000DDED030A8DED020A9FED401A20EE811A10
:1044C000DFED3F1A00EE211A8DED011A9FED3B1A28
:1044D00020EE811ADFED3A1A00EE611A8DED001A16
:1044E00000BF384A111F081F9DED001ADDED010ABB
:1044F0009DED020A01F014FA334890ED570AB5EE2B
:10450000C00AF1EE10FA02D29FED300A0FE02E48F9
:1045100090ED570AF7EE000AB4EEE00AF1EE10FA59
:1045200002DDB7EE000A02E0274890ED570A264860
:1045300080ED570A90ED580AB5EEC00AF1EE10FA78
:1045400002D29FED220A0FE01F4890ED580AF7EEC5
:10455000000AB4EEE00AF1EE10FA02DDB7EE000A4E
:1045600002E0194890ED580A174880ED580A90ED7E
:10457000590AB5EEC00AF1EE10FA02D29FED130A05
:104580000FE0114890ED590AF7EE000AB4EEE00A88
:10459000F1EE10FA02DDB7EE000A02E00A4890EDF3
:1045A000590A094880ED590A00F5AE7001F030F85B
:1045B00005B0BDEC048B00BD00001044D7B35D3FD7
:1045C0003ACD133F34030020D0010020000000004A
:1045D00001480068704700003001002070B50446B3
:1045E00024B9002000F022F8002070BD207820B10E
:1045F000012807D0022814D110E0002000F016F89E
:104600000020F2E7211D0848FDF778FD0648FDF778
:1046100013FD054600F00AF80020E6E76FF0010000
:10462000E3E74FF0FF30E0E7C404002001490860F1
:10463000704700003001002081627047816170473F
:104640004FF6FF71016000218171017141710121FB
:10465000C171704770B50A4600211488A3B233E0D7
:1046600003F001046CB304684E000325B540AC436D
:10467000046094794D00AC4005682C4304604468A4
:1046800001258D40AC434460446815798D402C432E
:10469000446084684E000325B540AC438460D479FF
:1046A0004D00AC4085682C438460C4684E000325EF
:1046B000B540AC43C46054794D00AC40C5682C4350
:1046C000C4605B104C1CA1B2002BC9DC70BD02465B
:1046D000002013690B408B4200D000E0012070479E
:1046E00070B51346002400224D07ED0E03FA05F4C1
:1046F000CD104DB1426A4D07EE0E0F25B540AA43CD
:1047000042EA0405456208E0026A4D07EE0E0F25F5
:10471000B540AA4342EA0405056270BD70B52DEDAF
:10472000068BB0EE408AF0EE608AB0EE419A044605
:104730000D46B0EE490AFDF7DBFDF0EE409AB0EE13
:10474000490AFDF7D5FEB0EE40AA28EE290A08EE88
:10475000CA0A84ED000A28EE0A0A08EEA90A85EDC5
:10476000000ABDEC068B70BD10B54FF40060FFF77A
:1047700041F868B100211A48FFF725F84FF480701E
:10478000FFF732F80020174908701749088010BD5C
:104790004FF40070FFF72EF800B9F8E70021104839
:1047A000FFF711F84FF48070FFF71EF800BFEFF32A
:1047B0001080044672B60D4800880B4909880844E9
:1047C000C0F309000949088000200749088005490D
:1047D000087000F021F804B962B600BFD7E7000006
:1047E0003060024062010020600100205E01002074
:1047F00007480288074801888A4205DB501AC0F53D
:104800008060401E80B27047881A401E80B2FAE76E
:104810005C0100205E01002070B51748007800B1EF
:1048200070BD1648048816480688B44200D1F7E7E0
:10483000A64202DD301B85B202E0C4F5806085B27D
:1048400005B9EDE70F48058001200B4908700021EC
:104850000D48FEF7B8FF4FF48070FEF7C5FF0B4818
:1048600002192B460A49084801F0A8FE0121064812
:10487000FEF7A9FF00BFD3E7620100205E01002020
:104880005C01002060010020306002400006002032
:10489000041001400FB430B5C1B005461848007887
:1048A000A0B946A840904FF480716846409B459A55
:1048B000FBF7D2FD044600204090002C05DDFF2CC4
:1048C00003DC2146684600F01DF814E046A840903D
:1048D0004FF480716846409B459AFBF7BDFD044646
:1048E00000204090002C05DDFF2C03DC21466846AB
:1048F00000F008F800BF00BF41B030BC5DF814FB09
:104900004901002070B505460C4604B970BD21462A
:10491000284600F003F800BFF8E700002DE9F04159
:1049200007460C4607B10CB9BDE8F081B4F5807FAD
:1049300001D94FF48074224639461948FBF7A6FD89
:1049400000BFEFF31080804672B6FFF751FF0546B7
:10495000A5420BD2601B134909680844114908603D
:1049600011480068401C104908602C4600260DE0E4
:104970000B48805D0D490E4A128888540C48008807
:10498000401CC0F309000A490880761CA642EFD3F8
:10499000FFF742FFB8F1000F00D162B600BFC3E7D6
:1049A00000050020680100206401002000060020AE
:1049B0005C010020014691B1B5EEC00AF1EE10FA9B
:1049C0000DD9F5EEC00AF1EE10FA08D9F6EE001A8C
:1049D00060EEA11AF4EEC01AF1EE10FA01D8002030
:1049E0007047F7EE001A81EEA01A81ED020AC1EDC0
:1049F000030ADFED0C1A60EE211AB7EE002AC2EEB0
:104A0000212AC1ED042AD1ED041A71EE811A81EE3A
:104A1000212A81ED002ADFED041AC1ED011A0120DF
:104A2000DEE70000DB0FC94000000000F0EE400AA6
:104A300090B190ED001AF7EE001A31EEC11AD0EDE8
:104A4000011A21EE211AD0ED001A01EEA01AB0EEE3
:104A5000410A80ED010A70479FED010AFBE7000063
:104A600000000000C6B000214FF0006000F0B2FD71
:104A700001F006FF01F066FE01F0EAFD01F068FFBB
:104A800001F0A0FD01F01AFC01F018FB01F07AFB27
:104A900001F03CFD00231A463D493E4801F08EFDE1
:104AA00001213C48FEF78FFE02F0D2F801F020FC15
:104AB00001F08EFE01F066FF02F096F802F0AEF80B
:104AC00001F050FD00231A4633493248283001F0E6
:104AD00075FD01212F482830FEF775FE0020FDF7F7
:104AE0007FFA00BF2D48007801280ADCA2202C495B
:104AF000CDE900102B482CA32CA142680120FFF720
:104B0000C9FE00BFFEF736FF1422324941A8FBF769
:104B100002FD41A9022000F0ABF90EA800F056F901
:104B20002D48FEF7D1F82C222A49143103A8FBF7AF
:104B3000F2FC03A8FFF752FD08B100BFFEE70EA884
:104B4000FFF792FA00BF1548007801280ADCD3204D
:104B50001349CDE90010134813A320A14268012096
:104B6000FFF798FE00BF12E0FFF764FC00BF0B48A0
:104B7000007801280ADCDA200949CDE9001009484B
:104B800009A322A142680120FFF784FE00BFEBE7E2
:104B90004C20014008600240041001404801002000
:104BA000E86E00084C0100204D4300005B25735D5A
:104BB000205B25735D2025733A25643A204C6F678E
:104BC00067657220696E697469616C697A65640DE4
:104BD0000A000000F06E0008D00100205B25735D24
:104BE000205B25735D2025733A25643A204D6F7450
:104BF0006F7220636F6E74726F6C6C657220696E79
:104C0000697469616C697A65640D0A005B25735D7E
:104C1000205B25735D2025733A25643A2074657303
:104C200074210D0A000000002DE9F04105460C46F4
:104C300005B114B90020BDE8F081A1682068A8473B
:104C40000746D4E90101A847064607B90EB101207D
:104C5000F1E70020EFE72DE9F04105460C46174645
:104C60001E4615B10CB107B116B90020BDE8F081A0
:104C7000A068B04201D20020F8E7324639462068E9
:104C8000A84708B10120F1E7324639466068A847D5
:104C9000ECE72DE9F04705460C4617461E4615B1D0
:104CA0000CB107B116B90020BDE8F087A068B0428A
:104CB00001D20020F8E7324639462068A8478146ED
:104CC000324639466068A8478046B9F1000F02D1E4
:104CD000B8F1000F01D00120E6E70020E4E7000072
:104CE00070B504460D4604B105B970BDD821204603
:104CF000FBF743FC094820600120A080CC20E08025
:104D0000CC22294604F10C00FBF705FCCC2104F170
:104D10000C0000F031F8A06000BFE6E74746434DC5
:104D200070B504460D4604B10DB9002070BD11499F
:104D30002068884201D00020F8E7A088012801D02F
:104D40000020F3E7E088CC2801D00020EEE7E188DE
:104D500004F10C0000F010F80646A068B04201D043
:104D60000020E3E7CC2204F10C012846FBF7D3FB3B
:104D70000120DBE74746434D10B502460B46054888
:104D8000002104E0545C6040034C6043491C99429C
:104D9000F8D310BDC59D1C8193010001044800217A
:104DA000016041608160C160002002490860704775
:104DB000F0040020400100200348006808B10120F1
:104DC00070470020FCE700004001002070B5054658
:104DD000284600F007F8044614B9284600F0A8F861
:104DE000204670BD70B5B6B0064616B9002036B084
:104DF00070BD002413E00E4850F8245075B12868A7
:104E000060B1D82269462B68E868984730B13146CE
:104E10006846FFF785FF08B10120E8E7641C0548F4
:104E200000688442E7D3304600F0BCF80020DEE79B
:104E3000F004002040010020014609B1086808B9CB
:104E40000020704708480068042801D30020F8E7D4
:104E5000054802680068401C034B1860034840F88E
:104E600022100120EDE7000040010020F0040020A6
:104E700070B505460C4600260CB9002070BDFFF742
:104E80008DFF2748046025B1012D12D0022D42D19B
:104E900028E023480068006818B12148006840688D
:104EA00008B90020EAE71F48FFF7C6FF00B1012656
:104EB00032E01B480068006838B119480068406853
:104EC00018B117480068806808B90020D6E715486F
:104ED000FFF7B2FF00B101261348FFF7ADFF00B1A5
:104EE000012619E00E480068806838B10C48006857
:104EF000C06818B10A480068006908B90020BDE719
:104F00000A48FFF799FF00B101260748FFF794FF11
:104F100000B1012600E000BF00BF3046AEE7000050
:104F200044010020AC6F0008CC6F0008BC6F000883
:104F30002DE9F041B6B0064601274FF000081EB932
:104F4000002036B0BDE8F08131466846FFF7C8FE64
:104F5000FFF732FF08B90020F3E7002411E00F4803
:104F600050F824500DB1686800B909E04FF001080D
:104F7000D82269466B68E868984700B9002700BFE7
:104F8000641C074800688442E9D3B8F1000F02D0DE
:104F90000FB10120D5E70020D3E70000F004002086
:104FA0004001002010B5044604B910BDCC212046B4
:104FB000FBF7E3FA05202074012060749FED4E0A90
:104FC00084ED050A0003A0619FED4C0A84ED070AF9
:104FD0009FED4A0A84ED080AB3EE080A84ED090A37
:104FE000B2EE040A84ED0A0AB3EE080A84ED0B0A55
:104FF000B7EE000A84ED0C0AB7EE000A84ED0D0A44
:10500000B2EE080A84ED0E0AB2EE080A84ED0F0A29
:105010009FED3B0A84ED160A9FED3A0A84ED170ACC
:105020009FED390A84ED180A9FED340A84ED1A0ABF
:105030009FED320A84ED1B0A9FED300A84ED1C0AB5
:105040009FED2E0A84ED1D0A94ED0E0A84ED1E0AD2
:105050009FED2A0A84ED1F0A9FED2C0A84ED200A99
:105060009FED2B0A84ED210A9FED240A84ED220A8C
:105070009FED220A84ED230A94ED0F0A84ED240AA1
:105080009FED1E0A84ED250A9FED220A84ED260A73
:105090009FED210A84ED270A9FED180A84ED280A66
:1050A0009FED160A84ED290A94ED0D0A84ED2A0A73
:1050B0009FED120A84ED2B0AB0EE000A84ED2C0A53
:1050C0009FED0E0A84ED2D0A9FED0C0A84ED2E0A49
:1050D0009FED0A0A84ED2F0A94ED0D0A84ED300A43
:1050E0009FED060A84ED310A0120A4F8C8000020D3
:1050F00084F8CA0000BF58E70000484200000000E2
:1051000063149D430000C84200007A446666E63F8F
:10511000AE47613E17B7513AA69B443B014629B1C1
:105120004FF43C70405808B1012070470020FCE764
:105130002DE9F0412DED0A8B06461EB9BDEC0A8B18
:10514000BDE8F08106F1240506F1E404D349D6F860
:10515000EC020840C6F8EC02FFF73AFA07464FB1F6
:10516000786838B17868806820B1D7E90002916822
:10517000884700E0002020B14FF40001304600F0E5
:1051800093F995ED010AB5EEC00AF1EE10FA13DDC0
:1051900094ED000AB5EEC00AF1EE10FA0CDD94EDC4
:1051A000000AD5ED010AB4EEE00AF1EE10FA03D2DE
:1051B0000121304600F078F995ED020AB5EEC00AFB
:1051C000F1EE10FA0CDD94ED000AD5ED020AB4EE12
:1051D000E00AF1EE10FA03DD0221304600F064F936
:1051E00095ED080AB5EEC00AF1EE10FA60DDD4EDD7
:1051F000190AB0EE600AFEF76DFCB0EE40CAD4EDBD
:105200001A0AB0EE600AFEF765FCF0EE40CAD4ED73
:105210001B0AB0EE600AFEF75DFCF4EEC0CAF1EEC8
:1052200010FA06DDD4ED1A0AB0EE600AFEF752FC61
:1052300005E0D4ED1B0AB0EE600AFEF74BFCB4EEBD
:10524000C0CAF1EE10FA06DDD4ED190AB0EE600A1C
:10525000FEF740FC1FE0D4ED1A0AB0EE600AFEF73C
:1052600039FCB0EE40CAD4ED1B0AB0EE600AFEF77E
:1052700031FCB4EEC0CAF1EE10FA06DDD4ED1A0A24
:10528000B0EE600AFEF726FC05E0D4ED1B0AB0EE96
:10529000600AFEF71FFCF0EE40AA95ED080AB4EE96
:1052A000EA0AF1EE10FA03D20421304600F0FCF8CD
:1052B00095ED070AB5EEC00AF1EE10FA0CDD94ED9B
:1052C000150AD5ED070AB4EEE00AF1EE10FA03DD97
:1052D0001021304600F0E8F896ED160AB5EEC00A47
:1052E000F1EE10FA11DDD4ED140AB0EE600AFEF70B
:1052F000F1FBD6ED160AB4EEE00AF1EE10FA04DD89
:105300004FF48071304600F0CFF895ED0A0AB5EE03
:10531000C00AF1EE10FA7CDD95ED0B0AB5EEC00A7D
:10532000F1EE10FA06DC95ED0C0AB5EEC00AF1EECE
:1053300010FA6EDDD4ED190AB0EE600AFEF7CAFB72
:10534000B0EE409AD4ED1A0AB0EE600AFEF7C2FB46
:10535000F0EE408AD4ED1B0AB0EE600AFEF7BAFB0D
:10536000B0EE408AF4EEC88AF1EE10FA02DDB0EE3B
:10537000680A01E0B0EE480AB4EEC90AF1EE10FA8C
:1053800002D2B0EE490A09E0F4EEC88AF1EE10FA52
:1053900002DDB0EE680A01E0B0EE480AB0EE40BAB5
:1053A000F4EEC88AF1EE10FA02D2B0EE680A01E01B
:1053B000B0EE480AB4EEC90AF1EE10FA02DDB0EE22
:1053C000490A09E0F4EEC88AF1EE10FA02D2B0EE12
:1053D000680A01E0B0EE480AF0EE40BA39EE280A59
:1053E00030EE080ADFED2E0A60EE209A95ED0A0AEB
:1053F000B4EEE90AF1EE10FA33D29FED2A0AF4EE88
:10540000C09AF1EE10FA2CDD3BEE6B0A80EE29AA71
:1054100000E026E095ED0B0AB5EEC00AF1EE10FAB9
:105420000CDD95ED0B0AB4EECA0AF1EE10FA05D2C6
:105430004FF48041304600F037F812E095ED0C0A49
:10544000B5EEC00AF1EE10FA0BDD95ED0C0AB4EEE4
:10545000CA0AF1EE10FA04D24FF40031304600F0DF
:1054600023F83046FFF75AFEA8B1FFF7B1F880469F
:1054700000214FF4B470815500F0B6F8474647B1AB
:10548000786830B17868006818B1D7E9000211680F
:10549000884700BF00BF00BF50E60000E8BEFDFF28
:1054A000ABAAAA3EBD37863500B101B97047D0F826
:1054B000EC220A43C0F8EC224FF43C7212580A4323
:1054C0004FF43C731A5000BFF0E710B50446204675
:1054D000FCF7BEFD10BD10B504462046FCF7D9FD13
:1054E00010BD00002DE9F0470B4614464FF0000CAC
:1054F00000BF2C4A1268C2F302211D4626460A4606
:10550000C2F10709B9F1040F02D94FF0040901E013
:10551000C2F10709C84602F10409B9F1070F02D226
:105520004FF0000901E0A2F103094F464FF00109D5
:1055300009FA08F9A9F1010909EA050909FA07F9BF
:105540004FF0010A0AFA07FAAAF1010A0AEA060A62
:1055500049EA0A09CC4601466246002904DB1507E0
:105560002E0E114D6E5407E015072F0E0D4D0C3504
:1055700001F00F06361FAF5500BF014600290DDBB5
:1055800000BF00BF01F01F050122AA404D09AD0078
:1055900005F1E025C5F8002100BF00BF00BFBDE850
:1055A000F08700000CED00E000E400E000BF00F038
:1055B0000702064B19684FF6FF031940044B0B43D3
:1055C00043EA0221014B196000BF70470CED00E077
:1055D0000000FA05024A0A400243024B1A60704773
:1055E00080FFFF1F08ED00E010B5002211460748BC
:1055F00000F0A3FA00220221044800F09EFA0022E3
:105600000421024800F099FA002010BD000001407A
:1056100010B50446D4ED000A1A48008800EE100ABE
:10562000B8EE400A20EE800ABCEEC00A10EE102A46
:105630000021154800F0C1FAD4ED010A1148008894
:1056400000EE100AB8EE400A20EE800ABCEEC00A56
:1056500010EE102A02210C4800F0AFFAD4ED020A35
:105660000848008800EE100AB8EE400A20EE800AD2
:10567000BCEEC00A10EE102A0421034800F09DFA87
:10568000002010BD080000200000014070B500247B
:1056900000BF0A201A490968032282409143184A30
:1056A000116017490C31096803228240914301229D
:1056B00082401143124A0C32116000BF00251AE0EB
:1056C0006006040E4FF480710D48FEF7B5FF01200F
:1056D000FEF773F820210A48FEF7F9FF08B144F0FD
:1056E00001044FF480710648FEF7A8FF0120FEF781
:1056F00064F8681CC5B2082DE2DB204670BD0000CE
:105700000004024070B5044600BF0A20254909681C
:10571000032282409143012282401143214A1160B9
:10572000111D096821F02001121D116000BF002524
:105730001FE004F0800020B120211A48FEF77EFF10
:1057400003E020211748FEF777FF6006040E4FF4B0
:1057500080711448FEF770FF0120FEF72EF84FF419
:1057600080711048FEF76AFF0120FEF726F8681CDA
:10577000C5B2082DDDDB00BF0A200A4909680322F3
:1057800082409143074A116006490C31096803229F
:1057900082409143012282401143024A0C3211603F
:1057A00000BF70BD00040240002101704170817093
:1057B000C1700171417181710121C171704702682D
:1057C00061F3861202607047C26922F40062C2610E
:1057D0000A7862B9026822F400420260026822F488
:1057E00080420260026822F48062026036E00A7839
:1057F000012A0ED1026822F400420260026822F4FB
:1058000080420260026822F4806202F580620260D7
:1058100024E00A78022A0ED1026822F4004202F53E
:1058200000420260026822F480420260026822F4B0
:105830008062026012E00A78032A0FD1026822F423
:10584000004202F500420260026822F4804202F542
:1058500080420260026822F480620260CB790268B2
:1058600063F3492202604A78012A09D1CA79012AE0
:1058700006D1026822F4807202F58072026003E0B1
:10588000026822F4807202604B78026863F382023D
:1058900002608A78072A0DDC426822F400724260B6
:1058A000426822F4807242608B78026863F3C5021A
:1058B000026020E08A780A2A0ED1426822F400723F
:1058C00002F500724260426822F48072426002680F
:1058D00022F0380202600EE0426822F40072426058
:1058E000426822F4807202F5807242608A7803680E
:1058F00062F3C5030360CB78026863F3C7120260EA
:105900000B79026863F3CB2202604B79026863F380
:10591000410202608B79026863F300020260704703
:10592000B4EEE00AF1EE10FA04DDF0EE401AB0EE4B
:10593000602A03E0F0EE601AB0EE402AB4EEE11AFD
:10594000F1EE10FA02DDF0EE411A06E0B4EEC21AF2
:10595000F1EE10FA01D2B0EE412A31EE823AF6EEC3
:10596000003A63EE232A30EE623A80ED003A30EEE0
:10597000E23A81ED003A31EE623A82ED003A704748
:105980002DE9FE4F00250026A946AA46AB46002079
:10599000029001900024FDF7E5FD0090009820B1F1
:1059A000012819D0022850D123E033480068C0F301
:1059B000803018B131483249086002E0314830493E
:1059C00008602D48001D0068C0F302442C480068A0
:1059D000E0402B4908603CE02A48294908602648F5
:1059E000001D0068C0F3C24408460068E04008603B
:1059F0002FE021489C380068C0F3805A1E489C382C
:105A00000068C0F388151C489C38006800F00F0639
:105A100019489C380068C0F302401B4911F80090F7
:105A2000BAF1000F02D1DFF85CB001E0DFF854B04A
:105A300006FB09FCABFB05700146624600233846B5
:105A4000FAF792FC0E49086003E00E480C49086022
:105A500000BF00BF084898380068C0F303100290E8
:105A60000A490298085C0190054800680199C840FD
:105A700003490860BDE8FE8FA0380240006CDC02DC
:105A80000400002000127A00766F0008666F00089C
:105A9000042808D14FF0E021096941F004014FF0DA
:105AA000E022116107E04FF0E021096921F00401D3
:105AB0004FF0E02211617047C1628262436923F0B6
:105AC00001035B1C436170474B78426C63F359627E
:105AD00042648B78426C63F3175242640B78426CD9
